:020000040020DA
:20200000702C00208D22200017B4200015B4200015B4200015B4200015B4200000000000A6
:2020200000000000000000000000000015B4200015B420000000000015B4200083B520008D
:2020400095B520009BB52000A1B52000A7B520000000000089B520008FB5200015B4200009
:2020600015B42000000000000000000000000000000000000000000015B42000000000008E
:20208000000000000000000015B4200015B4200015B4200015B4200015B4200015B42000CA
:2020A00015B4200015B4200015B4200015B4200015B4200015B4200015B4200015B42000D8
:2020C00015B4200015B4200015B4200015B4200015B4200000000000000000000000000073
:2020E000000000000000000000000000000000000000000000000000ED392000FD39200044
:202100000000000000000000000000000000000000000000000000000000000000000000BF
:2021200000000000000000000000000000000000000000000000000000000000000000009F
:2021400000000000000000000000000000000000000000000000000000000000000000007F
:2021600000000000000000000000000000000000000000000000000000000000000000005F
:2021800000000000000000000000000000000000000000000000000000000000000000003F
:2021A00000000000000000000000000000000000000000000000000000000000000000001F
:2021C0000000000000000000000000000000000000000000000000000000000000000000FF
:2021E0000000000000000000000000000000000000000000000000000000000000000000DF
:202200000000000000000000000000000000000000000000000000000000000000000000BE
:2022200000000000000000000000000000000000000000000000000000000000000000009E
:2022400000000000000000000000000000000000000000000000000000000000000000007E
:202260000000000000000000000000000000000015B42000D1382000F5382000E92D2000C9
:202280006D3B2000B129200015B4200008B5094BFF221A600848094A4824E369121A08490F
:2022A00098470848084AA369121A0021984701F0F9FDFEE7B4200D40400000204C020020AA
:2022C00074C92000500200206A24002007B5002000F0C8FB012000F0C5FB1249002000F0B6
:2022E0008DFC114B0122104604210093032301F097FC02F0D9FB002002F0FAFC01F00EFB56
:2023000000F096FD00F0B2FD0821084801F042FC02F0E0FA62B6002003B05DF804EB09F0FF
:202320007DB800BF654A2000A08601004A24002073B51A4B1B68022B08DD1949194A1A48DC
:2023400003F0CCFD19491A4803F0C8FD6846082101F020FC174E9DF807309DF80650F46AE7
:2023600043EA05254AF6CD310220A04729460320A0471A210120A047736B082269460B2021
:20238000984709F083F800F045FA00210A4802F05FF9042009F042F802B070BDB0000020F8
:2023A00050C4200040C4200055C4200064C420009BC52000F0C2200004010020034B00225D
:2023C0001A60012243F8402C704700BF80C00D40054B1A6842F020021A601A6842F0100250
:2023E0001A60FFF7EBBF00BF00C40D40813801289ABF024B18780020704700BF30140020E1
:2024000008B5184B1B784BB3022802D13321322003E0042804D13521342009F039F808BDEB
:20242000062802D137213620F7E7032802D13321322008E0052802D13521342003E00728C7
:202440000CD13721362009F023F84FF47A7358434FF4807390FBF3F000B208BD4FF0FF3089
:2024600008BD00BF3014002081282DE9F34134D10021532001F04EFC01A9532001F05EFC45
:202480009DF804304C4DE62B02D000232B708DE02C238DF804300222062301A953208DF8D5
:2024A0000530002401F066FC3123022201A953208DF804308DF8054001F05CFC2D238DF83A
:2024C00004300222082301A953208DF8053001F051FC01232B7020466AE0082866D1364B0D
:2024E0001B78002B62D000241E23022201A953208DF804308DF8054001F03CFC1F23022234
:2025000001A953208DF804308DF8054001F032FC2023022201A953208DF804308DF80540F5
:20252000264601F027FC274664253321322008F0AFFF80B235210744342008F0A9FF80B2E0
:2025400006443721362008F0A3FF80B20444681E85B2002DE9D14FF4C87897FBF8F71E2386
:20256000022201A97F4253208DF804308DF8057001F000FC96FBF8F61F23022201A9764272
:2025800053208DF804308DF8056001F0F3FB94FBF8F420236442022201A953208DF80430E8
:2025A0008DF8054001F0E6FB284601E04FF0FF3002B0BDE8F08100BF3014002081380128F5
:2025C0009ABF024B18780020704700BF3114002008B5124B1B780BB911481AE0022802D109
:2025E00008F072FF08BD032812D108F06DFFC0F30F230F2B14BFDBB20E23C0B258432D232E
:2026000080F0020058430A2390FBF3F080B208BD044803F063FC4FF0FF3008BD31140020E5
:20262000A1C42000BFC4200070B5812886B032D102214A2004AD01F06DFB29464A2001F00A
:202640007DFB044600284BD19DF81030002B47D0254B02AE18681B7902903371FF238DF84C
:2026600010408DF811408DF812308DF813408DF81430335D02228DF804302B5D01A94A20C3
:2026800001348DF8053001F075FB052CF1D1174B01221A701FE004281FD1144B1B78E3B147
:2026A000114B02AE18681A79029053F8050F04AD1B79327104902B710024335D02228DF895
:2026C00004302B5D01A94A2001348DF8053001F051FB052CF1D1002004E0054803F0FEFBCE
:2026E0004FF0FF3006B070BD97C4200031140020E2C42000813801289ABF024B18780020AB
:20270000704700BF32140020812837B532D1E721402001F0FFFA01A9402001F00FFB0446A4
:2027200028B99DF8043003F0C703022B02D04FF0FF302AE002ADE62305F8030DE72140208E
:202740008DF8043001F0E6FA2946402001F0F6FA9DF80530022203F0380343F0020301A941
:2027600040208DF8053001F005FB094B01221A7020460AE00628DAD1054B1B78002BD6D070
:20278000FE21402001F0C6FA002003B030BD00BF3214002008B5184B1B784BB3022803D175
:2027A000BDE8084008F0B2BE032803D1BDE8084008F0C1BE04280AD108F0A8FE44F2A4439F
:2027C0005843000CA0F592500D3800B208BD05280ED108F0B0FE43F2D403584342F210730F
:2027E000000CA0F5167000B29842A8BF184608BD4FF0FF3008BD00BF32140020044B186875
:20280000C0F30720030904BF1030C0B2704700BF1C300D4008B5FFF7F1FF014B1B6808BD17
:202820001C300D40F8B500F081F80F4B0024D3E900673A46B04238BF7A1C15460443C3E9FB
:202840000045DFF828E0DEE90001821B61EB070312196B41CEE9002301F0F6FC18B1BDE897
:20286000F84001F075BCF8BD50020020580200200D4B0E4AE0215A600D4A82F823100022CC
:2028800007219A6019600B490B6843F001030B60094B1A60042243F80C2C012243F8082C3B
:2028A0000F22DA62704700BF10E000E047E8010000ED00E008200D400C000340034BD3E99A
:2028C0000023100A40EA0360704700BF50020020034BD3E90023D00B40EA4340704700BF1B
:2028E00058020020054B18601C3B1A6842F001021A601A68D207FCD4704700BF2800034002
:2029000010B5064C236823F001032360FFF78AFF236843F00103236010BD00BF10E000E05B
:20292000014B1868704700BF60020020074B084A196804331B681268120442EA0323054AC3
:202940000B43106843EA0060704700BF40500D4048500D404C500D4010B50446104A13681F
:20296000DB07FCD572B6FFF7E1FF231A062BD8BFC41D0C4B220E1A60C4F3074243F8042C54
:20298000C4F3072243F8082CE2B243F80C2C62B6054B4FF400321C60044B1A6110BD00BF32
:2029A00050500D404C500D406002002000E100E008B501F041F8074B00221A60064B4FF495
:2029C0000032C3F89021C3F89020BDE8084001F063BE00BF6002002000E100E0064B1B6819
:2029E0001B075FBF054B186880F00800C0F3C00048BF0020704700BF18C0004018D00040FF
:202A0000164A2C2303FB00234FF6BF7270B5DC680546236C62649BB213F050020DD0104E8A
:202A2000A369DB0608D456F825301BB12068C0B29847F5E72368F3E770BD13F4D06F0BD0F6
:202A40004FF440732363FF236360E36AE262E362236B43F00103236370BD00BF98C220008E
:202A60006402002001282DE9F74F064600F2B6802C2545435B4F7C1994F92080B8F1000FDA
:202A8000C0F2AC8094F92290B9F1000FC0F2A680554801F047F8554A7B591168E5680B4334
:202AA00013605168636894F921A00B4353609168A3685FFA89FB0B4393600023C5F8C83FC7
:202AC00023690AEBC8021A6094F92330227D00939DF8003058461946019300F039F9019B0B
:202AE00008221946584600F029F9414A4FEA0939009959F80200012303FA01F1014349F813
:202B000002104FEA083858F8020003FA0AF1014348F802105021A963A96B94F9240041F4D3
:202B2000D061A963022169634FF440712963A16900286962E169A9624FF07001E962154641
:202B400016DB94F92510A2F5A64241EAC0041C3A1460040362598B40134363510022C9B256
:202B6000C0B200F0EBF8234A136843F4004313602C2303FB067393F92640002C1BDB93F9D5
:202B800027A05FFA84F85FFA8AF9012249464046240300F0DDF86259012303FA0AF313436A
:202BA000635108224946404600F0C8F8114A136843F4804313602C2303FB0676F268136B8E
:202BC00043F00103136396F828300122590903F01F0302FA03F3084A42F8213003B0BDE8A1
:202BE000F08F00BF98C22000DD29200028200D4020940D4030D0004000E100E001289CBFDC
:202C0000014B43F82010704764020020012808D8044B2C2202FB0030C3689A699206FCD457
:202C20001960704798C22000014B00221A60704700500D40014B08221A60704700500D406A
:202C4000024BA0221A6050221A60704700500D40014B024A9A60704700ED00E00020200055
:202C600038B5164D164C2B68012223F040032B602368062123F040032360032000F05EF817
:202C80002B68012223F080032B602368072123F080032360032000F051F80A4A0A4B0B4938
:202CA0001A600A680A4B1340084A002BF9D113685901FCD413685B01FCD538BD20C40D40C6
:202CC00000C40D400101020000200D4004200D40000001012DE9F84304464FEA0438DFF818
:202CE0003C9008F1804606F5592600F0A5FED6F8187458F80930E50023FA05F447EA040029
:202D0000C0B2E4B2A840FFB2AC4001F05BFFC6F81C7448F80940BDE8F88300BF18970D4029
:202D2000034A044B1A60044B803A1A60704700BF80400D40700200206C020020034B01EB1D
:202D4000C0011B6843F82120704700BF70020020034B01EBC0011B6843F82120704700BF3B
:202D60006C0200200E2870B50BD1154B154E1C6844F002051D60356825F03F0343F0010364
:202D80003360114E336823F0FF031A43114301430E4A316013681B06FCD50D4B0D4A1B6814
:202DA00012680E2803F0FC0343EA022308BF054A1BB204BF1560024A184608BF146070BDF2
:202DC00034000144F486084008700D4000700D400C700D4010700D40024B1868B0FA80F0B9
:202DE0004009704700B7084010B5074B4FF40042064CC3F89021C3F89020206818B101F0CD
:202E00003FFC0023236010BD00E100E074020020064A136843F002031360536843F0020344
:202E20005360936843F002039360704748200D4007B50C4800F076FEFFF7EAFF0A4B1A6823
:202E400042F002021A6000220192019A0F2A02DC019A0132F8E71A6822F002021A6003B0E9
:202E60005DF804FBD92D200054200D40064A136823F002031360536823F002035360936840
:202E800023F002039360704748200D402DE9F0410E464FEAD0084FEA083400F0070101277A
:202EA00004F180448F4016F00C0304F559246FEA070505D1D4F810342B40C4F810342DE03C
:202EC000042B0DD1D4F804342B40C4F80434D4F808342B40C4F80834D4F80C343B430EE09F
:202EE000082B0FD1D4F804342B40C4F80434D4F808342B40C4F80834D4F80C342B40C4F8BE
:202F00000C340BE00C2B09D1D4F804342B40C4F80434D4F808343B43C4F8083416F0030289
:202F200004D0022A02D0012A03D104224046FFF705FF16F0800605D1D4F810342B40C4F881
:202F400010340AE04EB1D4F81034074A1F43012303FA08F3C4F810741360D4F820341D4035
:202F6000C4F82054BDE8F08100E100E0074B93F90020002A08DB064AED211160E3211160FB
:202F80001A7862F07F021A700120704737140020388808400B4A13689907FCD4094B1B68E0
:202FA0005B065EBF084BED221A60084B1B6813B1054BEF221A60064A0120137803F07F03D1
:202FC000137070474C860840388808402C8608403714002010B50A4B04461B6813F03F0304
:202FE00002D0FFF7D7FF012304EB840205492C3A0A600BB1FFF7BAFF034B1C7010BD00BFAB
:20300000488608403C8608404B02002010B50B4B1B68990603D1FFF7A9FF012300E000234D
:2030200007490A68D207FCD5064A1468C4F300140BB1FFF7AFFF204610BD00BF4886084025
:20304000648608404C860840044B186800F02200A0F1200358425841704700BF4C860840CC
:20306000024B186800F04000704700BF4C86084038B50C46002900F09480172800F2938013
:20308000DFE800F00C191C1E253B44565B7074919191797B7D8091828486888C434B1868FE
:2030A00010F0FF007BD0424B1B6813F0030F0CBF012302236FE03F4B1B786CE03E4B00E06C
:2030C0003E4B1A68043B1B6843EA022363E000230B603B4B364A1B6803F001030B6012689B
:2030E000920644BF43F002030B60364B1B78002B52D00B6843F004034DE0334B00201B7826
:203100000860002B48D001230B6038BD2F4B30491A680023D2B201EBC3000079904203D88F
:203120002B4A52F8333036E001330E2BF3D126E0284B1B685BB2493B2DE0274B1B689B06F6
:2031400003D1FFF713FF012200E000222348036859B28031FBD0493B5DB20AB1FFF71AFFB4
:20316000256019E01E4B93F9003014E01D4B1B7803F07F030FE00B230DE01A230BE06FF0B7
:20318000170308E0072306E0032304E0202302E00C2300E008232360002038BD002020607C
:2031A00038BD022038BD012038BD00BF2C860840248608404B020020CC850840D48508409B
:2031C00000860840361400204A0200204086084028C32000588608404886084060860840C8
:2031E000351400203314002038B505460C46124A13689B07FCD4114B93F90030002B01DB0D
:20320000FFF7B4FE0E4BEE221A60691EA21C43F8102C2144022000F09BFB013C09492401A6
:203220002143022000F0A6FB022000F0ADFB022000F0C2FB002038BD4C8608403714002054
:203240003888084002C001C0F8B5214B93F90030002B0DDBFFF76AFB0546FFF787FE6FF07B
:203260000904641BFFF762FBC442FBD4012600E00026184B1B7823B9174D2B68990604D42D
:2032800005E0FFF7C3FE0028F6D10220F8BD134BE9221F461A6004242B689A0707D4013C10
:2032A00014F0FF0403D00620FFF71CFBF4E72B689B0703D4EE233B60012403E02C6814F0CE
:2032C0000204FBD10EB1FFF765FE2046F8BD00BF371400204A0200204C8608403888084031
:2032E000214B1870002834D0204A13681B03FCD51F4B1A6842F002021A601A6842F0010287
:203300001A601A681A495007FBD50A6822F001020A601968164A4907FBD4116841F0020189
:203320001160116841F0010111601A685207FCD5104A136823F004031360D2F8A83123F03B
:203340000403C2F8A8310C4B4FF40052C3F890207047084A136843F004031360064B4FF4B7
:2033600000521A61704700BF3614002004200D40048808408C86084000E100E00B280DD12F
:20338000082A0DD161B1074B074A083111F8010D43F8040F9342F9D100207047012070477C
:2033A00002207047A4850840C485084070B52E4D2B6813F0400307D02C4E3368DCB21B061E
:2033C00004D52B4BED221A60002070BD042CF8D9023C8C42F5DCE4B2032C21D001190139E0
:2033E000032000F0BDFA631E22491B011943032000F0C0FA032000F0C7FA032000F0DCFA15
:20340000032000F0E5FA0028FAD131681A4B493949B219703368194E18063370D1D506E074
:20342000336803703368437033688370EDE789B2042001F081FF3178032001F07F0101F0D0
:203440007BFF0F4B1B786BB92B685A060AD5064B1B681B0603D50B4801F012F902E0044BC2
:20346000ED221A60204670BD4C860840288808403888084002C0010C351400203314002077
:2034800036140020A00000202DE9F0412E4F3D7815F0010555D12D4B01241C605C609C6087
:2034A000A3F59323A3F51473F8221A600922C3F89021152270331A6003F59B230B2203F545
:2034C0009E731A60A3F59B23214EA3F5A6731C604023336033684FF07F0843F0200333602F
:2034E0001C4BD5221D60C3F848809A631A4B1878FFF770FD33684FF4804223F00C033360C4
:20350000164B0220C3F80080154B1A6100F048FA1449022000F024FA032000F041FA1149AB
:20352000032000F015FA104B1878FFF7D9FE29460E4801F08DF83B78204623433B70BDE8A7
:20354000F0810020BDE8F08137140020A8200D4024860840088608404B02002094860840AD
:2035600000E100E02888084036140020A000002038B503880446CBB140F24742934203D0C7
:2035800000230380032038BD194B18781A4628B11B7873B1174B1B7858060AD5822908D1D3
:2035A000137843B1134B1A78520614D440F247432380012038BD01F075FE01F007FE8021EC
:2035C000FFF7F4FE0028EDDD80B201F0E3FD0A4BDB689847E6E700221A70084B1D68FFF750
:2035E000D9FCFFF751FFAB06E0D0FFF7BFFCDDE73614002037140020B4C320004886084058
:203600000B282DE9F84F0E4610D1082A40F0828000297FD0414B424A4E1E53F8041D934244
:2036200006F8011FF9D10020BDE8F88F0C286ED1042A6FD100296DD03A4B3B481A68DFF8AE
:20364000F8C022F007021A600268DFF8F0A042F008020260DAF80040DCF800101A68DFF85F
:20366000E0E022F07002314F1A60DEF800203D68E4B2090244EA056401F47F41120421430A
:2036800002F47F020A432A490024D1F800805FFA88F544EA02081A68A94622F0070242F0BA
:2036A00001021A60026842F008020260DAF80000DCF800201D68C0B225F0700545F01005F4
:2036C0001D60DEF800303D68120240EA056002F47F421B04024303F47F0313430A6844EA95
:2036E000030A5FFA82FBFFF721F9B8EB0A0869EB0B094FEAC93105460E4A00234FEAC83090
:2037000041EA584107F09CFB281A30608BE70120BDE8F88F0220BDE8F88F00BFC885084024
:20372000A88508401088084004880840208808401C8808400048E801188808401488084087
:203740002488084013B50C460D2800F2A180DFE800F007464E5259757B8F9F9F9F9F9F95E7
:20376000012939D011B9FFF715FC85E08B1E012B00F2908001A90020FFF77AFC022C019B09
:2037800019D1022B78D05A1E53425341434A1370FFF700FC424B434A1968116042221A603D
:2037A000D3F8C010404A11601822C3F8C020E922C3F8142260E0022B5ED13C4BEF221A60F4
:2037C000384B1A68364B1A60374B1A68384B1A60324B1B78002B4FD0FFF7C8FB4CE0A1F117
:2037E0000B030F2B56D8C8B2FFF7F4FB44E08CB2E2B2304B02E08CB22F4BE2B2240A1A60AD
:203800005C6039E031F0070344D12C4B11F0010F1A68C1F3800014BF42F0010222F0010238
:203820001A601F4B11F0020F1A6814BF42F0200222F020021A60FFF753FD1DE031F00100D6
:2038400028D11F4B197026E001F118031F2B21D81C490D2351F83300DA00844204DC194B31
:2038600013441A79184B0EE013F1FF33F2D203E0CCB2164B49341C6000200CE0084B1A6877
:2038800019B122F00C021A60F6E742F00C02FAE7012000E0022002B010BD00BF34140020FD
:2038A000248608407C0200207802002038880840E4860840C8850840D08508400086084024
:2038C0004A02002028C32000408608405886084008B5054B1B7813B9044800F0D1FE044B77
:2038E00000221A6008BD00BF36140020A000002034880840064B07481A68042A1FBF0649FD
:203900000A7842F040020A7000221A6000F0B8BE2C880840A00000203714002010B5094CF4
:2039200040220021204607F027FD074B01221A605C60064B4FF480425A604FF400425A6089
:2039400010BD00BF0000002004F00F4000E100E003289EBF014B00011950704700000020A2
:2039600003289EBF024B03EB00104160704700BF0000002003289EBF024B03EB0010816089
:20398000704700BF00000020032806D8034901220B6802FA00F018430860704728F00F40D9
:2039A000032806D8034901220B6802FA00F018430860704720F00F40032806D803490122DF
:2039C0000B6802FA00F018430860704714F00F4003289FBF044B03EB0010806800F0070006
:2039E00088BF0020704700BF00000020024B4FF0FF321A60704700BF04F50F40014B012266
:203A00001A6070474CF00F40094A1368084913F4801FFAD1074B1A6822F480321A600A68D2
:203A2000D203FCD41A6842F400321A60704700BF04200D4000200D4010B50A4C23689A07E2
:203A40000FD009490B68084A13F0806FFAD113685B01FCD5FEF754FFFFF7D6FF236800234A
:203A6000236010BD58200D4004200D4038B5274B1C6814F03F0413D1254D55F8243023B1CB
:203A8000984768B10134052CF7D1224D2B783BB1FEF746FF0446FEF749FF201A092801D8FD
:203AA00030BF38BD002CFBD01B4B1C481A6822F400321A600268194912F4801FFAD11A685F
:203AC00042F480321A600B68DB03FCD5FEF72EFF201A092803D8BDE83840FFF795BF632808
:203AE0000F4C02D92B78022B00D00123236000F07DFD20B1FFF788FF0023236038BDFEF701
:203B00000FFF0028F6D02368CAE700BF48860840800200203814002000200D4004200D40AC
:203B200058200D400749002351F82320824207D01AB9044A42F8230070470133052BF3D1C9
:203B4000704700BF80020020054B00221A60054A136943F004031361034B01221A70704736
:203B600058200D4000ED00E03814002010B5074B4FF48032064CC3F89021C3F8902020688A
:203B800018B100F07DFD0023236010BD00E100E094020020134B1B782BB101F520112731BC
:203BA0000138114B16E0114A1278122AF5D1104A12784B2AF1D108448B420ADA03F5201251
:203BC000032BD4BF2C3224321278013300F8012DF2E77047994204D011F8012900F8012FF2
:203BE000F8E770472B002800270028002A00280029002800024A136843F0100313607047B3
:203C00002000024014235843034B044A0344B3FBF0F3013B13607047FF23F4000C00024032
:203C20002DE9F84306460F4614461D462A4ADFF8B4901368DDF8208043F001031360D9F8DB
:203C40000030322043F00103C9F80030FEF74AFED9F80030214A23F00103C9F800303003D6
:203C60008158012303FA07F921EA09018150210351F802C0AB402CEA030C41F802C02032D8
:203C800050F802E049EA0E0E40F802E0885803438B50304639460022FFF750F82946204666
:203CA0000022FFF74BF80E4B47EAC6021A6045EAC4025A60394630460B22FFF749F820466F
:203CC00029460C22FFF744F8FFF794FF4046BDE8F843FFF797BF00BF38200D4000940D4095
:203CE0002C410D4044200D40024B18600120FEF7F9BD00BF04000240054B1868C0B2C307B7
:203D000004D410F0120F08BF00207047002070470400024008B5074B400018609960072008
:203D2000FFF7E2FF044A1368DB07FCD4BDE80840FFF7E2BF00000240040002400A4B400090
:203D400040F0010010B5186007200C46FFF7CCFF064A1368DB07FCD4FFF7CEFF10B9044B63
:203D60001B68237010BD00BF0000024004000240080002402DE9F8430F461446002A3CD099
:203D800000293AD0012A04D1BDE8F8430978FFF7C1BF1B4A430013600B781A4E032033605D
:203DA000FFF7A2FF184A1368DFF85C8013F0010FF9D1FFF7A1FF70B9012504F1FF3914E0F9
:203DC0003C4414F8013C05203360FFF78DFFD8F80030DB07FBD4BDE8F843FFF78DBFD8F83D
:203DE0000030DA07FBD40135EDB2A945E8DD7B5D01203360FFF778FFF1E78020BDE8F883CA
:203E00000000024008000240040002402DE9F8430F461446002A3CD000293AD0012A03D168
:203E2000BDE8F843FFF78ABF1B4A430043F0010313600B20FFF758FF184A1368DFF85C8009
:203E400013F0010FF9D1FFF757FFF0B9144E0125336804F1FF393B70A9450BDD0920FFF7A0
:203E600043FFD8F80030DA07FBD433687B550135EDB2F1E70520FFF737FFD8F80030DB0705
:203E8000FBD433683C4404F8013CBDE8F843FFF733BF8020BDE8F8830000024004000240EF
:203EA0000800024038B5634C07F0E4FAFEF7E0FC07F0F1FB00F040FB00215F4800F0C8FBED
:203EC00000F030FAFEF7B0FE07F0C7FB00F0F8FBFEF7FCF900F04AFF01F078FA00F0D6F944
:203EE0002368022B07DD554A5549564801F0F6FF554801F0F3FF2368022B09DD50494F4A15
:203F0000504801F0EBFF514B5148196801F0E6FF2368022B09DD4A49484A4A4801F0DEFF7F
:203F20004C4B4D48196801F0D9FF2368022B09DD4349424A434801F0D1FF484B4848196865
:203F400001F0CCFF2368022B09DD3D493B4A3D4801F0C4FF4AF6CD31424801F0BFFF2368C1
:203F6000022B08DD3649354A364801F0B7FF1A213D4801F0B3FF2368022B09DD30492F4A19
:203F8000304801F0ABFF394B3948198801F0A6FF2368022B07DD294A29492A4801F09EFF51
:203FA000344801F09BFF2368022B02DD324800F08FF82368022B02DD304801F08FFF0822BA
:203FC0002D492F4807F0FEF800212E4800F040FB4FF0FF3002F03CFD23680546022B07DDC5
:203FE000164A1749174801F079FF274801F076FF2368022B05DD0DB1A81C00E0284600F00A
:2040000057F82368022B02DD1C4801F067FFFEF78FF91E4807F010FBFEF70CFE00F0A4FA8D
:204020000446FEF70DFE14F0FF0FF7D107F02CFAF4E700BFB0000020B40000203EC52000DE
:2040400050C4200055C4200043C52000E0C320007AC52000D0C3200089C52000B4C32000F1
:2040600094C520009FC52000B9C520004C0D0020D9C52000E6C520004A2400205CC92000D0
:20408000A41C002098010020FBC5200030C4200010B50446FEF71CFC94E80C001344C01ABE
:2040A000024B98428CBF0020012010BDFEFFFF7F00B58BB002462821684604F06BFE6946CA
:2040C000024801F00BFF0BB05DF804FB1FC6200038B5054608B1002409E00948BDE838401B
:2040E00001F0FCBEE30702D4064801F0F7FE295D0548013401F0F2FE082CF3D138BD00BF8C
:204100003BC620004AC620004CC6200010B50E4C236813B90D4A136010BDFEF7CFFB2168C7
:2041200091E80C001A44131A8A6842B192E812002144091A8B4228BF0B469268F5E718443F
:20414000024B186010BD00BF980200209C020020014800F095BA00BFB40000202DE9F8432A
:204160000388054633B1592B0BD0002303800320BDE8F883234A136059232B800120BDE870
:20418000F883872924D08229F6D11E4F4FF00008B9463C680026002CEED0204607F084FA4C
:2041A00098B122468821E06800F02AFA58B9E060A3680EB1B36001E0C9F80030C4F8088005
:2041C000FFF7A4FFE5E7FFF7C3FF2646A468E2E70C4900200B681BB90028CDD00B60CBE7E3
:2041E000DC68A24202D19B680120F4E700B10B6099680029C0D0C86882420ABF89680B46F0
:204200009960F5E79802002010B50446FFF7A0FFE3680B4A4BB113683BB1A34203D1094A5C
:204220001268DA6007E09B68F6E7064B1B68E36013681460A360BDE81040FFF767BF00BF2A
:2042400098020020A4020020024B1868003018BF012070479802002010B50B4A0446136899
:20426000834206D18368136008E09A68944203D01346002BF9D103E0A2689A60FFF746FF41
:204280000023A360E36010BD98020020034A9179D379034A03EB0123138070474A24002054
:2042A0004C0D0020F8B50388064615462BB14A2B15D0002303800320F8BD174807F024FA7E
:2042C00004462CB1A168201D07F0C8F92468F8E7124B01221A704A2333800120F8BD88299D
:2042E000FBD10D4807F010FA0446002CF3D0231D9D420ED12146084807F010FA084B62698F
:204300001F681A60A2691D460AB1E06990472F60E1E72468E9E700BFA002002039140020B2
:20432000A402002010B5064B002406481C7007F0E8F92146BDE81040034800F089B900BF33
:2043400039140020A0020020C400002070B50446E3610B4B049D1B786561A26143B1094DFA
:20436000094B2E68201D2B6007F078F92E6000E0A1602146BDE87040044807F0E2B900BF5B
:2043800039140020A4020020C4000020A002002013B5034C24680094FFF7D8FF02B010BDC1
:2043A000A402002070B5094B05461B783BB1084C084B26680430236007F059F926602946CA
:2043C000BDE87040044807F0BCB900BF39140020A4020020C4000020A002002010B5084B20
:2043E00004461B781BB10430FFF736FF01E0C36003612146BDE81040024807F08FB900BFA9
:2044000039140020A002002010B50A4B04461B7823B1BDE81040043007F032B9064807F052
:2044200073F918B1A04203D00068FAE7012010BD002010BD39140020A002002038B5836867
:2044400004460D469BB10A4804600220A07304F10C0098470238012801D9832D05D121467E
:204460002046BDE8384000F005B80123A37338BDA40200202DE9F8431C4A044615688946CA
:204480002B4690461A4E3768A34204D00BB11B68FAE7BDE8F88334B3A37BABB10023A3733B
:2044A00045B1A54204D022468721284607F0EDF82D68F5E7A3683BB14C4505D034602A461F
:2044C000832104F10C009847D8F800309C4203D12268064B05E0134623B11A689442FAD196
:2044E00022681A603760BDE8F88300BFA8020020A4020020002370B51D46094A012613700A
:20450000084A146854B1E37B33B1A673E573002282212046FFF792FF2468F3E770BD00BF11
:204520003C140020A8020020024B1878421C1A70704700BF3D140020064B8A221A70064ABE
:2045400000231370054A1370054A1360054A1360704700BF3D1400203A1400203B1400209B
:20456000A8020020A40200202DE9F0411A4D2B780BB1FFF7BFFF194C22783AB3184E0C216B
:204580003378184F5943781817F8018001334768806803F01F03013A3370227068B9124B7F
:2045A0001E689EB12B780BB1FFF7A4FF30463A46414607F06AF83668F3E7B8F1810F04BFE4
:2045C000012383733A46414607F05FF82B7820781844BDE8F08100BF3C1400203B14002021
:2045E0003A140020AC020020A8020020024A034B10781B78184470473B1400203C1400200E
:20460000F0B50B4E3378202B0FD00A4C0C252478094F1C4404F01F046C4301333D19A86094
:2046200039556A6033700020F0BD0120F0BD00BF3B1400203A140020AC02002038B5034C3E
:20464000256807F022F8256038BD00BFA402002030B40A4C0A4625682B4683420CD00BB1D8
:204660001B68FAE740B101210560817320608381812130BCFFF7E2BF30BC7047A802002054
:2046800038B1837B013B012B9FBF024A0123C373137070473C14002010B5084C206858B173
:2046A00000232360816843689847236823B1BDE810401868FEF750B910BD00BF2C04002033
:2046C00082B0074B02AA42F8043DCD21934202D203F8011BFAE70348002102B0FFF7B8BF15
:2046E0006A240020D400002038B5FEF7A9FA0D4C0D4B22780C4DCD2A06D09C4207D2013436
:20470000F7E7AC4203D201342378CD2BF9D0FEF797FAAC423DBF0448001B80B24FF6FF70AA
:2047200038BD00BF6A240020702C002070B5038805462BB1902B0BD000230380032070BDF8
:204740004FF4A061134806F089FF90232B8003E0104806F095FF08B9012070BDFFF7C4FF51
:204760000D4C0E4B06461C1BA4B2A0420DD90C4B1B68002B09DD0B4A0B490C4801F0AEFB64
:20478000224631460A4801F0A9FB024806F06FFFDBE700BF300400206A240020702C002066
:2047A000B0000020E3C62000E9C6200055C42000EDC6200010B5044690F84C30084A0133EC
:2047C00080F84C30802103462030FFF7E1FD054B2246BDE8104019780020FFF711BF00BFF4
:2047E000B54720006524002070B503880446BBB1CB2B03D000230380032070BD822911D142
:2048000006F0DDFEBFF35F8F104B00221E681A60BFF35F8F06F0D7FE0D4D55F8040F18B9B4
:20482000CB232380012070BD90F8453026FA03F3DB07F2D5FFF7E8FD0028EED02B68054A3A
:2048400002211846FFF7A4FDE7E700BF4C0400208C00002071482000034A1368184310602B
:204860000248FFF70DBF00BF4C040020E400002070B50446FFF7C8FD20B304F1200630466B
:20488000FFF7C2FD0546204606F026FF01280CD1C5B1002523460C4A84F84C507E2130460A
:2048A000FFF776FD2246094B06E058B955B93046FFF794FD2246064B2846BDE870401978C4
:2048C000FFF79EBE70BD00BFB54720006624002064240020F8B5FFF727FE304B304D1870E4
:2048E000FFF722FE2F4B304C1870FFF71DFE2F4B2F4F18700023AB602E4B01266B60216871
:20490000002943D091F84530886C2B4AD90809030A44116803F0070306FA03F321EA03033C
:2049200013602368254A93F84530D90809030A44116803F0070306FA03F321EA03031360DF
:20494000236840F08C0193F84500FEF79FFA23681B4A93F84530D90809030A44116803F01A
:20496000070306FA03F30B431360236893F84530DB0806FA03F33B6054F8043B93F84530EC
:2049800006FA03F2AB681343AB60B8E70D48FFF75FFEBDE8F840024800F00EB966240020DF
:2049A0004004002064240020900000206524002000E100E05948200020940D4000940D402E
:2049C00010940D40E400002070B5058804466C2D09D07E2D30D0002D34D1FFF7A5FD1C4B98
:2049E00018701C4B1D601B4D2E461B4806F038FF431C01D16C231DE00A28164A07D02B6826
:204A00007E2BF2DC5A1C3260144AD054EDE713680025591C1160114A2846D5540C4B197861
:204A2000FFF7EEFD0E4B2A4685211868FFF7E8FD20B97E23238009E0852907D1054B0022CD
:204A40001A60D0E700230380032070BD012070BD6724002050040020540400203E140020D8
:204A6000A40200200D2810B5014615D00B4C23782BB90B4806F0E1FE48B9012306E00A280F
:204A800005D1074806F0D9FE08B1002323700548FFF7F6FD012010BD002010BD3E15002031
:204AA00054040020F400002008B505490548802206F0BCFEBDE8084000210348FFF7C8BDEC
:204AC000BE14002054040020F40000200022F0B51746154C0125FF2640FA02F3DB071ED584
:204AE00004EB4203597814F8123061B1D908090301F1804103F0070301F5592105FA03F34F
:204B000041F823700BE0D908090301F1804103F0070301F5592105FA03F341F823600132ED
:204B2000042AD9D1F0BD00BF74C42000F0B5104C00210125FF2640FA01F3DB0714D504EB84
:204B400041035F7814F81130DA08120302F1804203F0070302F5592205FA03F317B142F8DB
:204B6000236001E042F8237001310429E3D1F0BD74C4200070B40E4E0022012516F81230D4
:204B80000C49D80800030C5803F0070305FA03F324EA03040C50203901440868013203438F
:204BA000042A0B60EAD170BC0F20FFF7BFBF00BF74C4200020940D400146014806F0C1BDB6
:204BC0005C04002038B50546064806F09DFD04463CB1A068284002D0636803B198472468DC
:204BE000F6E738BD5C040020014806F08ABD00BF5C0400202DE9F04106880546772E31D0D8
:204C00007E2E40D0002E4ED12B4CFFF78DFC266026462A4B2A4FDFF8B0801870236857F84C
:204C200023204AB1002108F80310936880209847336801333360F1E7224A1370772320E0C5
:204C4000214AD256002A12DB1B4A136801331360194B1C4A1B6812789A42F1DC1B4B1B68BA
:204C6000002BEBD0194A00231360134AEFE7144A002052F82320114B1978FFF7C1FC30B98E
:204C80007E232B8014E00D4B1B788B4210D10A4B0D491A688B5C03F07F038B540B4A136803
:204CA00001331360D0E7002303800320BDE8F0810120BDE8F08100BF600400206824002091
:204CC000980000203F1500206224002064040020054A136843F004031360044B1B68906938
:204CE00043EA002080B2704700700D4014700D4010B5184A136823F00C031360164B012235
:204D00001A601A68012AFCD1144B08221A60E322C3F8142203F505731946114A1368DB071F
:204D2000FCD5104C102000232268013802F0010243EA02034FEA43039BB2F5D1002BF1D08B
:204D4000094A180A03F0FE0310601360EF230B6010BD00BF00700D40A8200D40248608403A
:204D6000648608409C86084014700D4008B5044806F006FDBDE80840024806F001BD00BF1A
:204D80002001002014010020014806F041BD00BF1401002038B50E4806F002FD0446A8B191
:204DA0000C4806F0FDFC0546206028B92146084806F00AFD284638BD00F010FA05F19C0160
:204DC000A5F8800005F1820000F092FA204638BD140100202001002010B50146044607484C
:204DE00006F008FD48B12168054806F0EDFC2146BDE81040014806F0E7BC10BD14010020CA
:204E00002001002010B501460446094806F0F2FC68B12468B4F88010204600F053FA04F14D
:204E20009C0104F18200BDE8104000F073BA10BD1401002030B1054B9B68C01A044B80105D
:204E4000584370474FF0FF30704700BF2C010020ABAAAAAA38B50D4D002818BF05460C4841
:204E600006F052FC044668B1211D284606F055FD20B12046BDE83840FFF7DCBF204606F056
:204E80007CFCEFE74FF0FF3038BD00BF38C420008804002008B5024606F002FD4AB1431C86
:204EA00009D0064B1B5C106843FA00F000F0010008BD104608BD002008BD00BF7015002092
:204EC00050B10368072B06D8044A52F823301B1A5842584170470020704700BF4C05002045
:204EE00010B50446FFF7ECFF08B1A1600AE0064A1368072B07D8581C1060044A2360A1608C
:204F000042F82340012010BD6C0500204C050020F8B505460C460F4E0C272146284606F05F
:204F2000BFFC431C16BFB368002007FB003006F024FCFFF77FFF0146284606F0A7FC0446F3
:204F400028B101462846FFF7A5FF0028E5D02046F8BD00BF2C01002038B505460B4806F0A4
:204F6000D3FBFFF767FF0146284606F08FFC044601462846FFF78EFF28B921462846BDE8F4
:204F80003840FFF7C5BF204638BD00BF880400202DE9F84F0D46904699460646002800F090
:204FA0009E80504B002908BF1D462846FFF752FF421C07464AD14C4F384606F0F1FB044625
:204FC000002837D14946404603F098FF002800F08680FFF73FFF431C4AD0BB680C2202FBE9
:204FE0000032424B195C002A42D0002975D01C5473E0002C57D0BB4255DB104606F0BDFB8C
:205000000246002A3FD1002C69D0DFF8ECB000275BF82780B8F1000F49D10137082FF7D10C
:205020002046FFF707FF324B00221A542146314806F074FB21462F4806F083FB2046FFF70E
:20504000F9FE29460746201D06F064FC3946304606F01CFC04467268002106F08DF9012322
:2050600022463146224806F026FC2046BDE8F88F204806F049FB002402462746DFF86C90EF
:20508000DFF86C80BDE71046FFF7D4FE19F80030002BB2D118F800100029AAD0C80748BF03
:2050A00001334910F8E7C3B114461F46A5E7D8F80890B9F1000FB0D02046FFF7BBFE0146C8
:2050C000404606F0E3FB014682464046FFF7E2FE0128A2D15046C8479FE7144695E700204E
:2050E000BDE8F88F38C420002C0100206015002070150020880400204C05002070B50A464F
:2051000004460D4600230146054806F0D4FB064600232A462146034806F0CDFB304670BD84
:2051200070150020601500200A4601230146014806F0C1BB601500200A4600230146014827
:2051400006F0B9BB6015002008B506F0A9FB431C07D0054B0C229B6802FB003010B1043020
:2051600008BD002008BD00BF2C01002010B507490B88834208DB064C80B222880244181A83
:2051800008802280012010BD002010BDAE120020B0120020014B1880704700BFAE1200200E
:2051A0000048704770050020014B1888704700BFAE120020034A044B10781B781844C0B294
:2051C000704700BF80150020B012002008B5FFF7F1FF014B184408BD7005002070B50D4D9E
:2051E0000D4C2A78238806461344802B0FDC0B4905F0E8FF2B781E44FFF7E8FF22880146CD
:20520000304605F0DFFF28782388184470BD002070BD00BF80150020AE120020700500203B
:2052200008B5FFF7C7FF024B1B88184480B208BDAE12002010B50146FFF7F2FF4318802BD9
:2052400010DC0138084B00B2002805DB1C5C1A180138545400B2F7E7044B01201A781144AA
:20526000197010BD002010BD700500208015002038B5094D094C1A220021094806F07CF8F1
:205280002946204606F046FB294604F10800BDE8384006F03FBB00BF38C42000202400204A
:2052A00030240020044A00231380044A1380044A1370FFF7DDBF00BFB0120020AE120020B1
:2052C0008015002038B50C460546FFF7EBFF802C28BF802422462946034805F073FF034BA1
:2052E00020461C8038BD00BF70050020AE12002010B50C461A22054905F064FF2046BDE87F
:2053000010401022024905F05DBF00BF302400202024002010B50C461A220146044805F03D
:2053200051FF2146BDE810401022024805F04ABF3024002020240020024B23F810100120C6
:20534000704700BF30240020014B33F8100070473024002008B5044B0D3803EBC00006F0BC
:20536000D9FA012008BD00BF20240020024B0D3803EBC000704700BF2024002001490248A3
:2053800006F0CBBA38C420002824002070B505460D480E4606F0B8F9044698B1012D08D1B0
:2053A000A3681BB9204606F0E8F9F5E73046984705E0002DF6D16368002BF3D09847002807
:2053C000F0D070BD70BD00BFF0050020054B10B51B689847044B5B689847BDE81040034B34
:2053E0005B681847F0C22000B4C32000D0C32000084808B5FEF7D6FF0748FFF7ADFD38B1C0
:20540000037A01465B0803720348FFF781FDF6E708BD00BF081B00203801002001460148A4
:2054200006F065BA38010020F8B531F0020307460E4615462FD10146174806F058FA0446F7
:2054400050B90346092239461348FFF7A1FD044608B306F07CFAA080FDF730FA237A206095
:205460002B44102BA8BF10232372022E204608BF0C3506F05AFAED01002814BF0A2219221B
:20548000ADB25543A388C2F1640101FB03556423B5FBF3F5A580F8BD3801002038B50546F4
:2054A0000420FFF751FF294604B20E4806F01FFA034658B9092229460A48FFF769FD02460E
:2054C00078B1C48006F043FA908038BD0A226243B0F906105A2000FB0122642192FBF1F20A
:2054E000DA8038BD3801002010B50748FFF734FD044640B121460448FFF700FE2146024836
:20550000FFF706FDF4E710BD3801002010B500210548FFF7E5FCBDE810400023034A4FF4DF
:20552000E1310348FEF734BF38010020F1532000081B0020F8B5FDF7C1F904460F4F0025FE
:205540000D2007EB0516FFF711FF314606F0E5F978B10720FFF7F8FE337B834201D0002020
:20556000F8BDB068201AB0F5206F8CBF00200120F8BD0135102DE3D1F1E700BFB406002017
:2055800070B5164E00240D20FFF7F0FE06EB041106F0C3F9114D611C10B910290C46F2D1A3
:2055A0004C1E05EB0111A1F110063CB120391022304605F007FE013C3146F4E70720FFF743
:2055C000C3FE2873FDF77AF9A8600D20FFF7CEFEBDE870400146014806F09CB9B406002007
:2055E00030B591B0054600F063F84FF6FF73984202D14FF0FF3052E040220021684605F0C5
:20560000BBFE284B1A782AB901221A70FFF760FB254B18707DB10720FFF796FE58B9224C95
:2056200023780BB90123237021780720FFF784FE237801332370FFF7A1FE6A46C1B21B489F
:2056400006F0FBF9FFF79AFE28B1FF238DF800308DF8013006E00E20FFF788FE01466846E7
:2056600006F058F90D20FFF781FE014602A806F051F9FFF7ABFD0E90FFF796FD0F906846FE
:2056800006F0C7FA04464DB1FFF7D4FD0028B0D0FFF786FD0146684606F004FB204611B012
:2056A00030BD00BF821500208115002049532000014B1888704700BF480200202DE9F04102
:2056C000012986B006460F46144640F3838003A906F032FB0A2203A904F1100005F072FD29
:2056E0009DF811300BB1B51C02E0B378F51CA37602AA01A903A806F0E8F99DF81380B8F167
:20570000000F23D0029B23B16A7815F8023B03EB0223B8F1020FA38309D13049204606F048
:20572000F9F86B78237015F8023B637014E0B8F1030F11D105F108021346611E13F8010D63
:20574000AB4201F8010FF9D1154605E02349204606F0E0F8A4F81C809DF81580B8F1000F8F
:205760002BD0019B53B16A7815F8023B03EB0223029A9BB2E3831AB9A38301E0A38BE38392
:20578000B8F1020F0AD1154904F1080006F0C2F86B78237215F8023B637215E0B8F1030F22
:2057A00012D105F108021346E11D13F8010D9D4201F8010FF9D1154606E0084904F1080055
:2057C00006F0A8F8A4F81E80A81B3B1A8742E363A56300DA002006B0BDE8F08138C42000E8
:2057E00070B505460C46102C07D92B68102208496868984750B9103CF5E734B12B682246F5
:2058000068680349BDE870401847204670BD00BF3BC720002DE9F04F064615468FB0069172
:205820004FF0000B069B1B78CBB1069C274617F8013B1BB1252B14D03C46F7E7069BA3422E
:205840000DD0069B0699C3EB04084246336870689847002840F01F832378C34423B9584681
:2058600034E3069BA342ECD16378002BF7D039460024084610F8013B0A462B2B11D006D867
:20588000202B11D0232B12D144F0080416E02D2B04D0302B0BD144F010040FE044F00104A2
:2058A0000CE044F0060409E044F0020406E0A3F13107082F11D84FF0000801E00146D8E79B
:2058C0000A4611F8013BA3F13000092813D80A2202FB0838A8F13008F2E72A2B09D12B687E
:2058E0000246002B05F10405B8BF44F00104984601E04FF0000813782E2B1AD15178531C79
:20590000A1F1300009280ED8194600270A780B46A2F13000092801F101010DD80A2303FB5D
:205920000727303FF2E72A2904D12F68931C043502E013464FF0FF371A786C2A09D15A78C6
:205940006C2A02D144F080040AE0013344F060040BE0682A09D15A78682A03D144F0200489
:20596000023302E0013344F040041A78642A3CD01FD8462A48D00DD8252A5AD003D8002A56
:205980003FF46DAF57E0412A4AD0452A53D144F4424450E0582A31D004D8472A4BD144F457
:2059A000A13448E0612A38D0632A44D144F4A06441E06E2A3AD007D8662A22D027D3672ACA
:2059C00028D0692A11D036E0732A2CD006D86F2A11D0702A2FD144F440742CE0752A07D04C
:2059E000782A28D144F4C85425E044F4245422E044F410641FE044F488541CE044F4B24418
:205A000019E044F4007416E044F4844413E044F4024410E044F481340DE044F4C1340AE099
:205A200044F4E13407E044F4806404E044F4E06401E044F4C0640133069304F4E063B3F5C9
:205A4000806F00F08F8113D8B3F5807F27D0B3F5407F7FF4E7AEAE4B14F4804FAD4A18BFC1
:205A60001A460DF133032868002104351F46B5E1B3F5C06F08D0B3F5E06F00F02282B3F5CB
:205A8000A06F7FF4CFAEF2E133680122A24970689847002840F0FF810BF1010BC2E6002F1D
:205AA000ACBF24F01004012714F40053079304F0E0032ED0402B12D005D8ABB1202B21D19E
:205AC00095F900200DE0602B0ED0802B1AD1073525F0070303F10805D3E9002307E0B5F95C
:205AE0000020D317043502E02A680435D317002A73F1000108DA524263EB4303CDE900235A
:205B0000012304E000220023CDE900230023059329E0402B13D004D8BBB1202B1DD12A782A
:205B20000EE0602B11D0802B17D1073525F0070303F10805D3E90023CDE900230BE02A88C7
:205B40000023CDE90023043505E02B6800221946CDE900120435079BD9E7002305930022D7
:205B60000023CDE9002304F4C053B3F5805F0CD0B3F5C05F33D0B3F5006F4FD1DDE90023D1
:205B80000DF13609CDE9022304E0DDE900230DF1360915E0DDE9022313433AD0DDE90201DA
:205BA0000A22002305F04CF9DDE90201303209F8012D00230A2205F043F9CDE90201E9E7F9
:205BC00052EA030125D002F00701303109F8011DD10841EA4371D8080A460346F0E74C4B77
:205BE00014F4804F0DF136094A4918BF1946DDE9002352EA03000CD002F00F00085C4FEA26
:205C0000131E09F8010D100940EA037002467346EFE70DF13603C9EB030302E00DF13609A7
:205C200000230293029B41F60802BB4238BFFF1A41F2080302EA040228BF00279A4202D1D4
:205C4000002F08BF012741F60801029B8A4203EB07000DD1DDE90023134309D02F4A3049A0
:205C600014F4804F4FF0020A0CBF0B46134602E04FF0000A5346079A9AB1059A52B904F03F
:205C80000602022A0AD0062A264A04BF4FF0010A134606E04FF0010A234B02E0234B4FF0C3
:205CA000010A0AEB000290458CBFC2EB08084FF0000814F0010200920DD1E10602D54744FE
:205CC000904608E0414630460593FFF789FD059B002840F0E080BAF1000F07D034685246D8
:205CE00019467068A047002840F0D580029B03EB0B04BB46BBF1100F33681BD910220C495D
:205D000070689847002840F0C680ABF1100BF1E74BC720005CC720007EC7200070C720006E
:205D20006DC7200075C7200073C720001DC6200080C72000BBF1000F06D05A466549706838
:205D40009847002840F0A7803368029A4946706854449847002840F09E80009B3C44002B14
:205D600039D032E0D5F800900435B9F1000F0AD0CA469AF800300AF101020BB19246F8E79C
:205D8000C9EB0A0A03E0DFF850914FF0060A002F02DBBA4528BFBA46D0458CBFCAEB08083A
:205DA0004FF0000814F0010705D141463046FFF717FD00286FD133685246494670689847D2
:205DC000002868D10AEB0B042FB141463046FFF707FD00285FD108EB040B23E550EA010EDC
:205DE0000ED000F00F0E12F80EE04FEA111C03F801ED4FEA101E4EEA017E70466146EDE722
:205E0000FF1A02BF3022012703F8012C07F1030708BF03F1FF337822B84503F8012C4FF019
:205E2000300203F8022C88BFC7EB08084FF0230298BF4FF0000814F00104A3F1030903F858
:205E4000032C04D141463046FFF7CAFC18BB33683A46494670689847E8B95F4424B14146B1
:205E60003046FFF7BDFCB0B908EB070BDAE4B8F1010F2B688CBF08F1FF384FF0000814F0BF
:205E8000010405F104058DF8203008D141463046FFF7A6FC10B14FF0FF3017E0C3443368F3
:205EA000012208A9706898470028F4D108F101072CB141463046FFF793FC0028EBD1BB4427
:205EC000B0E42B680435C3F800B0ABE40FB0BDE8F08F00BF80C7200077C720000FB407B582
:205EE00004AA52F8041B04480192FFF793FC03B05DF804EB04B07047480100201FB514462E
:205F0000074A8DE80300029221461A4602A8CDF80CD0FFF77FFC009B00221A7004B010BDD9
:205F2000AFBD200010B501210C20FFF705FABDE81040014B5B681847A8C32000014B9B6890
:205F4000184700BFA8C32000014B1B6A184700BFF0C22000014B5B6A184700BFF0C22000D6
:205F600008B5054B1B68984730EA200028BF1520C0F17D0008BD00BFA8C3200007B5FFF76D
:205F800013F9032823D0FFF7D9FF00281FDB0E20FFF7ECF90F4905F0C0FC38B10D20FFF7C9
:205FA000E5F90C4905F0B9FC88B904E0FFF7E6F90028F3D10BE0FFF7BDFA40B9FFF7E0FABD
:205FC000054B9B68019303B05DF804EB184703B05DF804FB4A240020D0C3200070B590F88F
:205FE0002D400122012CD4BF03340524054602FA04F4FEF76DFE013CB0FBF4F12B4601FB18
:206000001401034A05F10C00BDE87040FEF7C0B9996020002DE9F0470D4614468B6880468D
:2060200093E8C000506B92F82C9005F077FB6868FEF7D2FEA968144805F0C6FB294613483B
:2060400005F0C2FB606B05F05FFB40B1002384F82C3084F82D302046FFF7C0FF0BE004F1B4
:206060000C00FEF7BBF92146094805F057FB2146084805F0A9FB4B46424639463046BDE869
:20608000F04705F084BC00BF500100205C01002014080020680100202DE9FF470446002854
:2060A00000F0CC80406B05F02FFB0546002800F0C5804068FEF7A6FE62490D20FFF74AF9E0
:2060C00001210820FFF738F9FFF72CFF0028C0F2B380FFF765F85C4E90F802907768FFF735
:2060E0005FF88046FFF79CF801464046B847FFF745F9D6F818A00746D047002853D15FB1B3
:20610000B3680193FFF78CF8019B984748B102280CBF0120042047E0F3699847002842D10B
:20612000EEE70FB100203FE0FCF700FC6FF00C08F769C0EB0808B84710B1D04750B907E047
:20614000FCF7F4FB18EB000FF7D5FCF779FDF2E7B84730B1FCF7EAFB6FF01408C0EB08084F
:206160000BE0736998470028F4D00BE0FCF7DEFB18EB000F04D5FCF763FDB8470028F5D0AC
:20618000B84708B902200FE03369032103A89847032808D19DF80E00B0EB090018BF0120A1
:2061A0000028BFD000E00120AA68002A46D003283DD8DFE800F0021B0B4394F82C3000206B
:2061C000013384F82D0084F82C3030E0002384F82D3094F82C300133DBB284F82C30127AF1
:2061E0009A421DD822462946022022E094F82D300133DBB2052B83BF002384F82D3094F82F
:206200002C3084F82D3084BF013384F82C3094F82C10137A994203D322462946012008E014
:206220002046FFF7DBFE686805F02AFB06E022462946FFF7EFFE01E00520B5E704B0BDE8A4
:20624000F08700BF4A240020F0C220002DE9F04107460E208846FFF789F8454B05461A7834
:20626000444C22B901221A70FEF732FD2070237813B9404B01221A70217807204B1C2370F9
:20628000FFF75AF801210C20FFF756F83A4805F03BFA044640B12946201D05F03EFBD8B9D2
:2062A000204605F06AFAF4E7344805F079FA044640B32946201D05F02DFB002304F1300012
:2062C000606384F82C3084F82D30236305F019FA2146294805F035FA606B05F047FA072890
:2062E00010DC274805F05CFA054698B9606B05F03DFA38B92146204805F010FA21461F48D8
:2063000005F062FA41463846BDE8F0410123042205F03DBB1B4805F043FAA86008B3FEF7CD
:2063200039FD6860C8B10620AE68FFF70DF8C0B208B1307201E00823337286E880012946D3
:20634000606B05F0FEF9606B05F0DEF985420DD12046BDE8F041FFF741BEA968094805F0C2
:2063600033FA2946064805F02FFABFE7BDE8F0819415002083150020140800206801002013
:206380005C0100205001002008B5054805F0F8F9044805F0F5F9BDE80840034805F0F0B91A
:2063A0005C010020500100206801002010B5074A13880344B3F5A06F9FBF054913800C78F4
:2063C00000199ABF08700120002010BD9C1C0020A7150020B0F5A06F9DBF024B18800120FB
:2063E000002070479C1C002005289ABF024B33F810000020704700BFB21200200C220249ED
:20640000024804F0DFBE00BFBE120020B2120020044A00231380044A1370044A1370FFF772
:20642000EDBF00BF9C1C0020A7150020A915002010B5064C0C220021204604F09DFF0023E0
:2064400023814FF6FF73238010BD00BFBE1200202DE9FF47154D6C4605F108030FCB95F8EA
:2064600007808DE80F0000F0D9FE114805F04CF90646DFF84090DFF840A08EB1776857B1E7
:20648000B9F800309AF800202C3B38329BB22A4441462046B847304605F06FF90646ECE7FF
:2064A000FFF7B6FF04B0BDE8F08700BFAC1C0020E80800209C1C0020A7150020F8B5204BDE
:2064C000204E1B7906F11805F371337E06F10804FF2B08D194E80F0085E80F0029462046AF
:2064E00000F0A4FB1BE02746AE46174A3B4603CB7345106051601F4602F10802F6D195E882
:206500000F0084E80F00104B104C03F11005224618685968083303C2AB421446F7D100F089
:206520007DFE0B4B81221B782833F418F25400236370638005F0B4FDC0436080F8BD00BFD1
:20654000301B0020AC1C0020CA120020C41C0020A715002038B504460B480D4605F0D4F872
:2065600050B10379A34204D143799D4206D0FF2B04D005F002F9F3E7012038BD8368002B7F
:20658000FAD09847002038BDEC0800200146014805F0D7B8EC0800202DE9F047414B0746DB
:2065A0001B780E463A2B904609D13F4B1A783F4BD356002B03DBBDE8F047FFF729BF3C4BC6
:2065C0003C4C1B6B98473C4A2546914604F1100E234603CB7345106051601C4602F1080284
:2065E000F6D1DFF8E8A0354CBAF800202146303292B2B2F5A06F28BF4FF4A062AAF8002071
:2066000004F13000303A04F053FE602323700023637063803A23A371294B1B79E37123893E
:2066200073B9638963B9A38953B9E38943B9238A33B9638A23B9A38A13B9E38A002BBAD009
:20664000204B0FCB85E80F0099F80030FF2B03D1042FB0D1022EAED1134D1749194800F046
:20666000E5FA95F80090404609F12803E218E754567005F01BFDBAF80010134B283943F8AF
:20668000090089B2A3F12C0005F0C1FB2B7828331C440023638005F003FDC0436080BDE864
:2066A000F08700BFA9150020A7150020D41C0020E0C32000C41C0020CA120020AC1C002033
:2066C000301B0020B41C0020D81C00209C1C00202DE9F047824689469046184C6022227041
:2066E0003A22A271164A9DB21279291D002704F11806204689B2E2716770678005F087FB48
:2067000010225146304604F05DFD314604F1080000F08CFA0B4B2C351B7828331E1903F82B
:20672000049086F80180778005F0BAFCC043064B70801D80BDE8F04700F08CBBAC1C002048
:20674000301B0020A71500209C1C002008B50448FFF71CFFBDE808400248FFF717BF00BF3E
:2067600074010020800100201FB50C46074B01469B696846984710222146684604F0F0FC6C
:20678000B0FA80F0400904B010BD00BFE0C3200070B506460A480D4604F0B6FF044668B171
:2067A0001DB9204604F0E9FFF8E7A3689E42F8D129462046FFF7D8FF0028F2D0204670BD0F
:2067C000740A002030B505460C460E4B85B05B696846984721462846FFF7DAFF694604461D
:2067E0002846FFF7D5FF11232CB1844205D0013B03D06469F8E7204602E0031B5842584161
:2068000005B030BDE0C320002DE9F843904606460F469946FFF7BCFF414604463046FFF77E
:20682000B7FF0546B8F1000F0CD058B902464FF0FF3341463046FFF7E7FF054610B90020EC
:20684000BDE8F8837CB9164804F0AAFF04460028F5D0002343610146124804F072FF124A88
:206860001368013313600822B918A660C4F8049004F10C0004F0A6FC39463046FFF7A2FF82
:2068800050B1D4F81480394665613046FFF79AFF18B9C4F8148000E065612046BDE8F88300
:2068A0008C010020740A0020F008002008B5054B002205481A6004F063FFBDE808400348F1
:2068C00004F01FBFF00800208C010020740A0020F8B50546154804F017FF0446144E24B3A1
:2068E000204604F04AFF63680746ABB90F4804F00BFF28B143699C4202D004F03EFFF8E7DF
:2069000021460A4804F00AFF21460A4804F05CFF3368013B336006E05A1C04D0AB428CBFE7
:206920005B1B002363603C46D9E7F8BD740A0020F00800208C01002070B50C4804F0E4FE52
:2069400004460B4D84B1204604F017FF06462146064804F0E3FE2146064804F035FF2B68AA
:206960003446013B2B60EDE770BD00BF740A0020F00800208C01002000487047DA120020A8
:206980002DE9F341154D009104460E4690461F460195034620220321114805F0B3FA012878
:2069A0002B4616D12A6804F11001107020462A68023250F8044B884242F8044BF9D1186807
:2069C000089B86744361099B80F813800777836100E0002002B0BDE8F08100BF7C0A002038
:2069E0002C1C002070B506460C4B0D4C03F1600523602068A8420FD203781BB923682033B2
:206A00002360F6E7827C3146D208023004F0A8FB0028F3D1012070BD002070BD2C1C00200F
:206A20007C0A002013B5084C802300930194034620220321054805F065FA08B9206800E050
:206A4000002002B010BD00BF800A0020481B002030B548F2FE040C4B0C4A03F16001136015
:206A600013688B420CD21D783DB1451C02D09D7C854202D15D88A54203D020331360EFE74C
:206A80000023184630BD00BF481B0020800A002037B5104D802300930446034601951222C0
:206AA00005210D4805F02EFA01282B460ED12A6804F11001107020462A68023250F8044BEA
:206AC000884242F8044BF9D1186800E0002003B030BD00BF780A0020CC1B0020F7B5214CF8
:206AE00080230093054603460E4617460194202203211D4805F006FA012830D12A462368A1
:206B000005F1100118702368023352F8040B8A4243F8040BF9D12068C77416B901230375BF
:206B200005E0002303753146183004F08FFD23680E480121997402234370FF2200230270F8
:206B400043808380C38003818372C17202736B7B4373EB89C381FFF79BFF206800E000209F
:206B600003B0F0BD800A0020481B0020EA12002013B5084C802300930194034612220521E2
:206B8000054805F0BFF908B9206800E0002002B010BD00BF780A0020CC1B002038B5054693
:206BA000C8B10D48022200244270FF230122C27244808480C4800481847203730370EB7BBE
:206BC00043732B8AC381FFF7D3FF044A106008B105F0C0F92C7038BDEA120020780A0020CA
:206BE00070B50F4C0F4B2646236003F160052068A8420ED2037843B1037D33B91830FDF70A
:206C000047FA10B13068FFF7C9FF236820332360EDE700F01FFFBDE87040034804F027BD61
:206C2000800A0020481B00208C1C00202DE9F84F48F2FE030A8805469A420F4623D00A7844
:206C4000FF2A20D01C490024A04689469B461B4A0A6002F1600AD9F80060564517D2337870
:206C60006BB1B37C012B0AD173885B4507D0B11C384605F089F980459CBF344680462036D8
:206C8000C9F80060E7E70120FFF7E2FE04464CB92C806C80AC80EC802C816C81AC81EC815B
:206CA000BDE8F88FA31C123453F8042BA34245F8042BF9D1BDE8F88F800A0020481B0020B5
:206CC00070B5094EB0684508FEF702F80446FDF7FFFF2402B268A4B22044B0FBF2F302FB21
:206CE0001300284470BD00BF301B002073B53D4B1A88B2B95A88A2B99A8892B9DA8882B9BA
:206D00001A8972B95A8962B99A8952B9DA8942B9FD2119805A809A80DA801A815A819A8185
:206D2000DA81314C00F09EF900F008FE602200212E4804F021FB0021F822204604F01CFB29
:206D40002B4B20221A702B4B18221A704FF4A06323604EF6602340262671A360FFF7B0FF82
:206D60004FF47A73236148F2FE03314640F2FF260025E0602575204C2A46238065802B4682
:206D8000A580E580204601950095FFF7F9FD20461A4905F0E3F8294601222046FFF79EFEC9
:206DA0004FF480732046E38126806580A580E58025816581A581FFF76BFE4FF40073204691
:206DC00026806580A580E58025816581A581E381FFF75EFE0A480C2102B0BDE8704004F0BC
:206DE0003DBC00BFDA120020301B00202C1C0020291C0020281C0020EA120020A41C002037
:206E00008C1C002013B5044601460120FEF7BEFA38B92046054BDB68019302B0BDE810405E
:206E20001847FFF7F5FA002002B010BDD0C32000002108B50846FEF7A9FA024618B90221BC
:206E40000348FDF7FBFBBDE80840FFF7E1BA00BF9801002030B5344B89B01B88002B60D06C
:206E6000B3F5A06F3CD8314C238B6BB9638B5BB9A38B4BB9E38B3BB9238C2BB9638C1BB90C
:206E8000A38C0BB9E38C5BB3294D6B6B984738B3237EFF2B21D02748FFF7C4FD10B100F0D9
:206EA0004BF83EE02B6C04A89847E0B92148FFF799FD90BB1F4805F007F9044618B900F00F
:206EC000B1FD68B12BE005F0FDF840BB2046EB6C9847204605F0FAF802E00020FFF792FF89
:206EE000FFF796FA1DE004AC204605F06CF8054678B9214602A805F03CF806230195009398
:206F00002A46012302A9204600F0BAF805460028E6D0284600F0D4F8E0E7064CE4E70446A9
:206F2000E2E709B030BD00BF9C1C0020AC1C0020E0C32000C41C002010B5064C238843B1EA
:206F4000012000F09BF923881BB1BDE81040FFF781BF10BD9C1C002038B50446238810460D
:206F60003BB140F23F32934215D000232380032038BDFDF7D9FA214B40211870204804F072
:206F80006DFB00F02FF91F4B5B68984740F23F332380012038BD022902D1FFF7CDFFF5E76C
:206FA0000BD80129F2D10028F0D0174B1860052000F064F9FFF74EFFE8E787290CD1134BD0
:206FC000002103F580729D692033A84208BF23F8101C9342F7D1D9E78829D7D1084B984272
:206FE00002D104F04DFBD1E7094B9842CED104F047FB0028CAD0FFF7F3FDDBE769240020B0
:20700000840A0020E0C32000B0210020C02100208C1C0020074B1B680BB1283302E0064B26
:207020001B681833186820B15A68044B1978FDF705BB7047B8210020B0210020692400208D
:2070400010B5044640B1054B9B6C98472146BDE810400348FEF752B810BD00BFE0C3200005
:20706000A801002008B5FEF751FABDE8084002490248FDF735BF00BF41702000A801002087
:2070800070B504461E469DF81020059B0A48FDF77FFF054670B120462B4604F1100250F862
:2070A000041B904243F8041BF9D1044B6E7428469B6C9847284670BDA8010020E0C320000F
:2070C00001460148FEF740B8A80100200148FDF743BF00BFA801002001460148FDF718BF48
:2070E000A80100200146014804F001BCA801002073B5124D0646284604F08DFE104B202260
:207100001C7805F10801001B80B2ADF80600BDF80600304480B204F0A7FFBDF8062004F119
:20712000280192B2294404F09FFF10B140BA80B201E04FF6FF7002B070BD00BFAC1C0020DB
:20714000A7150020F8B5064645781B4FED0008350221481CA8422ADA7218547802340C44B8
:20716000A5421ADB735C012B1FD002D3632B02D006E081B2EDE73046BB6B9847A8B918E053
:2071800003F0C003802B08D0C02B02D0402B0CD10FE00A4B1B7EFF2B0BD0084B0221D21A6D
:2071A0000420FFF7F9F90220F8BDA1B2D1E70020F8BD0120F8BD00BFE0C32000AC1C0020CC
:2071C00008B5074AD379012B06D8002211460320FFF7E2F9002008BD013BD371012008BD93
:2071E000AC1C002008B5FFF723F9FFF77FFDFFF7ADFA00F09DFB074B4FF480621A8000230D
:20720000194605481A182033B3F5807F1182F9D108BD00BF1A140020C021002070B5134EE0
:20722000337813B3124D03F127012A88914203DBBDE87040FFF7ECB80E490F4C0978283A7B
:20724000A17103F128012144D21A04F1280004F02FF830784042FFF7A9F829882046BDE8F9
:207260007040283989B204F0D2BD70BDA71500209C1C0020A9150020AC1C002004282DE956
:20728000F74F00F0B1819A499A4C9B4A05280C6014608B4613D1994B1B681B8A002B00F0EF
:2072A000EA810C3C1460964A002313809548964A03601380954B08220C601A7092E114F8DF
:2072C0003C3C3C3C03F0F003602B40F0D481204604F0A1FD8C4D2B888342C0F0CC8120461C
:2072E00004F099FD8A4A283081B2002320462980137004F0BDFD002800F0BD81227A854B80
:2073000004F12809C9EB0000FF2A1870984600F0B28101230DF107022988204604F081FD2D
:2073200050B19DF807303BB9FFF70CFF012800F0A281022800F09B817748FFF773FB0028CE
:2073400063D17548FFF714FC00285ED1227E734BFF2A34D048F2FE00198B81422FD0198914
:2073600081422CD071B9598961B9998951B9D98941B91B8A33B9618A684B19B9998A09B9BA
:20738000DB8AE3B1218B654B79B9598B69B9998B59B9D98B49B9198C39B9598C29B9998C41
:2073A00019B9DB8CB3F5807F09D02B88B3F5A06F40F269814FF4A0620021022095E048F257
:2073C000FE032189994240F05681218B534B81B9598B71B9998B61B9D98B51B9198C41B943
:2073E000598C31B9998C21B9DB8CB3F5807F00F04281FF2A00F03F814748FFF7F3FA02466B
:20740000002840F038810221DAE0454F00233B700DF1070201232988404804F002FDBA46C5
:207420000646002E5ED09DF80730062B5AD0112B09D1FFF7F3FE98F800304B44DB88002BA3
:2074400000F08A8081E03A2B44D02C2B00F0138103D843B12B2B23D044E03B2B00F00B815F
:207460003C2B06D03EE03B78DA073BD443F001030AE03B78980705D5590633D443F04003E5
:207480003B7003E043F002038AF800303046FFF759FE012800F0EF80022800F0E8800DE0BA
:2074A0003B785A071ED443F004038AF80030F37823B11C4BDB6B9847A0B176E72B88311B62
:2074C000591A304600230DF1070289B204F0A9FC0646A6E704F0E4FD4FF6FF73984240F056
:2074E000CA8021E0321B01210420FFF755F8BEE0B4210020E81C0020A01C0020B0210020E7
:20750000BC210020B82100209C1C0020AC210020A9150020A7150020C41C0020AC1C00200E
:20752000A8150020E0C3200098F800302833E2185178E05CFFF70EF8012801D1FEF768FF3E
:207540002B88002B00F0978091E004F0ACFD4FF6FF73984240F08F8098F800309944B9F81A
:207560000230002B00F087804A4F4B4E376007F5807704E00A8A32B933682033336031687E
:20758000B942F7D31AE098F800302833E01840889042F1D14A8A12B1E35A9342ECD10B68E4
:2075A0002BB94B681BB98B680BB9CB6853B110223A4803F0D5FD0028DED103E000220421F8
:2075C000012092E72B883649303B2B8000230B6034490220344A08703449CBF800200A60DC
:2075E000334A1380FFF716FD314E3188002942D0304C01F13002304B083189B220461A8070
:2076000004F005FC60232370234B2C4F1B6839781A7D2831E2711122A271328808190832A4
:20762000002552BA8280C5801A8A65700A535A8A04F1180642800FCB86E80F00314604F180
:207640000800FFF7F3FA1E4B04F13C021A603E7804F029FDC0433B78283626442833F08010
:207660002344DA8812B94FF6FF72DA8065800D4B00221A700AE0FEF7CBFE124A00231370D3
:20768000084A137002E0FFF79BFDF0E703B0BDE8F08F00BFC0210020B0210020B41C002056
:2076A000B8210020AC210020DC1C0020A01C0020BC210020AC1C00209C1C0020A715002057
:2076C000B4210020A81500202DE9F04F8E4C85B0E379FF2B40F013818C4E04F12C03327882
:2076E0009946D1180979FF2900F00981224492F82920002A40F00381854B25469846854F9A
:207700001A60DFF824A214223A7032783B7802F12C00BAF800E0C11871455CDA13442C33E9
:20772000E2185278002A00F0EA80E35C012B49D12B892944C8F800107BB96B896BB9AB890B
:207740005BB9EB894BB92B8A3BB96B8A2BB9AB8A1BB9E38A002B00F0D28008220DEB020014
:20776000023103F02FFD6C4804F02DFCDFF8BCB10246CBF8000040B905230190009302A9A7
:2077800002236548FFF77CFC1CE0FFF799FC0146002800F0B480D8F800000822023003F070
:2077A000DFFC48B102A9584604F023FC0028C0F2A680DBF8003003E0DBF800305A7C0AB917
:2077C00002225A743A78337813444B445B7802EBC3023A7099E720440430FFF723F94F4B81
:2077E000494D18609846002800F089802B8973B96B8963B9AB8953B9EB8943B92B8A33B93B
:207800006B8A23B9AB8A13B9EB8A002B77D0424D2846FFF707F92F46002870D140F2FF228B
:20782000218B05F1100E914219D16A8ABAB9AA8AAAB9EA8A9AB92A8B8AB96A8BB2F5807F73
:207840000DD12B7FFF2B0AD195E80F008EE80F0033784B4404330FCB85E80F0011E0304D55
:207860002846FFF7DFF8D8F80030834247D197E80F0085E80F0033784B4404330FCB87E82C
:207880000F00FEF7C5FD0025602323706570658028211D4804F0BBFA3A23A371FF23E371EF
:2078A0003378882003F12802A118A0542C334D70D8F80010E018E022E254023110220430E5
:2078C00003F080FC337802224033E718E25415497A70B81C082203F075FC0622294607F189
:2078E0000A0003F049FD337828331C44658004F0D7FBC04360805020FEF76CFD01E0FEF7AD
:2079000087FD05B0BDE8F08FAC1C0020A7150020980A0020AA150020B41C00209C0A0020EF
:20792000C41C0020A41C00209C1C0020940A00200148FEF72BBE00BFB801002008B5044809
:2079400003F01EFFBDE80840024803F0DABE00BFC4010020E00A002038B505460A4803F02A
:20796000D3FE044678B1AC4209D12146064803F0D5FE2146BDE83840044803F025BF204673
:2079800003F0FBFEEDE738BDE00A0020C401002038B5054608B9002038BD094803F0B4FE3F
:2079A00004460028F7D010222946201D03F0D8FB18B1204603F0E1FEF2E7204638BD00BFF6
:2079C000E00A0020F8B50E46054608B90020F8BDFFF7DEFF044648B9104803F0E1FE044629
:2079E0000028F3D001460E4803F0B8FE2B46251D03F110072A4618685968083303C2BB42EA
:207A00001546F7D136B1314604F1140003F01EFE002300E0012323772046F8BDC40100200C
:207A2000E00A002038B50A4803F06EFE044600255CB1251D284604F0C6FA08B1437C23B96A
:207A4000204603F09AFE0446F2E7284638BD00BFE00A002010B50A4803F056FE044670B11D
:207A6000237F43B904F11400FCF712FB18B12046FFF772FFEFE7204603F07FFEEEE710BD7B
:207A8000E00A00200C4AB82303FB00220023F0B553821E461A4640F24C550849CC18A77803
:207AA00027B15F5C874204BFA67001327133AB42F4D11046F0BD00BF040B0020B915002029
:207AC000044B01221A70FD2100225A709970DA70704700BFAF15002010B5134C0220A17993
:207AE000FDF72AFCA379112B02D1218D638D07E0062B09D10D4B1B7828331A19195B5388E9
:207B00009942A8BF194609E03A2B06D1074B28341B78195B49BA89B200E000210120BDE8E5
:207B20001040FDF709BC00BFAC1C0020A715002038B513780546087A83F0020398421DD134
:207B4000487A5378984219D1887A9378984215D1C87AD378984211D1087B137998420DD1F7
:207B6000487B5379984209D1887B9379984205D1C87BD379984201D103201CE00B890F4CBA
:207B800083B94B89B3F57F4F0CD18B89FE2B09D102220E31206803F015FB2368022002339B
:207BA000236008E008221144206803F00BFB2368012008332360A840C0B238BDF00A002087
:207BC00010B5074C01462378012B01D0002010BD0822A01C03F0C4FA0028F7D1204610BD07
:207BE000AF15002008B501460E20FDF7B3FB044B00219B6803489847BDE80840FBF720B879
:207C0000B4C32000F1832000F8B5154A154D164C2B7817680E46154922680144F81803F0C3
:207C2000D1FA23682878184480B2FDF7B3FAFDF7B1F8044608B90020F8BD3046FFF7D2FF65
:207C40002046FDF7DFF82046FDF7C6F8084B1B68012BF0D0043B012BEDD90120F8BD00BF53
:207C6000F40A0020051B0020F80A0020AC1C0020FC0A00202DE9F04F944F954D002389B000
:207C80003B702B700446FDF70DFBFDF79FFA914B914E1B683060019703950BB1FFF71CFF00
:207CA0000CB98E4900E0214606A803F033FE0420FEF79AFB01460620FDF73EFB06A90E20EA
:207CC000FDF748FB864B9B699847864B0028186040F37683039B31681B78834F0233CA1869
:207CE0003A6008442632824280F06A830022CA547E48FFF765FF20B13B68802401333B60DE
:207D000005E07B48FFF75CFF0028F5D10446DFF8E89199F8011099F800000B0943EA00135B
:207D2000DBB29A0842EA83135BB211F00F0FDDB200F00F000CD1B9F802204AB910B911F01B
:207D4000F00F23D03B6803F8015B3B6070251EE088B911F0F00F0ED1386823F03F030B43A6
:207D600000F8013B0222634903F02CFA3B68682503333B600BE004225F49386803F022FA7D
:207D80003B6803F8045B3B60602500E0782599F80630112B06D02BB13C2B03D0A3F12B0299
:207DA000012A01D845F0040569075CBF3A6802F8013B99F8073058BF3A60402B06D0FF2B3A
:207DC00007D0012B08D145F0010509E045F0020506E045F0030503E03A6802F8013B3A60EF
:207DE000B9F80820444B82B95A8972B99A8962B9DA8952B91A8A42B95A8A32B99A8A22B9B9
:207E0000DB8A13B944F0400015E03948FFF7D8FE3A4B186088B1039B31681B78407802338E
:207E2000CA5C42EA0012CA540420354A3049FFF77FFE60F03F00C4B21BE048F2FE03B9F845
:207E400008202D499A420CD14B8B53B98B8B43B9CB8B33B92A4A08310420FFF769FE204304
:207E6000E9E710222249386803F0ACF93B6810333B6099F81830DFF88080FF2B7ED198F823
:207E8000193044F0080A022B5FFA8AFA3AD1B8F81A20BABBB8F81C20A2BBB8F81E208ABB63
:207EA000B8F8202072BBB8F822205ABBB8F8242042BB98F826202ABB98F827203B6844F044
:207EC0000B00C4B203F8012B90E000BFAE150020051B0020E40A0020F40A002038C4200060
:207EE000B4C32000000B0020F00A0020C41C0020B41C0020AE1C0020AC1C0020E80A0020D2
:207F0000A41C0020B9F81A2099496ABB8A8B5ABBCA8B9AB90A8C8AB94A8C7AB991F824200E
:207F200062B944F00A00C4B23868032200F8013B253103F047F93B68043357E0B9F81E20F0
:207F40008B498AB90A8C7AB991F8222062B944F00900C4B23868052200F8013B233103F066
:207F600031F93B68063341E010228249386803F029F93B68544610333B6038E008F11800E4
:207F8000FFF71EFE7C4B0146186088B1039B30681B784A78023310F803E044F004044EEAF1
:207FA0000202C254E4B206AA08F11801002011E048F2FE03B8F818209A4210D1B8F81A3064
:207FC0006BB9B8F81C3053B9B8F81E303BB906AA08F11801FFF7ACFD2043C4B207E0102230
:207FE0006449386803F0EEF83B6810333B60019A282313703B68DFF88C8102935F4B4FF06C
:20800000000B0493049BDFF87CA11F78112F40F0BD80DFF85CE10BF1280C3CF80E10DAF87F
:2080200000300A0A42EA01224FF2B00192B222F00F091FFA89F9581C8945CAF800000CEBB7
:208040000E07DFF8448123D1B7F802B04FEA1B2141EA0B2121F00F0189B2494518D10299E0
:208060004748F3220A700068D8F80020991C0244914280F0A5813CF80E20CAF80010100AD8
:208080007A88120A02EB001202F5AA625A7053E07988DFF8F490090289B2B1F5704F38493B
:2080A00018D1029A4FF0F10E82F800E0D9F800E00A6804337244934280F0828102223946A8
:2080C00003F080F82F497A880B68120A9A7003330B6031E002F47F42B2F5704F17D10298D1
:2080E000F2220270D9F800900A68181D4A44904280F066813CF80E20120A5A70022298181F
:20810000B91803F05FF81F4A1368033313E0029A4FF0F00E82F800E0D9F800E00A680533A9
:208120007244934280F04C810422394603F04AF8144A136804331360DFF84890104BD9F83F
:208140000000D8F800101B68821C0B449A4280F037810222B91D03F035F8D9F80030019A15
:208160000233C9F80030019B1B78083313707AE0AC1C0020C41C0020E80A0020B21C0020AA
:20818000000B0020F00A0020F40A0020002F5ED18D4B7A1C0BF1280A8B4A534493F80190FA
:2081A00012F80A2008BF03274FEAC909112A09F10809049312D08AB13C2A0FD02B3A012AC0
:2081C0000CD98249D8F80020086881490132096801448A4280F0F480C8F800207B4AD8F8B7
:2081E0000000D2F800E07A4A00EB090112687244914280F0E58019464A46059302F0E2FFEA
:20820000D8F80010019B5FFA89F0821E4A701A78494402441A706C4BCB4413F80A20C8F80C
:208220000010112A059B08D03AB13C2A05D02B3A012A8CBF0022012200E001227F0067F05C
:208240001F0702983A4302706BB10291DAE63C2F02D14FF0FF379BE72B2F00F0AF802C2FF7
:2082600001D1022794E7DFF87C91DFF860A199F80030DAF8002006A9D55413445C70554B7E
:208280000E201B68544D9B1A89F80030FDF762F8019B4F491B782A8899F800800C68D21AEE
:2082A00002EB0801A142574672DDC8EB0408A8F1040828F00708053CC8EB0202121B22EA3D
:2082C000E27224F0070532B102F1FF3999FBF5F909F1030901E04FF00209FCF755FD81455E
:2082E0006EDAB8F1000F6BDB3C4B00221A603C4B3168B3F80090081D09F101021A80039B60
:208300001A7802F0D5FF039B039A1B7806A9043313703268304E82F8039033881B0A63F076
:208320003F031370338853704FEA19239370019BDFF8B8901878C9F80080FFF765FCB046A9
:2083400000283DD0274B05221A70204B1A6833881B0A63F01F03137033885370224B1E787F
:20836000D9F800301E44B8F80030B6B29E4223D29B1B9C42B8BF2B463A68F108117130466E
:2083800006A9C9F80030FFF73FFC0028E8D117E0DAF800000C494044194402F013FF2B8875
:2083A00099F800001844104B1B78C01A80B2FCF7F1FE06A8FFF716FC012002E00127E7E646
:2083C000002009B0BDE8F08FAC1C0020F40A0020000B0020F00A00209C1C0020FC0A002057
:2083E0001C140020051B0020AE150020F80A002070B5124B0C461B68154613B19B68084621
:2084000098470F4B0E201C60FCF7B0FF0D49064603F083FA80B92A4621463046FDF704F84F
:20842000094B214630462A465B6C984729462046BDE8704003F017BE70BD00BFE40A002009
:20844000FC0A002038C42000E0C32000124AF8B505460023712000FB0324A678B6B961708F
:20846000FCF7A2FE26460D4F0D4A3B7806F8035BC01A1568A0701D44FCF796FE3A782946CB
:20848000821A304602F09EFEA078F8BD01330C2BE1D14FF0FF30F8BDB9150020051B002001
:2084A000F40A00202DE9F04115090F2D06461F4602F00F0403D00F2C32D045B103E00F2C23
:2084C0002CD1102425462A46304602F07BFE2A190F2AA04605DCC2F110020021701902F00B
:2084E0004BFFA4B1124FC8F1100022463968304402F068FE022C05D10A2D9FBFFF23F372BE
:20850000FE2333733A6822443A60BDE8F08165B139463046BDE8F04103F020BD1025D2E73D
:208520001024002DCFD1A046DCE7BDE8F08100BFF00A00202DE9F047074688461546002AB5
:208540004CD0414E0024B046338ABB4216D1738AA3B10D20FCF70AFF0146304603F0DDF9B5
:2085600060B15FFA84FA29465046FFF76FFF002829DA0027DFF8D4903E460FE00134022C47
:2085800006F1B806E0D14FF0FF30BDE8F087A64209D10136022E09F1B8090ED039F8063CB6
:2085A000002BF6D0F3E7484603F07EF80028F0D0F0B2FFF767FA0744EBE7002FE3DD29469D
:2085C0005046FFF743FF0028DDDDB82303FB04839A8A1044988260B2BDE8F0871B4E4FF023
:2085E000FF3436F8063C63B3304603F05DF810B1E8B2FFF747FA611C03D136F8063C03B9F5
:208600006CB20135022D06F1B806EAD1621C15D0B8256543DFF830900D2009EB0506A6F81E
:2086200012803782FCF7A2FE0146304603F072F905F118004021484403F02FF82046BDE821
:20864000F087631CDDD1DBE7040B00201C0B00202DE9F04F0D2087B0B94EBA4FFCF786FEFE
:208660000024FCF71BFF34703C70FCF7AFFDB64D2860FCF799FDA946002800F08383FDF7C5
:20868000C7FE0420FCF760FEB04B00B218602B681A785D7845EA022502F0F802C02A02D083
:2086A000E02A1BD03FE093F802E0D8783B78C5F30A0504332246294640EA0E203B70FFF768
:2086C00039FFB0F1FF3F804600F05C83A04CB82303FB004401232234009329E093F804B090
:2086E00093F802E0D8783B78C5F30A0505335A46294640EA0E203B70FFF71CFFB0F1FF3F09
:20870000804600F03F83924AB82303FB0023B3F814900094A94534BF4FF000094FF00109B4
:208720004FF0010A3DE2A04625468A4CCDF80080894B00221A70D9F800103A78885C00F07D
:20874000F00EBEF1F00F05D100F00F0018707D48013202701B78012B00F214833A78DFF8D5
:20876000E4918B5C03F0E000602840F0FD81901C0A4492F801A0DFF8E4914FFA8AFB084409
:20878000BBF1000FC9F80000BCBF0130C9F8000013F0100F03F0080236D10193E2B9D9F8CA
:2087A000001003220131601C02F00CFDD9F8002012F8040BC9F80020820802F00F0141F033
:2087C00060012170617802F0300242EA801201F00F010A43627015E06022D9F800102270E2
:2087E00011F8012B900800F0300002F00F02024362700222A01802F0E5FCD9F8002003329D
:20880000C9F80020019B1CE002F0FF00A2B9D9F800201178C1F3830141F06001217012F8B4
:2088200001EB60804FEA9E0101F0300141EA8E116170C9F8002004E060222270002262700A
:20884000628003F0040202F0FF0102912AB943490A6812F8010BA0710A6013F003030BBF73
:208860003E4A3F4A1368D35C09BF13F8011BE3711360E1711AF0400FCAF3011233D0BBF15D
:20888000000FBDBF30493B7809680021BEBF5B189978090922B904F10809AAB9114616E0EB
:2088A000304B1878012806D193F8019089450CBF1946002100E000212B4B19600029EAD1A4
:2088C000DDF800A089466BE1274B19680231274B0D209A5C03910192FCF748FD019A03460A
:2088E000039948460AE0224B0D2013F80290FCF73DFD4A461F49034604F10800FFF7D2FDFD
:208900000AF008010AF0030201F0FF090AF00403002935D0002B70D1174B1B88ADF81430D3
