:020000040020DA
:20200000883700208D222000DFC92000DDC92000DDC92000DDC92000DDC920000000000032
:20202000000000000000000000000000DDC92000DDC9200000000000DDC92000CFCA200095
:20204000E1CA2000E7CA2000EDCA2000F3CA200000000000D5CA2000DBCA2000DDC92000E6
:20206000DDC920000000000000000000000000000000000000000000DDC9200000000000D4
:202080000000000000000000DDC92000DDC92000DDC92000DDC92000DDC92000DDC920009C
:2020A000DDC92000DDC92000DDC92000DDC92000DDC92000DDC92000DDC92000DDC92000F0
:2020C000DDC92000DDC92000DDC92000DDC92000DDC9200000000000000000000000000022
:2020E0000000000000000000000000000000000000000000000000009D372000AD372000E8
:202100000000000000000000000000000000000000000000000000000000000000000000BF
:2021200000000000000000000000000000000000000000000000000000000000000000009F
:2021400000000000000000000000000000000000000000000000000000000000000000007F
:2021600000000000000000000000000000000000000000000000000000000000000000005F
:2021800000000000000000000000000000000000000000000000000000000000000000003F
:2021A00000000000000000000000000000000000000000000000000000000000000000001F
:2021C0000000000000000000000000000000000000000000000000000000000000000000FF
:2021E0000000000000000000000000000000000000000000000000000000000000000000DF
:202200000000000000000000000000000000000000000000000000000000000000000000BE
:2022200000000000000000000000000000000000000000000000000000000000000000009E
:2022400000000000000000000000000000000000000000000000000000000000000000007E
:2022600000000000000000000000000000000000DDC9200081362000A5362000E12A20009B
:202280009D392000A9262000DDC9200008B5094BFF221A600848094A4824E369121A08490F
:2022A00098470848084AA369121A0021984702F0B7FFFEE7B4200D40400000200007002030
:2022C0006CE5200000070020862F002007B5002000F044FA012000F041FA1249002000F0D0
:2022E00009FB114B0122104604210093032301F0AFFB03F0EBFD002003F00CFF01F0E6F9C3
:2023000000F012FC00F02EFC0821084801F05AFB03F0F2FC62B6002003B05DF804EB0AF0DC
:2023200061BB00BF895E2000A0860100662F002073B51A4B1B68022B08DD1949194A1A4896
:2023400004F0DEFF19491A4804F0DAFF6846082101F038FB174E9DF807309DF80650F46AA6
:2023600043EA05254AF6CD310220A04729460320A0471A210120A047736B082269460B2021
:2023800098470AF067FB00F0C1F800210A4803F071FB04200AF026FB02B070BD64050020E0
:2023A00060DD200050DD200065DD200074DD2000D0E12000F0DB2000B8050020034B002297
:2023C0001A60012243F8402C704700BF80C00D40054B1A6842F020021A601A6842F0100250
:2023E0001A60FFF7EBBF00BF00C40D40813801289ABF024B18780020704700BFB61E002051
:20240000812837B532D1E721402001F09BFB01A9402001F0ABFB044628B99DF8043003F0AD
:20242000C703022B02D04FF0FF302AE002ADE62305F8030DE72140208DF8043001F082FB07
:202440002946402001F092FB9DF80530022203F0380343F0020301A940208DF8053001F026
:20246000A1FB094B01221A7020460AE00628DAD1054B1B78002BD6D0FE21402001F062FB15
:20248000002003B030BD00BFB61E002008B5184B1B784BB3022803D1BDE808400AF0DCBA9D
:2024A000032803D1BDE808400AF0EBBA04280AD10AF0D2FA44F2A4435843000CA0F5925089
:2024C0000D3800B208BD05280ED10AF0DAFA43F2D403584342F21073000CA0F5167000B22F
:2024E0009842A8BF184608BD4FF0FF3008BD00BFB61E0020044B1868C0F30720030904BF1A
:202500001030C0B2704700BF1C300D4008B5FFF7F1FF014B1B6808BD1C300D40F8B500F08D
:2025200081F80F4B0024D3E900673A46B04238BF7A1C15460443C3E90045DFF828E0DEE949
:202540000001821B61EB070312196B41CEE9002303F08CF818B1BDE8F84003F00BB8F8BD4E
:2025600000070020080700200D4B0E4AE0215A600D4A82F82310002207219A6019600B4985
:202580000B6843F001030B60094B1A60042243F80C2C012243F8082C0F22DA62704700BF4A
:2025A00010E000E047E8010000ED00E008200D400C000340034BD3E90023100A40EA0360B6
:2025C000704700BF00070020034BD3E90023D00B40EA4340704700BF08070020054B18603C
:2025E0001C3B1A6842F001021A601A68D207FCD4704700BF2800034010B5064C236823F092
:2026000001032360FFF78AFF236843F00103236010BD00BF10E000E0014B1868704700BFD1
:20262000580B0020074B084A196804331B681268120442EA0323054A0B43106843EA0060B4
:20264000704700BF40500D4048500D404C500D4010B50446104A1368DB07FCD572B6FFF7A4
:20266000E1FF231A062BD8BFC41D0C4B220E1A60C4F3074243F8042CC4F3072243F8082CD9
:20268000E2B243F80C2C62B6054B4FF400321C60044B1A6110BD00BF50500D404C500D40AE
:2026A000580B002000E100E008B501F0C9F8074B00221A60064B4FF40032C3F89021C3F88C
:2026C0009020BDE8084003F0F9B900BF580B002000E100E0064B1B681B075FBF054B1868D1
:2026E00080F00800C0F3C00048BF0020704700BF18C0004018D00040164A2C2303FB002342
:202700004FF6BF7270B5DC680546236C62649BB213F050020DD0104EA369DB0608D456F846
:2027200025301BB12068C0B29847F5E72368F3E770BD13F4D06F0BD04FF440732363FF2372
:202740006360E36AE262E362236B43F00103236370BD00BF98DB20005C0B002001282DE950
:20276000F74F064600F2B6802C2545435B4F7C1994F92080B8F1000FC0F2AC8094F9229085
:20278000B9F1000FC0F2A680554801F0E3F8554A7B591168E5680B4313605168636894F934
:2027A00021A00B4353609168A3685FFA89FB0B4393600023C5F8C83F23690AEBC8021A6089
:2027C00094F92330227D00939DF8003058461946019300F039F9019B08221946584600F0BC
:2027E00029F9414A4FEA0939009959F80200012303FA01F1014349F802104FEA083858F852
:20280000020003FA0AF1014348F802105021A963A96B94F9240041F4D061A9630221696385
:202820004FF440712963A16900286962E169A9624FF07001E962154616DB94F92510A2F526
:20284000A64241EAC0041C3A1460040362598B40134363510022C9B2C0B200F0EBF8234AF1
:20286000136843F4004313602C2303FB067393F92640002C1BDB93F927A05FFA84F85FFA95
:202880008AF9012249464046240300F0DDF86259012303FA0AF3134363510822494640466F
:2028A00000F0C8F8114A136843F4804313602C2303FB0676F268136B43F00103136396F849
:2028C00028300122590903F01F0302FA03F3084A42F8213003B0BDE8F08F00BF98DB20000E
:2028E000D526200028200D4020940D4030D0004000E100E001289CBF014B43F82010704734
:202900005C0B0020012808D8044B2C2202FB0030C3689A699206FCD41960704798DB200004
:20292000014B00221A60704700500D40014B08221A60704700500D40024BA0221A6050221C
:202940001A60704700500D40014B024A9A60704700ED00E00020200038B5164D164C2B680E
:20296000012223F040032B602368062123F040032360032000F05EF82B68012223F0800313
:202980002B602368072123F080032360032000F051F80A4A0A4B0B491A600A680A4B1340F3
:2029A000084A002BF9D113685901FCD413685B01FCD538BD20C40D4000C40D400101020048
:2029C00000200D4004200D40000001012DE9F84304464FEA0438DFF83C9008F1804606F5AA
:2029E000592600F02DFFD6F8187458F80930E50023FA05F447EA0400C0B2E4B2A840FFB288
:202A0000AC4003F0F1FAC6F81C7448F80940BDE8F88300BF18970D40034A044B1A60044BD5
:202A2000803A1A60704700BF80400D40680B0020640B0020034B01EBC0011B6843F82120C3
:202A4000704700BF680B0020034B01EBC0011B6843F82120704700BF640B00200E2870B513
:202A60000BD1154B154E1C6844F002051D60356825F03F0343F001033360114E336823F0B0
:202A8000FF031A43114301430E4A316013681B06FCD50D4B0D4A1B6812680E2803F0FC0315
:202AA00043EA022308BF054A1BB204BF1560024A184608BF146070BD34000144F48608405C
:202AC00008700D4000700D400C700D4010700D40024B1868B0FA80F04009704700B70840F8
:202AE00010B5074B4FF40042064CC3F89021C3F89020206818B102F0D5FF0023236010BD87
:202B000000E100E06C0B0020064A136843F002031360536843F002035360936843F002030E
:202B20009360704748200D4007B50C4800F012FFFFF7EAFF0A4B1A6842F002021A6000229D
:202B40000192019A0F2A02DC019A0132F8E71A6822F002021A6003B05DF804FBD12A20004F
:202B600054200D40064A136823F002031360536823F002035360936823F0020393607047FB
:202B800048200D402DE9F0410E464FEAD0084FEA083400F00701012704F180448F4016F0B1
:202BA0000C0304F559246FEA070505D1D4F810342B40C4F810342DE0042B0DD1D4F80434BC
:202BC0002B40C4F80434D4F808342B40C4F80834D4F80C343B430EE0082B0FD1D4F804349C
:202BE0002B40C4F80434D4F808342B40C4F80834D4F80C342B40C4F80C340BE00C2B09D19C
:202C0000D4F804342B40C4F80434D4F808343B43C4F8083416F0030204D0022A02D0012ACB
:202C200003D104224046FFF705FF16F0800605D1D4F810342B40C4F810340AE04EB1D4F888
:202C40001034074A1F43012303FA08F3C4F810741360D4F820341D40C4F82054BDE8F081EB
:202C600000E100E0044B186800F02200A0F1200358425841704700BF4C860840024B18686E
:202C800000F04000704700BF4C8608402DE9F04107468846FFF7C6FC0F4BDA5D7AB10F4946
:202CA0000F4A51F8276002EBC702861BD2E90045A41945F10005C2E900450022DA5513F850
:202CC000083033B9054B012243F82800024B03F80820BDE8F08100BFC0250020C8250020A3
:202CE00098250020214B1870002834D0204A13681B03FCD51F4B1A6842F002021A601A68E5
:202D000042F001021A601A681A495007FBD50A6822F001020A601968164A4907FBD411688E
:202D200041F002011160116841F0010111601A685207FCD5104A136823F004031360D2F8F9
:202D4000A83123F00403C2F8A8310C4B4FF40052C3F890207047084A136843F00403136065
:202D6000064B4FF400521A61704700BFBA1E002004200D40048808408C86084000E100E024
:202D80000B280DD1082A0DD161B1074B074A083111F8010D43F8040F9342F9D10020704749
:202DA0000120704702207047A4850840C485084070B52E4D2B6813F0400307D02C4E3368FB
:202DC000DCB21B0604D52B4BED221A60002070BD042CF8D9023C8C42F5DCE4B2032C21D08B
:202DE00001190139032000F093FC631E22491B011943032000F096FC032000F09DFC032005
:202E000000F0B2FC032000F0BBFC0028FAD131681A4B493949B219703368194E1806337090
:202E2000D1D506E0336803703368437033688370EDE789B2042003F091FC3178032001F0AC
:202E40007F0103F08BFC0F4B1B786BB92B685A060AD5064B1B681B0603D50B4802F022FE63
:202E600002E0044BED221A60204670BD4C860840288808403888084002C0010CB91E002025
:202E8000B71E0020BA1E0020D00400200B282DE9F84F0E4610D1082A40F0828000297FD0B0
:202EA000414B424A4E1E53F8041D934206F8011FF9D10020BDE8F88F0C286ED1042A6FD138
:202EC00000296DD03A4B3B481A68DFF8F8C022F007021A600268DFF8F0A042F0080202606F
:202EE000DAF80040DCF800101A68DFF8E0E022F07002314F1A60DEF800203D68E4B2090209
:202F000044EA056401F47F411204214302F47F020A432A490024D1F800805FFA88F544EA43
:202F200002081A68A94622F0070242F001021A60026842F008020260DAF80000DCF800207E
:202F40001D68C0B225F0700545F010051D60DEF800303D68120240EA056002F47F421B0405
:202F6000024303F47F0313430A6844EA030A5FFA82FBFFF757FBB8EB0A0869EB0B094FEA1C
:202F8000C93105460E4A00234FEAC83041EA584109F094F9281A30608BE70120BDE8F88F65
:202FA0000220BDE8F88F00BFC8850840A88508401088084004880840208808401C8808406A
:202FC0000048E80118880840148808402488084010B5154A13689907FCD4134B1B685B06AF
:202FE0005EBF124BED221A60114B1B6813B10F4BEF221A600F4A104C137803F07F0313700E
:20300000237973B1FFF70EFB0C4B0D491B69C01AD1E90823121843F10003C1E908230023A8
:203020002371012010BD00BF4C860840388808402C860840BB1E0020C0250020C825002028
:203040009825002010B50C4B93F90020002A08DB0A4AED211160E32111601A7862F07F0211
:203060001A70074C23792BB9FFF7DCFA054B186101232371012010BDBB1E002038880840B7
:20308000C0250020C825002010B50A4B04461B6813F03F0302D0FFF79BFF012304EB8402F7
:2030A00005492C3A0A600BB1FFF7CCFF034B1C7010BD00BF488608403C860840FF060020CA
:2030C0002DE9F0412E4F3D7815F0010555D12D4B01241C605C609C60A3F59323A3F5147308
:2030E000F8221A600922C3F89021152270331A6003F59B230B2203F59E731A60A3F59B2395
:20310000214EA3F5A6731C604023336033684FF07F0843F0200333601C4BD5221D60C3F83D
:2031200048809A631A4B1878FFF7AEFF33684FF4804223F00C033360164B0220C3F800801F
:20314000154B1A6100F004FB1449022000F0E0FA032000F0FDFA1149032000F0D1FA104BBF
:203160001878FFF7BFFD29460E4802F083FC3B78204623433B70BDE8F0810020BDE8F08161
:20318000BB1E0020A8200D402486084008860840FF0600209486084000E100E02888084019
:2031A000BA1E0020D004002038B50C46002900F09480172800F29380DFE800F00C191C1E5D
:2031C000253B44565B7074919191797B7D8091828486888C434B186810F0FF007BD0424BFC
:2031E0001B6813F0030F0CBF012302236FE03F4B1B786CE03E4B00E03E4B1A68043B1B6835
:2032000043EA022363E000230B603B4B364A1B6803F001030B601268920644BF43F0020353
:203220000B60364B1B78002B52D00B6843F004034DE0334B00201B780860002B48D00123E8
:203240000B6038BD2F4B30491A680023D2B201EBC3000079904203D82B4A52F8333036E0E5
:2032600001330E2BF3D126E0284B1B685BB2493B2DE0274B1B689B0603D1FFF7E3FE01221F
:2032800000E000222348036859B28031FBD0493B5DB20AB1FFF79CFE256019E01E4B93F97E
:2032A000003014E01D4B1B7803F07F030FE00B230DE01A230BE06FF0170308E0072306E0D7
:2032C000032304E0202302E00C2300E008232360002038BD0020206038BD022038BD012020
:2032E00038BD00BF2C86084024860840FF060020CC850840D485084000860840BA1E002009
:20330000FE0600204086084028DC2000588608404886084060860840B91E0020B71E002001
:2033200010B50B4B1B68990603D1FFF78BFE012300E0002307490A68D207FCD5064A14689E
:20334000C4F300140BB1FFF743FE204610BD00BF48860840648608404C86084038B5054623
:203360000C46124A13689B07FCD4114B93F90030002B01DBFFF766FE0E4BEE221A60691ECF
:20338000A21C43F8102C2144022000F0B9F9013C094924012143022000F0C4F9022000F0D6
:2033A000CBF9022000F0E0F9002038BD4C860840BB1E00203888084002C001C038B5038833
:2033C0000446CBB140F24742934203D000230380032038BD194B18781A4628B11B7873B122
:2033E000174B1B7858060AD5822908D1137843B1134B1A78520614D440F2474323800120E8
:2034000038BD03F061F903F0F3F88021FFF7D0FC0028EDDD80B203F0CFF80A4BDB689847D4
:20342000E6E700221A70084B1D68FFF7D1FDFFF747FEAB06E0D0FFF705FEDDE7BA1E002026
:20344000BB1E0020C0DC200048860840F8B5254B93F90030002B0DDBFFF7E4F80546FFF7A2
:20346000F1FD6FF00904641BFFF7DCF8C442FBD4012600E000261C4B1B7823B91B4D2B68D6
:20348000990604D405E0FFF74BFF0028F6D10220F8BD03210420FFF7F9FB154BE9221F46C8
:2034A0001A6004242B689A0707D4013C14F0FF0403D00620FFF792F8F4E72B689B0703D4B7
:2034C000EE233B60012403E02C6814F00204FBD104210320FFF7DAFB0EB1FFF779FD20462A
:2034E000F8BD00BFBB1E0020FE0600204C8608403888084013B50C460D2800F2A180DFE8F0
:2035000000F007464E5259757B8F9F9F9F9F9F95012939D011B9FFF75BFD85E08B1E012BC1
:2035200000F2908001A90020FFF73EFE022C019B19D1022B78D05A1E53425341434A1370B3
:20354000FFF746FD424B434A1968116042221A60D3F8C010404A11601822C3F8C020E922D2
:20356000C3F8142260E0022B5ED13C4BEF221A60384B1A68364B1A60374B1A68384B1A60AB
:20358000324B1B78002B4FD0FFF75CFD4CE0A1F10B030F2B56D8C8B2FFF776FD44E08CB209
:2035A000E2B2304B02E08CB22F4BE2B2240A1A605C6039E031F0070344D12C4B11F0010F89
:2035C0001A68C1F3800014BF42F0010222F001021A601F4B11F0020F1A6814BF42F0200279
:2035E00022F020021A60FFF77DFB1DE031F0010028D11F4B197026E001F118031F2B21D84E
:203600001C490D2351F83300DA00844204DC194B13441A79184B0EE013F1FF33F2D203E09D
:20362000CCB2164B49341C6000200CE0084B1A6819B122F00C021A60F6E742F00C02FAE76F
:20364000012000E0022002B010BD00BFB81E002024860840740B0020700B002038880840DF
:20366000E4860840C8850840D085084000860840FE06002028DC200040860840588608401C
:2036800008B5054B1B7813B9044802F00BFA044B00221A6008BD00BFBA1E0020D004002020
:2036A00034880840064B07481A68042A1FBF06490A7842F040020A7000221A6002F0F2B9E0
:2036C0002C880840D0040020BB1E002010B5094C40220021204609F08DF8074B01221A6091
:2036E0005C60064B4FF480425A604FF400425A6010BD00BF0000002004F00F4000E100E00F
:2037000003289EBF014B0001195070470000002003289EBF024B03EB00104160704700BFAA
:203720000000002003289EBF024B03EB00108160704700BF00000020032806D803490122A7
:203740000B6802FA00F018430860704728F00F40032806D8034901220B6802FA00F01843F7
:203760000860704720F00F40032806D8034901220B6802FA00F018430860704714F00F4027
:2037800003289FBF044B03EB0010806800F0070088BF0020704700BF00000020024B4FF0EB
:2037A000FF321A60704700BF04F50F40014B01221A6070474CF00F40094A1368084913F44F
:2037C000801FFAD1074B1A6822F480321A600A68D203FCD41A6842F400321A60704700BF78
:2037E00004200D4000200D402DE9F04107468846FEF718FF0F4BDA5D7AB10F490F4A51F8C7
:20380000276002EBC702861BD2E90045A41945F10005C2E900450022DA5513F8083033B962
:20382000054B012243F82800024B03F80820BDE8F08100BFC0250020C8250020982500207E
:2038400010B50E4C23689A0717D00D490B680C4A13F0806FFAD113685B01FCD5FEF7CCFEF3
:20386000FFF7AAFF2068002100F00300012818BF0220FFF7B9FF0023236010BD58200D4005
:2038800004200D4038B52D4B1C6814F03F0413D12B4D55F8243023B1984768B10134052C58
:2038A000F7D1284D2B783BB1FEF7B6FE0446FEF7B9FE201A092803D8BDE8384009F025B963
:2038C000002CF9D0204B21481A6822F400321A6002681E4912F4801FFAD11A6842F4803230
:2038E0001A600B68DB03FCD5FEF79CFE201A092803D8BDE83840FFF75FBF6328144C02D960
:203900002B78022B00D00123236002F081F8054620B1FFF751FF0023236038BDFEF77CFE89
:203920000028F6D02168284601F00301012918BF0221FFF759FF30BF38BD00BF4886084082
:20394000780B0020BC1E002000200D4004200D4058200D400749002351F82320824207D08D
:203960001AB9044A42F8230070470133052BF3D1704700BF780B0020054B00221A60054A96
:20398000136943F004031361034B01221A70704758200D4000ED00E0BC1E002010B5074BA8
:2039A0004FF48032064CC3F89021C3F89020206818B102F077F80023236010BD00E100E003
:2039C0008C0B0020134B1B782BB101F5201127310138114B16E0114A1278122AF5D1104A18
:2039E00012784B2AF1D108448B420ADA03F52012032BD4BF2C3224321278013300F8012D86
:203A0000F2E77047994204D011F8012900F8012FF8E770472B002800270028002A00280082
:203A200029002800024A136843F01003136070472000024014235843034B044A0344B3FB39
:203A4000F0F3013B13607047FF23F4000C0002402DE9F84306460F4614461D462A4ADFF8BF
:203A6000B4901368DDF8208043F001031360D9F80030322043F00103C9F80030FEF7AEFD4D
:203A8000D9F80030214A23F00103C9F8003030038158012303FA07F921EA0901815021037B
:203AA00051F802C0AB402CEA030C41F802C0203250F802E049EA0E0E40F802E088580343E5
:203AC0008B50304639460022FEF7B4FF294620460022FEF7AFFF0E4B47EAC6021A6045EAB7
:203AE000C4025A60394630460B22FEF7ADFF204629460C22FEF7A8FFFFF794FF4046BDE830
:203B0000F843FFF797BF00BF38200D4000940D402C410D4044200D40024B18600120FEF793
:203B20005DBD00BF04000240054B1868C0B2C30704D410F0120F08BF0020704700207047EC
:203B40000400024008B5074B4000186099600720FFF7E2FF044A1368DB07FCD4BDE80840F9
:203B6000FFF7E2BF00000240040002400A4B400040F0010010B5186007200C46FFF7CCFFE9
:203B8000064A1368DB07FCD4FFF7CEFF10B9044B1B68237010BD00BF0000024004000240A3
:203BA000080002402DE9F8430F461446002A3CD000293AD0012A04D1BDE8F8430978FFF7FB
:203BC000C1BF1B4A430013600B781A4E03203360FFF7A2FF184A1368DFF85C8013F0010F6F
:203BE000F9D1FFF7A1FF70B9012504F1FF3914E03C4414F8013C05203360FFF78DFFD8F822
:203C00000030DB07FBD4BDE8F843FFF78DBFD8F80030DA07FBD40135EDB2A945E8DD7B5D91
:203C200001203360FFF778FFF1E78020BDE8F8830000024008000240040002402DE9F843A8
:203C40000F461446002A3CD000293AD0012A03D1BDE8F843FFF78ABF1B4A430043F001034F
:203C600013600B20FFF758FF184A1368DFF85C8013F0010FF9D1FFF757FFF0B9144E01256F
:203C8000336804F1FF393B70A9450BDD0920FFF743FFD8F80030DA07FBD433687B55013529
:203CA000EDB2F1E70520FFF737FFD8F80030DB07FBD433683C4404F8013CBDE8F843FFF761
:203CC00033BF8020BDE8F8830000024004000240080002402DE9F04397B0804615460E465B
:203CE00001F0F4FB01F014FC904CDFF884E2A368DEF80070C3EB000CE368DEF80810C4F8CA
:203D000020C0C3EB070C2369DEF81020C4F824C0C3EB010C6369DEF81890C4F828C0C3EB79
:203D2000020C2368DEF820E0C4F82CC0C3EB090C6368A06321646264C4F818C0A060C3EB4E
:203D40000E0C216162617A497A4A7B48C4F834E0C4F81CC084E80042E763E760C4F8309097
:203D600003F0CEFA754B764819684FF47A774A1C1A60226AD20B03F0C3FA6E4A6C496E4839
:203D800003F0BEFA216A6F4803F0BAFA694A6849694803F0B5FA616A226A07FB01F36A48D9
:203DA000B3FBF2F303F0ACFA624A6149624803F0A7FAA16A226A07FB01F36448B3FBF2F377
:203DC00003F09EFA5B4A5A495B4803F099FAE16A226A07FB01F35E48B3FBF2F303F090FA64
:203DE000544A5349544803F08BFAA169226A07FB01F35848B3FBF2F303F082FA4D4A4C491B
:203E00004D4803F07DFAE169226A07FB01F35248B3FBF2F303F074FA464A4549464803F0AA
:203E20006FFAE369A169226A194407FB01F34B48B3FBF2F303F064FA16A94FF0FF3341F804
:203E4000043D404608F0C6FF15994B1E033341D90021304608F0B7FFA269E169236A02EB63
:203E60000108606AD4F828E0D4F82CC007FB08F4B4FBF3F40D9112940A9207FB01F407FB76
:203E800002F107FB0CF2B2FBF3F2099207FB0EF24743B1FBF3F1B2FBF3F2B7FBF3F7B4FB09
:203EA000F3F411930E930C910B93089306920593029301900093CDF810E00397DB0B284A70
:203EC00040212846CDF840800F94CDF81CC009F0E9FB16E0292907D1304608F074FFA36960
:203EE000204A0093236A08E0322910D1304608F06AFFA3691C4A0093236A4021284609F0E3
:203F0000D1FB284608F0EEFC2946024608E08621304608F047FF154808F0E4FC02461349B2
:203F2000304608F0A7FF17B0BDE8F083DC25002060DD2000CADD200065DD2000900B00202C
:203F4000D3DD2000F9DD20000EDE200036DE20005EDE200086DE2000AEDE2000D6DE2000FB
:203F6000FEDE20004EDF200077DF2000A3DF20009825002070B584680546ACB194F9083085
:203F8000002B11DA236A7BB11A686AB1074A127812B11B6A03B19847236A2846BDE87040AF
:203FA0001A68002308F092BF70BD00BFBD1E00202DE9F34706461248884691469A460A9F08
:203FC00008F0FAFF0546A5B16C6884B1009753464A4641463046A047044640B1B379012B0F
:203FE00009D142463146002000F0B6FA03E02D68E9E7284600E0204602B0BDE8F08700BF9F
:20400000940B00202DE9F04F9F4D8BB002902846039100F067FE9D4E029B04463070C5F84D
:20402000A030002840F01681AB79013B032B00F2F5800299288900F065FB0746002800F0CB
:20404000E7804023ADF816306B790694079408941BB92B894522022104E000F095FC034636
:20406000452201218A4808F090FEAA7A1AB18949874808F09DFE07AB009300220DF11603BE
:2040800006A9814808F0C4FE40B1BDF81630402B28BF4023ADF81630079B0893089B002B57
:2040A00003DA822333707C4AB5E0BDF8169007F184080DF1200ACDF800A04B46424674493E
:2040C0007148FFF775FF002867D10AA941F8040D6D4808F08BFE8346704808F06DFF0446FB
:2040E000002C4ED0606808F0FDFB8345024607D045DD237AD80642D5099B9B5C2F2B3ED11F
:204100000999606808F01CFC002838D1AB795A1E04D1D4F810B0BBF1000F16D1012393405E
:20412000990704D5D4F814B0BBF1000F0DD15A0704D5D4F818B0BBF1000F06D1180717D572
:20414000D4F81CB0BBF1000F12D04B46CDF800A042464F494C48D847237A5B0640F10A81A7
:2041600020464B4A484900F0F7F901231C460DE08521474808F016FE0023012406E0246865
:20418000AEE78421424808F00DFE0123234204D184213F4808F006FE2CE03378002B5AD1C5
:2041A000AB7D190700F19E80697D089AC91100F0CD80079B364C9A4200F0A5800132069922
:2041C000BDF8163040F0C080B4F8A4209A4294BF00220122DFF8B880404608F032FEBDF81E
:2041E0001620B4F8A430934204D94046D8F8A81008F040FE337873BB07F14601244800F09F
:20420000CBFB80B2A7F8440028BBC123337022E0A323234A3370234B1A601CE06B6823F0B7
:204220007F4323F0FF0313B9C323337006E06B79032B03D12989029800F072F9288900F03E
:20424000DFFA38B1C46B076C00F076FA14B10E493846A047002733780C4C33B9002F00F0E4
:204260008B80384600F07EFA86E0C22B384602D100F062FA80E000F05FFA2378C32B13D147
:2042800000232370032114E0980B0020C51E0020480C0020A30B002022E02000440C0020B6
:2042A00032E0200050050020BF2B84BFA0232370022132782B89324808F067FD314B1C687D
:2042C000204608F00FFB214602462D4808F0D2FD03992B4800F060FB039982B2029800F0D7
:2042E000D7FE49E0284B93F90620002AFFF65CAF9B7D1A073FF558AF244BA1221A70244AD3
:20430000204B1A6076E7B4F8A4108A4204D38223A3710F221F492BE0BDF816308A1A9A4280
:2043200094BF002201220699204608F08AFD0799B4F8A430BDF816205B1AD4F8A8009A4291
:2043400028BF1A46014413E0012243E7002A3FF453AF0D4C013218BF01224023204608F0EB
:2043600070FDB4F8A420D4F8A8103F2A88BF402220463DE7012300E730780BB0BDE8F08FAE
:20438000980B002050050020480C0020C51E002042E0200022E0200010B504464160014613
:2043A0000B4808F026FE94F90830002B0EDA206A60B1036A53B1026842B1064B0461C36074
:2043C000BDE810400023083008F080BD10BD00BF440C0020753F200008B50B4B1A788AB9A0
:2043E00001220A481A7008F0E4FD094808F0E1FD08490948FFF7D0FF00F044FEBDE8084038
:2044000000F0BABA08BD00BFBD1E0020940B0020440C002052E020002C050020014808F0A6
:20442000CBBD00BF440C002010B504460146044808F031FE2146BDE81040024808F0C6BDDB
:2044400004050020F40C002070B50646094808F0B3FD044600255CB1314604F1180008F0B1
:2044600022FD18B12046FFF7DFFF01352468F2E7284670BDF40C00202DE9F04107461148D7
:204480008846164608F098FD04460025B4B1394604F1180008F007FD70B194F82C30B3420B
:2044A0000AD13246414604F12D0008F097F818B92046FFF7B9FF01352468E7E72846BDE8F1
:2044C000F08100BFF40C00202DE9F04107461348884608F071FD04460025DCB11FB9261D52
:2044E000464508D110E0394604F1180008F0DBFC0028F4D10CE0304608F0F4F9414602460A
:20450000304608F06BF818B92046FFF78DFF01352468E2E72846BDE8F08100BFF40C002023
:20452000F8B506460B480F4608F046FD0446002574B1314604F1180008F0B5FC30B1E38E8C
:20454000BB4203D12046FFF76FFF01352468EFE72846F8BDF40C00202DE9F84F8B79164628
:20456000012B5AD192F90630002B56DBCB7C5B0653D5D1F8A0A0BAF1000F43D04F6E002F35
:2045800037D1D1F860B091F80A80CD6D01F10B0950465946FFF798FF214808F068FD044615
:2045A00090B3132DA8BF13252A4659460430254408F046F8514604F118002F7108F063FC5C
:2045C0004246494684F82C8004F12D0008F038F821461448E78608F00CFDA16B30464B1C38
:2045E000A36308F00EFCA36B23F07F43A363BDE8F88F012F11D18A7A5046BDE8F84F0B31CA
:20460000FFF73ABFBDE8F88FA323B3713046BDE8F84F1022044908F02DBCBDE8F88F00BFE8
:2046200004050020F40C002063E02000014801F039BA00BF1005002070B5038806462BB1D5
:204640005D2B0AD000230380032070BD8021194808F05CFC5D23338003E0882903D082296B
:2046600001D0012070BD00F05BFD18B1124801F019FAEFE700F03AFD04460D4654EA0503CC
:20468000F4D0C9014FF47A720023E00141EA546107F014FE00234FF4F0528B4208BF824270
:2046A00004D350EA010302D1012000E010460146CDE700BFFC0C00201005002070B5FDF78B
:2046C00079FF0B4E0B493268821A0ED04FF47A73A2FB0323D40944EA4364DD09D1E9002339
:2046E000A4185D41C1E900453060D1E9000170BDF80C0020300800200021014801F0BAB9AF
:204700001005002070B5064609480D4608F0AFFC044658B10023868080F82430294626309F
:2047200008F0B1FB2146034808F063FC204670BD200500200C0D002010B5044660B1083063
:2047400000F0C6FC2146054808F040FC2146BDE81040034808F09FBC10BD00BF0C0D002000
:20476000200500202DE9F04190F846500446C5F301152630A5BB94F82430042B22D8B4F80C
:20478000442004F1460100F083FC94F8243073B91A4B2461E36008F085F840F2DD53B0FB4F
:2047A000F3F202FB130000F6B830206202E0236A5B002362226A04F108000023BDE8F041D3
:2047C00008F084BBE66B276CFFF73EFE2046FFF7B3FF86B1294638463346BDE8F0411847AC
:2047E000B4F8442004F1460100F052FC2046BDE8F041FFF7A1BFBDE8F08100BFA1CB20003C
:2048000010B50446044808F0D7FB20B18388A34201D00068F9E710BD0C0D00202DE9F84F36
:204820000A9F8B4691461E46FFF7F8FD002480462546B8F1000F79D04DB13B689D4205D32A
:20484000B4423EBF2C2309F80430013401353B689D4205D3B4423EBF3C2309F80430013460
:204860003A686B1C934205D3B4423EBF2F2309F804300134D8F8040008F034F802353B68E1
:2048800005EB000A9A4510D9D8F804205B1B711C002BACBFD318131C091B09EB0400344A15
:2048A00008F000FF0444A64240D93B689A4505D3B4423EBF3E2309F804300134D8F80C3094
:2048C0000AF101053BB31B782BB33B689D4205D3B4423EBF3B2309F804300134D8F80C0087
:2048E00008F000F80AF1020A3B680AEB00059D4211D9CAEB030AD8F80C30711CBAF1000F46
:20490000A8BF5344091B09EB0400194A08F0CAFE0444A6420BD3B44203D93A682B1B9342BD
:2049200005D8404608F03AF9804682E74CB149462246584608F09EFA2821584608F043FA7C
:2049400009E045B18221584608F02CFA0F220949584608F08FFAB8F1000F04D14FF0FF3379
:204960003B60BDE8F88F3B681E443E60BDE8F88F87E0200022E0200008B507F093FF014B66
:20498000188008BDBC170020024B1888013080B218807047BC170020F7B50446012321609A
:2049A000037100230B700F46016800790A7842EA80120A70206862790178120102F03002E1
:2049C0000A430270A27A206802F00F0102780A4302702268A179517022892168120A8A708A
:2049E00022682189D170A279002A00F07381224652F80A5B0435A17A8B4205D212F8011FE0
:204A0000013305F8011BF6E70121204608F0D2F860B194F86A302A460093002104F16B0364
:204A2000012008F065F90126054400E006460321204608F0BFF848B1236C2A460093314628
:204A4000636C032008F054F9032605440421204608F0B0F858B194F824302A46009331461F
:204A600004F12503042008F043F9042605440521204608F09FF838B12A463146002305201B
:204A800008F005F9052605440621204608F092F838B12A463146636E062008F0F8F80626C2
:204AA00005440721204608F085F840B12A463146B4F85030072008F0EAF807260544082106
:204AC000204608F077F858B12F230193A36C2A4600933146E36C082008F01AF90826054498
:204AE0000B21204608F066F858B12F230193E36D2A4600933146236E0B2008F009F90B262E
:204B000005440C21204608F055F838B12A463146A38B0C2008F0BBF80C2605440E2120468F
:204B200008F048F838B12A463146236A0E2008F0AEF80E2605440F21204608F03BF868B1BD
:204B400026230193D4F894302A4600933146D4F898300F2008F0DCF80F26054411212046C9
:204B600008F028F840B12A463146B4F86830112008F08DF8112605441421204608F01AF82E
:204B800058B126230193636D2A4600933146A36D142008F0BDF8142605441721204608F0DB
:204BA00009F8E8B1636F94F878201B010AB143F00803B4F87A1000200909421C490892B2F5
:204BC00001D01046F9E7002A18BF024602F00F02134331462A46172008F059F8172605443F
:204BE0001B21204607F0E6FFF0B1D4F8803094F884201B010AB143F00803B4F88610002073
:204C00000909421C490892B201D01046F9E7002A18BF024602F00F02134331462A461B20C4
:204C200008F035F81B2605441C21204607F0C2FF40B12A463146D4F88C301C2008F027F8B7
:204C40001C2605442321204607F0B4FF48B1236B2A4600933146636B232008F049F82326E1
:204C600005442721204607F0A5FF48B1A36B2A4600933146E36B272008F03AF827260544CC
:204C80003C21204607F096FF38B12A46D4F8903031463C2007F0FBFF05442368EB1A3E2BDA
:204CA00011DCB4F8A43013B1FF2305F8013B2846B4F8A420D4F8A81007F038FDB4F8A4008A
:204CC000ED1B284407E0054A054B0025256028461A6000E0042003B0F0BD00BF90E0200095
:204CE000500500202DE9F74F0F46044600219246AC2207F07FFD276097F800804FEA98188B
:204D000084F804803B78B8F1010FC3F3011363713A7802F00F02A2727B78A371B978FB7815
:204D200043EA0123238101D0A04A02E0082A03D99F4AA04B1A6034E13E1D314604F10B009E
:204D400007F07EFC0822002104F1130007F052FDA37A00251E4407EB0A094FF0100B4E45B3
:204D600080F01D81317801F0F003F02B14D10136F71BC7EB0A0A1FFA8AFABAF1400F8ABFA9
:204D80004023A4F8A4A0A4F8A430B4F8A4300020C4F8A860F05405E14FEA111EBEF10D0F9F
:204DA00001F00F0105D196F801E0B01C0EF10D0E0CE0BEF10E0F01BFB07896F801E000F2C6
:204DC0000D1000EB0E2E14BF701CF01C0D2903D110F8011B0D3108E00E2906D1437801788E
:204DE00003F20D1303EB012102304618B145C0F0D88075443C2D00F2D48004EBD50305F0DC
:204E0000070208FA02FEDA7C0E2D4EEA0202DA7464D027D8062D00F0A18017D8032D78D08E
:204E20000CD8012D40F0B3800A46082928BF0822014684F86A2004F16B0062E0042D51D02A
:204E4000052D40F0A48084F89C8088E7082D71D062D30B2D65D00C2D40F0998007F0B8FE7E
:204E6000A0837CE71B2D7DD025D8112D44D00BD80F2D40F08C802623009302460B4604F103
:204E8000980004F194015DE0142D5ED0172D7ED107F09EFEC0F3C00300F0070284F878308B
:204EA0000BFA02F3A4F87A3020F00F0393400009E367606753E7232D26D006D81C2D66D1C5
:204EC00007F086FEC4F88C0049E7272D1CD03C2D5DD107F07DFEC4F8900040E707F078FEB6
:204EE00020623CE70A46082928BF0822014684F8242004F1250004E007F06AFEA4F8680013
:204F00002DE707F09DFB2AE72B4A2A4BA5201A6048E06064216422E707F05AFEA4F85000FF
:204F20001DE72F23009302460B4604F1600004F15C0107E02F23009302460B4604F14C00A2
:204F400004F1480107F04FFE09E72623009302460B4604F1580004F15401F3E707F038FECC
:204F60006066FCE607F034FEC0F3C00300F0070284F884300BFA02F3A4F8863020F00F0353
:204F800093400009C4F88830C4F88000E7E6EB077FF5E5AE094A074B82201A6002E00020FC
:204FA00000E0802003B0BDE8F08F00BFBFE02000D6E0200050050020FBE0200022E12000B3
:204FC000F8B50288054632B1B2F5DA7F11D0002303800320F8BD1146104603F03BF9174BD7
:204FE000186043F2163303824FF4DA732B800120F8BD134B1B788B42F6D1124B1B789B070E
:20500000F2D5114A114C164604F11007234603CBBB42106051601C4602F10802F6D10C4BD7
:2050200009481A780B4BD35A33820023B3740A4B1A880A4B1968FEF7E5FFD5E7100D00206C
:20504000852F0020C82C0020BE170020D027002035200020F0270020B8270020D02C002095
:2050600008B548F2FE0302889A4206D0044B5B6A9847003018BF012008BD012008BD00BF77
:20508000ECDC20000021014800F0F4BC5405002073B50E461446054610B94FF0FF340CE05D
:2050A000FFF7DEFF0028F8D02B8A0548009322462B463146006808F0EDFB204602B070BDBB
:2050C000100D0020014B5B68184700BFA8DC200010B50446FFF7F6FFC4E904012146BDE80A
:2050E0001040014807F072BF140D002010B50B4807F062FF044658B1FFF7E4FFD4E904232E
:20510000994208BF904206D2101A63EB010110BD4EF6602000E00020002110BD140D002009
:20512000F8B5FFF7CFFF064614480F4607F044FF044608B90020F8BDD0E904239F4208BF5F
:205140009642F7D301460D4807F040FF63680BB1204698470A4B9B689847084807F02CFF66
:205160000028E7D0D0E90445FFF7ACFFA94208BFA0422CBF01200020F8BD00BF140D002038
:20518000A8DC200010B5074B1A7852B9012206481A7007F00EFF054B1B6813B1BDE810402C
:2051A000184710BDC61E0020140D0020A8DC2000F7B5184B04461B780BB9FFF7E3FF1648F4
:2051C00007F0FAFE21460546134807F0FFFE124807F0F2FE002150B1D4E90467D0E9042374
:2051E0009F4208BF964203D301460068F3E71CB12246094807F019FF074807F0DDFE854253
:2052000006D0064B9B68019303B0BDE8F040184703B0F0BDC61E0020140D0020A8DC2000A0
:2052200038B5644C07F00AFCFDF79EF907F08BFE00F094FB0021604800F01CFC00F084FA0B
:20524000FDF76EFB00F022F900F04CFCFDF73EF800F09EFF01F0CCFA00F02AFA2368022B74
:2052600007DD564A5649574802F04AF8564802F047F82368022B09DD5149504A514802F00C
:205280003FF8524B5248196802F03AF82368022B09DD4B49494A4B4802F032F84D4B4E4859
:2052A000196802F02DF82368022B09DD4449434A444802F025F8494B4948196802F020F853
:2052C0002368022B09DD3E493C4A3E4802F018F84AF6CD31434802F013F82368022B08DD38
:2052E0003749364A374802F00BF81A213E4802F007F82368022B09DD3149304A314801F08C
:20530000FFFF3A4B3A48198801F0FAFF2368022B07DD2A4A2A492B4801F0F2FF354801F0B7
:20532000EFFF2368022B02DD334800F091F82368022B02DD314801F0E3FF08222E493048F8
:2053400007F07EF900212F4800F094FB4FF0FF3002F090FD23680546022B07DD174A184932
:20536000184801F0CDFF284801F0CAFF2368022B05DD0DB1A81C00E0284600F059F82368B0
:20538000022B02DD1D4801F0BBFFFCF7D1FFFFF723F81E4807F0A9FDFDF7C8FA00F0F6FA84
:2053A0000446FDF7C9FA14F0FF0FF7D107F050FBF4E700BF640500206805002073E12000AC
:2053C00060DD200065DD200078E12000ECDC2000AFE12000DCDC2000BEE12000C0DC2000AA
:2053E000C9E12000D4E12000EEE12000D21700200EE220001BE22000662F00205CDE2000DA
:20540000C02700204C06002030E220003CDD200010B50446FDF7D8F894E80C001344C01A1C
:20542000024B98428CBF0020012010BDFEFFFF7F00B58BB002462821684604F029FF694677
:20544000024801F05DFF0BB05DF804FB87E0200038B5054608B1002409E00948BDE83840B3
:2054600001F04EBFE30702D4064801F049FF295D0548013401F044FF082CF3D138BD00BFFF
:205480006DE220007CE220007EE22000F8B500231A460B490B4D0C480026002745F82320A2
:2054A0001A540133052BE1E90267074CF6D123782BB9FDF7B7F8034B186001232370F8BD79
:2054C00090250020C8250020C0250020F8B50D4D0D4F0E4E0024E35D6BB1FDF7A3F856F8C9
:2054E000243046F82400C11AD5E90023521843F10003C5E900230134052C05F10805EAD1A4
:20550000F8BD00BF98250020C0250020C825002030B50649D1E90245D1E9002312196B413F
:20552000D1E904018018594130BD00BF9825002010B50E4C236813B90D4A136010BDFDF7F0
:2055400039F8216891E80C001A44131A8A6842B192E812002144091A8B4228BF0B46926889
:20556000F5E71844024B186010BD00BF180D00201C0D0020014800F095BA00BF6805002040
:205580002DE9F8430388054633B1592B0BD0002303800320BDE8F883234A136059232B80B1
:2055A0000120BDE8F883872924D08229F6D11E4F4FF00008B9463C680026002CEED02046C7
:2055C00007F0CAFC98B122468821E06800F02AFA58B9E060A3680EB1B36001E0C9F8003058
:2055E000C4F80880FFF7A4FFE5E7FFF7C3FF2646A468E2E70C4900200B681BB90028CDD088
:205600000B60CBE7DC68A24202D19B680120F4E700B10B6099680029C0D0C86882420ABFE0
:2056200089680B469960F5E7180D002010B50446FFF7A0FFE3680B4A4BB113683BB1A34282
:2056400003D1094A1268DA6007E09B68F6E7064B1B68E36013681460A360BDE81040FFF7B4
:2056600067BF00BF180D0020240D0020024B1868003018BF01207047180D002010B50B4AA4
:2056800004461368834206D18368136008E09A68944203D01346002BF9D103E0A2689A6083
:2056A000FFF746FF0023A360E36010BD180D0020034A9179D379034A03EB012313807047E8
:2056C000662F0020D2170020F8B50388064615462BB14A2B15D0002303800320F8BD17481A
:2056E00007F06AFC04462CB1A168201D07F00EFC2468F8E7124B01221A704A233380012029
:20570000F8BD8829FBD10D4807F056FC0446002CF3D0231D9D420ED12146084807F056FC82
:20572000084B62691F681A60A2691D460AB1E06990472F60E1E72468E9E700BF200D002042
:20574000C71E0020240D002010B5064B002406481C7007F02EFC2146BDE81040034800F027
:2057600089B900BFC71E0020200D00207805002070B50446E3610B4B049D1B786561A26133
:2057800043B1094D094B2E68201D2B6007F0BEFB2E6000E0A1602146BDE87040044807F0EF
:2057A00028BC00BFC71E0020240D002078050020200D002013B5034C24680094FFF7D8FF02
:2057C00002B010BD240D002070B5094B05461B783BB1084C084B26680430236007F09FFB39
:2057E00026602946BDE87040044807F002BC00BFC71E0020240D002078050020200D00205F
:2058000010B5084B04461B781BB10430FFF736FF01E0C36003612146BDE81040024807F063
:20582000D5BB00BFC71E0020200D002010B50A4B04461B7823B1BDE81040043007F078BBA9
:20584000064807F0B9FB18B1A04203D00068FAE7012010BD002010BDC71E0020200D00205B
:2058600038B5836804460D469BB10A4804600220A07304F10C0098470238012801D9832DAF
:2058800005D121462046BDE8384000F005B80123A37338BD240D00202DE9F8431C4A04461A
:2058A000156889462B4690461A4E3768A34204D00BB11B68FAE7BDE8F88334B3A37BABB1F4
:2058C0000023A37345B1A54204D022468721284607F033FB2D68F5E7A3683BB14C4505D06D
:2058E00034602A46832104F10C009847D8F800309C4203D12268064B05E0134623B11A68FF
:205900009442FAD122681A603760BDE8F88300BF280D0020240D0020002370B51D46094AC8
:2059200001261370084A146854B1E37B33B1A673E573002282212046FFF792FF2468F3E71F
:2059400070BD00BFCA1E0020280D0020024B1878421C1A70704700BFCB1E0020064B8A22BD
:205960001A70064A00231370054A1370054A1360054A1360704700BFCB1E0020C81E0020CC
:20598000C91E0020280D0020240D00202DE9F0411A4D2B780BB1FFF7BFFF194C22783AB3AD
:2059A000184E0C213378184F5943781817F8018001334768806803F01F03013A3370227036
:2059C00068B9124B1E689EB12B780BB1FFF7A4FF30463A46414607F0B0FA3668F3E7B8F13D
:2059E000810F04BF012383733A46414607F0A5FA2B7820781844BDE8F08100BFCA1E002029
:205A0000C91E0020C81E00202C0D0020280D0020024A034B10781B7818447047C91E0020FC
:205A2000CA1E0020F0B50B4E3378202B0FD00A4C0C252478094F1C4404F01F046C430133B6
:205A40003D19A86039556A6033700020F0BD0120F0BD00BFC91E0020C81E00202C0D00202D
:205A600038B5034C256807F068FA256038BD00BF240D002030B40A4C0A4625682B4683422D
:205A80000CD00BB11B68FAE740B101210560817320608381812130BCFFF7E2BF30BC704752
:205AA000280D002038B1837B013B012B9FBF024A0123C37313707047CA1E002010B5084CE3
:205AC000206858B100232360816843689847236823B1BDE810401868FCF7BABD10BD00BF52
:205AE000AC0E002082B0074B02AA42F8043DCD21934202D203F8011BFAE70348002102B074
:205B0000FFF7B8BF862F00208805002038B5FCF713FF0D4C0D4B22780C4DCD2A06D09C4255
:205B200007D20134F7E7AC4203D201342378CD2BF9D0FCF701FFAC423DBF0448001B80B2AF
:205B40004FF6FF7038BD00BF862F00208837002070B5038805462BB1902B0BD00023038016
:205B6000032070BD4FF4A061134807F0CFF990232B8003E0104807F0DBF908B9012070BD04
:205B8000FFF7C4FF0D4C0E4B06461C1BA4B2A0420DD90C4B1B68002B09DD0B4A0B490C4811
:205BA00001F0AEFB224631460A4801F0A9FB024807F0B5F9DBE700BFB00E0020862F002062
:205BC000883700206405002015E320001BE3200065DD20001FE3200010B5044690F84C3090
:205BE000084A013380F84C30802103462030FFF7E1FD054B2246BDE8104019780020FFF7C9
:205C000011BF00BFD95B2000812F002070B503880446BBB1CB2B03D000230380032070BDAC
:205C2000822911D106F07DFFBFF35F8F104B00221E681A60BFF35F8F06F077FF0D4D55F895
:205C4000040F18B9CB232380012070BD90F8453026FA03F3DB07F2D5FFF7E8FD0028EED004
:205C60002B68054A02211846FFF7A4FDE7E700BFCC0E0020BC040020955C2000034A1368EA
:205C8000184310600248FFF70DBF00BFCC0E00209805002070B50446FFF7C8FD20B304F1C5
:205CA00020063046FFF7C2FD0546204607F06CF901280CD1C5B1002523460C4A84F84C500E
:205CC0007E213046FFF776FD2246094B06E058B955B93046FFF794FD2246064B2846BDE8BC
:205CE00070401978FFF79EBE70BD00BFD95B2000822F0020802F0020F8B5FFF727FE304BEE
:205D0000304D1870FFF722FE2F4B304C1870FFF71DFE2F4B2F4F18700023AB602E4B01268B
:205D20006B602168002943D091F84530886C2B4AD90809030A44116803F0070306FA03F3C5
:205D400021EA030313602368254A93F84530D90809030A44116803F0070306FA03F321EA13
:205D600003031360236840F08C0193F84500FCF709FF23681B4A93F84530D90809030A446C
:205D8000116803F0070306FA03F30B431360236893F84530DB0806FA03F33B6054F8043B4C
:205DA00093F8453006FA03F2AB681343AB60B8E70D48FFF75FFEBDE8F840024800F00EB955
:205DC000822F0020C00E0020802F0020C0040020812F002000E100E07D5C200020940D40C6
:205DE00000940D4010940D409805002070B5058804466C2D09D07E2D30D0002D34D1FFF7D3
:205E0000A5FD1C4B18701C4B1D601B4D2E461B4807F08DF9431C01D16C231DE00A28164A02
:205E200007D02B687E2BF2DC5A1C3260144AD054EDE713680025591C1160114A2846D554AB
:205E40000C4B1978FFF7EEFD0E4B2A4685211868FFF7E8FD20B97E23238009E0852907D123
:205E6000054B00221A60D0E700230380032070BD012070BD832F0020D80E0020D00E002065
:205E80004D1F0020240D00200D2810B5014615D00B4C23782BB90B4807F036F948B901238B
:205EA00006E00A2805D1074807F02EF908B1002323700548FFF7F6FD012010BD002010BD07
:205EC0004C1F0020D00E0020A805002008B505490548802207F011F9BDE808400021034818
:205EE000FFF7C8BDCC1E0020D00E0020A80500200022F0B51746154C0125FF2640FA02F353
:205F0000DB071ED504EB4203597814F8123061B1D908090301F1804103F0070301F559213A
:205F200005FA03F341F823700BE0D908090301F1804103F0070301F5592105FA03F341F87A
:205F400023600132042AD9D1F0BD00BF84DD2000F0B5104C00210125FF2640FA01F3DB0749
:205F600014D504EB41035F7814F81130DA08120302F1804203F0070302F5592205FA03F3D1
:205F800017B142F8236001E042F8237001310429E3D1F0BD84DD200070B40E4E00220125C5
:205FA00016F812300C49D80800030C5803F0070305FA03F324EA03040C5020390144086884
:205FC00001320343042A0B60EAD170BC0F20FFF7BFBF00BF84DD200020940D400146014854
:205FE00007F007B8DC0E002038B50546064806F0E3FF04463CB1A068284002D0636803B18B
:2060000098472468F6E738BDDC0E0020014806F0D0BF00BFDC0E00202DE9F0410688054682
:20602000772E31D07E2E40D0002E4ED12B4CFFF78DFC266026462A4B2A4FDFF8B08018704C
:20604000236857F823204AB1002108F80310936880209847336801333360F1E7224A137051
:20606000772320E0214AD256002A12DB1B4A136801331360194B1C4A1B6812789A42F1DCD5
:206080001B4B1B68002BEBD0194A00231360134AEFE7144A002052F82320114B1978FFF717
:2060A000C1FC30B97E232B8014E00D4B1B788B4210D10A4B0D491A688B5C03F07F038B54F9
:2060C0000B4A136801331360D0E7002303800320BDE8F0810120BDE8F08100BFE40E0020AB
:2060E000842F0020C8040020CD1F00207E2F0020E00E0020054A136843F004031360044B34
:206100001B68906943EA002080B2704700700D4014700D4010B5184A136823F00C03136008
:20612000164B01221A601A68012AFCD1144B08221A60E322C3F8142203F505731946114AC4
:206140001368DB07FCD5104C102000232268013802F0010243EA02034FEA43039BB2F5D1E6
:20616000002BF1D0094A180A03F0FE0310601360EF230B6010BD00BF00700D40A8200D400C
:2061800024860840648608409C86084014700D4008B5044806F05BFFBDE80840024806F01A
:2061A00056BF00BFD4050020C8050020014806F096BF00BFC805002038B50E4806F057FF56
:2061C0000446A8B10C4806F052FF0546206028B92146084806F05FFF284638BD00F010FA6D
:2061E00005F19C01A5F8800005F1820000F092FA204638BDC8050020D405002010B50146AE
:206200000446074806F05DFF48B12168054806F042FF2146BDE81040014806F03CBF10BD2A
:20622000C8050020D405002010B501460446094806F047FF68B12468B4F88010204600F05E
:2062400053FA04F19C0104F18200BDE8104000F073BA10BDC805002030B1054B9B68C01A0E
:20626000044B8010584370474FF0FF30704700BFE0050020ABAAAAAA38B50D4D002818BF15
:2062800005460C4806F098FE044668B1211D284606F0AAFF20B12046BDE83840FFF7DCBF40
:2062A000204606F0D1FEEFE74FF0FF3038BD00BF48DD2000080F002008B5024606F057FFEE
:2062C0004AB1431C09D0064B1B5C106843FA00F000F0010008BD104608BD002008BD00BFA9
:2062E000FE1F002050B10368072B06D8044A52F823301B1A5842584170470020704700BF45
:20630000CC0F002010B50446FFF7ECFF08B1A1600AE0064A1368072B07D8581C1060044AE0
:206320002360A16042F82340012010BDEC0F0020CC0F0020F8B505460C460F4E0C272146F7
:20634000284606F014FF431C16BFB368002007FB003006F079FEFFF77FFF0146284606F099
:20636000FCFE044628B101462846FFF7A5FF0028E5D02046F8BD00BFE005002038B50546BD
:206380000B4806F019FEFFF767FF0146284606F0E4FE044601462846FFF78EFF28B92146EA
:2063A0002846BDE83840FFF7C5BF204638BD00BF080F00202DE9F84F0D46904699460646D6
:2063C000002800F09E80504B002908BF1D462846FFF752FF421C07464AD14C4F384606F00F
:2063E00046FE0446002837D14946404604F004F8002800F08680FFF73FFF431C4AD0BB68EC
:206400000C2202FB0032424B195C002A42D0002975D01C5473E0002C57D0BB4255DB1046DA
:2064200006F012FE0246002A3FD1002C69D0DFF8ECB000275BF82780B8F1000F49D10137D1
:20644000082FF7D12046FFF707FF324B00221A542146314806F0BAFD21462F4806F0C9FDA7
:206460002046FFF7F9FE29460746201D06F0B9FE3946304606F071FE04467268002106F08E
:20648000B9F9012322463146224806F07BFE2046BDE8F88F204806F08FFD00240246274619
:2064A000DFF86C90DFF86C80BDE71046FFF7D4FE19F80030002BB2D118F800100029AAD0D2
:2064C000C80748BF01334910F8E7C3B114461F46A5E7D8F80890B9F1000FB0D02046FFF7BE
:2064E000BBFE0146404606F038FE014682464046FFF7E2FE0128A2D15046C8479FE714465E
:2065000095E70020BDE8F88F48DD2000E0050020EE1F0020FE1F0020080F0020CC0F0020CD
:2065200070B50A4604460D4600230146054806F029FE064600232A462146034806F022FECE
:20654000304670BDFE1F0020EE1F00200A4601230146014806F016BEEE1F00200A460023C0
:206560000146014806F00EBEEE1F002008B506F0FEFD431C07D0054B0C229B6802FB00300A
:2065800010B1043008BD002008BD00BFE005002010B507490B88834208DB064C80B222881A
:2065A0000244181A08802280012010BD002010BD341D0020361D0020014B1880704700BF20
:2065C000341D002000487047F00F0020014B1888704700BF341D0020034A044B10781B78A2
:2065E0001844C0B2704700BF0E200020361D002008B5FFF7F1FF014B184408BDF00F002067
:2066000070B50D4D0D4C2A78238806461344802B0FDC0B4906F014F82B781E44FFF7E8FFE4
:2066200022880146304606F00BF828782388184470BD002070BD00BF0E200020341D00205B
:20664000F00F002008B5FFF7C7FF024B1B88184480B208BD341D002010B50146FFF7F2FFFB
:206660004318802B10DC0138084B00B2002805DB1C5C1A180138545400B2F7E7044B012057
:206680001A781144197010BD002010BDF00F00200E20002038B5094D094C1A22002109481D
:2066A00006F0A8F82946204606F09BFD294604F10800BDE8384006F094BD00BF48DD20000D
:2066C0003C2F00204C2F0020044A00231380044A1380044A1370FFF7DDBF00BF361D00201A
:2066E000341D00200E20002038B50C460546FFF7EBFF802C28BF802422462946034805F023
:206700009FFF034B20461C8038BD00BFF00F0020341D002010B50C461A22054905F090FF22
:206720002046BDE810401022024905F089BF00BF4C2F00203C2F002010B50C461A220146C5
:20674000044805F07DFF2146BDE810401022024805F076BF4C2F00203C2F0020024B23F8EC
:2067600010100120704700BF4C2F0020014B33F8100070474C2F002008B5044B0D3803EBAF
:20678000C00006F02EFD012008BD00BF3C2F0020024B0D3803EBC000704700BF3C2F0020A7
:2067A0000149024806F020BD48DD2000442F002070B505460D480E4606F0FEFB044698B1FF
:2067C000012D08D1A3681BB9204606F03DFCF5E73046984705E0002DF6D16368002BF3D07B
:2067E00098470028F0D070BD70BD00BF70100020054B10B51B689847044B5B689847BDE80C
:206800001040034B5B681847F0DB2000C0DC2000DCDC2000084808B5FEF7D6FF0748FFF71D
:20682000ADFD38B1037A01465B0803720348FFF781FDF6E708BD00BF24260020EC0500208E
:206840000146014806F0BABCEC050020F8B531F0020307460E4615462FD10146174806F0C0
:20686000ADFC044650B90346092239461348FFF7A1FD044608B306F0D1FCA080FBF79AFEC8
:20688000237A20602B44102BA8BF10232372022E204608BF0C3506F0AFFCED01002814BFDA
:2068A0000A221922ADB25543A388C2F1640101FB03556423B5FBF3F5A580F8BDEC050020D9
:2068C00038B505460420FFF751FF294604B20E4806F074FC034658B9092229460A48FFF7F9
:2068E00069FD024678B1C48006F098FC908038BD0A226243B0F906105A2000FB0122642141
:2069000092FBF1F2DA8038BDEC05002010B50748FFF734FD044640B121460448FFF700FE8A
:2069200021460248FFF706FDF4E710BDEC05002010B500210548FFF7E5FCBDE810400023D2
:20694000034A4FF4E1310348FEF734BFEC0500201568200024260020F8B5FBF72BFE044638
:206960000F4F00250D2007EB0516FFF711FF314606F03AFC78B10720FFF7F8FE337B834202
:2069800001D00020F8BDB068201AB0F5206F8CBF00200120F8BD0135102DE3D1F1E700BFCC
:2069A0003411002070B5164E00240D20FFF7F0FE06EB041106F018FC114D611C10B91029C7
:2069C0000C46F2D14C1E05EB0111A1F110063CB120391022304605F033FE013C3146F4E7EB
:2069E0000720FFF7C3FE2873FBF7E4FDA8600D20FFF7CEFEBDE870400146014806F0F1BBCD
:206A00003411002030B591B0054600F063F84FF6FF73984202D14FF0FF3052E040220021CE
:206A2000684605F0E7FE284B1A782AB901221A70FFF760FB254B18707DB10720FFF796FE11
:206A400058B9224C23780BB90123237021780720FFF784FE237801332370FFF7A1FE6A46C2
:206A6000C1B21B4806F050FCFFF79AFE28B1FF238DF800308DF8013006E00E20FFF788FE7A
:206A80000146684606F0ADFB0D20FFF781FE014602A806F0A6FBFFF7ABFD0E90FFF796FD74
:206AA0000F90684606F01CFD04464DB1FFF7D4FD0028B0D0FFF786FD0146684606F059FD09
:206AC000204611B030BD00BF102000200F2000206D672000014B1888704700BFFC060020CC
:206AE0002DE9F041012986B006460F46144640F3838003A906F087FD0A2203A904F11000BB
:206B000005F09EFD9DF811300BB1B51C02E0B378F51CA37602AA01A903A806F03DFC9DF886
:206B20001380B8F1000F23D0029B23B16A7815F8023B03EB0223B8F1020FA38309D1304934
:206B4000204606F04EFB6B78237015F8023B637014E0B8F1030F11D105F108021346611E94
:206B600013F8010DAB4201F8010FF9D1154605E02349204606F035FBA4F81C809DF81580A2
:206B8000B8F1000F2BD0019B53B16A7815F8023B03EB0223029A9BB2E3831AB9A38301E03A
:206BA000A38BE383B8F1020F0AD1154904F1080006F017FB6B78237215F8023B637215E0BD
:206BC000B8F1030F12D105F108021346E11D13F8010D9D4201F8010FF9D1154606E0084963
:206BE00004F1080006F0FDFAA4F81E80A81B3B1A8742E363A56300DA002006B0BDE8F0817C
:206C000048DD200070B505460C46102C07D92B68102208496868984750B9103CF5E734B176
:206C20002B68224668680349BDE870401847204670BD00BFA2E320002DE9F04F0646154696
:206C40008FB006914FF0000B069B1B78CBB1069C274617F8013B1BB1252B14D03C46F7E7AA
:206C6000069BA3420DD0069B0699C3EB04084246336870689847002840F01F832378C34441
:206C800023B9584634E3069BA342ECD16378002BF7D039460024084610F8013B0A462B2B78
:206CA00011D006D8202B11D0232B12D144F0080416E02D2B04D0302B0BD144F010040FE0E8
:206CC00044F001040CE044F0060409E044F0020406E0A3F13107082F11D84FF0000801E034
:206CE0000146D8E70A4611F8013BA3F13000092813D80A2202FB0838A8F13008F2E72A2BB1
:206D000009D12B680246002B05F10405B8BF44F00104984601E04FF0000813782E2B1AD10F
:206D20005178531CA1F1300009280ED8194600270A780B46A2F13000092801F101010DD81C
:206D40000A2303FB0727303FF2E72A2904D12F68931C043502E013464FF0FF371A786C2A13
:206D600009D15A786C2A02D144F080040AE0013344F060040BE0682A09D15A78682A03D101
:206D800044F02004023302E0013344F040041A78642A3CD01FD8462A48D00DD8252A5AD0CF
:206DA00003D8002A3FF46DAF57E0412A4AD0452A53D144F4424450E0582A31D004D8472A72
:206DC0004BD144F4A13448E0612A38D0632A44D144F4A06441E06E2A3AD007D8662A22D0CD
:206DE00027D3672A28D0692A11D036E0732A2CD006D86F2A11D0702A2FD144F440742CE003
:206E0000752A07D0782A28D144F4C85425E044F4245422E044F410641FE044F488541CE09B
:206E200044F4B24419E044F4007416E044F4844413E044F4024410E044F481340DE044F416
:206E4000C1340AE044F4E13407E044F4806404E044F4E06401E044F4C0640133069304F4A1
:206E6000E063B3F5806F00F08F8113D8B3F5807F27D0B3F5407F7FF4E7AEAE4B14F4804F70
:206E8000AD4A18BF1A460DF133032868002104351F46B5E1B3F5C06F08D0B3F5E06F00F015
:206EA0002282B3F5A06F7FF4CFAEF2E133680122A24970689847002840F0FF810BF1010B74
:206EC000C2E6002FACBF24F01004012714F40053079304F0E0032ED0402B12D005D8ABB1D0
:206EE000202B21D195F900200DE0602B0ED0802B1AD1073525F0070303F10805D3E9002380
:206F000007E0B5F90020D317043502E02A680435D317002A73F1000108DA524263EB430369
:206F2000CDE90023012304E000220023CDE900230023059329E0402B13D004D8BBB1202BAD
:206F40001DD12A780EE0602B11D0802B17D1073525F0070303F10805D3E90023CDE90023A0
:206F60000BE02A880023CDE90023043505E02B6800221946CDE900120435079BD9E70023C0
:206F8000059300220023CDE9002304F4C053B3F5805F0CD0B3F5C05F33D0B3F5006F4FD1CC
:206FA000DDE900230DF13609CDE9022304E0DDE900230DF1360915E0DDE9022313433AD086
:206FC000DDE902010A22002305F078F9DDE90201303209F8012D00230A2205F06FF9CDE977
:206FE0000201E9E752EA030125D002F00701303109F8011DD10841EA4371D8080A460346DE
:20700000F0E74C4B14F4804F0DF136094A4918BF1946DDE9002352EA03000CD002F00F0020
:20702000085C4FEA131E09F8010D100940EA037002467346EFE70DF13603C9EB030302E013
:207040000DF1360900230293029B41F60802BB4238BFFF1A41F2080302EA040228BF002712
:207060009A4202D1002F08BF012741F60801029B8A4203EB07000DD1DDE90023134309D0AF
:207080002F4A304914F4804F4FF0020A0CBF0B46134602E04FF0000A5346079A9AB1059A18
:2070A00052B904F00602022A0AD0062A264A04BF4FF0010A134606E04FF0010A234B02E03D
:2070C000234B4FF0010A0AEB000290458CBFC2EB08084FF0000814F0010200920DD1E1067F
:2070E00002D54744904608E0414630460593FFF789FD059B002840F0E080BAF1000F07D076
:207100003468524619467068A047002840F0D580029B03EB0B04BB46BBF1100F33681BD97B
:2071200010220C4970689847002840F0C680ABF1100BF1E76DE320007EE32000A0E3200050
:2071400092E320008FE3200097E3200095E3200052E22000B2E32000BBF1000F06D05A469C
:20716000654970689847002840F0A7803368029A4946706854449847002840F09E80009B05
:207180003C44002B39D032E0D5F800900435B9F1000F0AD0CA469AF800300AF101020BB174
:2071A0009246F8E7C9EB0A0A03E0DFF850914FF0060A002F02DBBA4528BFBA46D0458CBF14
:2071C000CAEB08084FF0000814F0010705D141463046FFF717FD00286FD133685246494690
:2071E00070689847002868D10AEB0B042FB141463046FFF707FD00285FD108EB040B23E53A
:2072000050EA010E0ED000F00F0E12F80EE04FEA111C03F801ED4FEA101E4EEA017E70461F
:207220006146EDE7FF1A02BF3022012703F8012C07F1030708BF03F1FF337822B84503F8D6
:20724000012C4FF0300203F8022C88BFC7EB08084FF0230298BF4FF0000814F00104A3F1BF
:20726000030903F8032C04D141463046FFF7CAFC18BB33683A46494670689847E8B95F44D2
:2072800024B141463046FFF7BDFCB0B908EB070BDAE4B8F1010F2B688CBF08F1FF384FF03B
:2072A000000814F0010405F104058DF8203008D141463046FFF7A6FC10B14FF0FF3017E055
:2072C000C3443368012208A9706898470028F4D108F101072CB141463046FFF793FC00280C
:2072E000EBD1BB44B0E42B680435C3F800B0ABE40FB0BDE8F08F00BFB2E3200099E3200086
:207300000FB407B504AA52F8041B04480192FFF793FC03B05DF804EB04B07047FC050020F0
:207320001FB51446074A8DE80300029221461A4602A8CDF80CD0FFF77FFC009B00221A70F8
:2073400004B010BD7DD6200010B501210C20FFF705FABDE81040014B5B681847B4DC20001E
:20736000014B9B68184700BFB4DC2000014B1B6A184700BFF0DB2000014B5B6A184700BFE7
:20738000F0DB200008B5054B1B68984730EA200028BF1520C0F17D0008BD00BFB4DC2000DB
:2073A00007B5FFF713F9032823D0FFF7D9FF00281FDB0E20FFF7ECF90F4905F015FF38B1AE
:2073C0000D20FFF7E5F90C4905F00EFF88B904E0FFF7E6F90028F3D10BE0FFF7BDFA40B9DE
:2073E000FFF7E0FA054B9B68019303B05DF804EB184703B05DF804FB662F0020DCDC2000EC
:2074000070B590F82D400122012CD4BF03340524054602FA04F4FEF76DFE013CB0FBF4F1A3
:207420002B4601FB1401034A05F10C00BDE87040FEF7C0B9BD7420002DE9F0470D4614466D
:207440008B68804693E8C000506B92F82C9005F0BDFD6868FEF7D2FEA968144805F01BFE78
:207460002946134805F017FE606B05F0A5FD40B1002384F82C3084F82D302046FFF7C0FFF6
:207480000BE004F10C00FEF7BBF92146094805F09DFD2146084805F0FEFD4B4642463946D1
:2074A0003046BDE8F04705F0D9BE00BF0406002010060020941200201C0600202DE9FF476B
:2074C0000446002800F0CC80406B05F075FD0546002800F0C5804068FEF7A6FE62490D202B
:2074E000FFF74AF901210820FFF738F9FFF72CFF0028C0F2B380FFF765F85C4E90F802909D
:207500007768FFF75FF88046FFF79CF801464046B847FFF745F9D6F818A00746D0470028DD
:2075200053D15FB1B3680193FFF78CF8019B984748B102280CBF0120042047E0F3699847DE
:20754000002842D1EEE70FB100203FE0FBF76AF86FF00C08F769C0EB0808B84710B1D04763
:2075600050B907E0FBF75EF818EB000FF7D5FBF7E3F9F2E7B84730B1FBF754F86FF01408B5
:20758000C0EB08080BE0736998470028F4D00BE0FBF748F818EB000F04D5FBF7CDF9B847DF
:2075A0000028F5D0B84708B902200FE03369032103A89847032808D19DF80E00B0EB090078
:2075C00018BF01200028BFD000E00120AA68002A46D003283DD8DFE800F0021B0B4394F8BB
:2075E0002C300020013384F82D0084F82C3030E0002384F82D3094F82C300133DBB284F829
:207600002C30127A9A421DD822462946022022E094F82D300133DBB2052B83BF002384F8FB
:207620002D3094F82C3084F82D3084BF013384F82C3094F82C10137A994203D32246294600
:20764000012008E02046FFF7DBFE686805F07FFD06E022462946FFF7EFFE01E00520B5E769
:2076600004B0BDE8F08700BF662F0020F0DB20002DE9F04107460E208846FFF789F8454B44
:2076800005461A78444C22B901221A70FEF732FD2070237813B9404B01221A7021780720E2
:2076A0004B1C2370FFF75AF801210C20FFF756F83A4805F081FC044640B12946201D05F026
:2076C00093FDD8B9204605F0BFFCF4E7344805F0CEFC044640B32946201D05F082FD0023DD
:2076E00004F13000606384F82C3084F82D30236305F05FFC2146294805F07BFC606B05F017
:207700008DFC072810DC274805F0B1FC054698B9606B05F083FC38B92146204805F056FCD2
:2077200021461F4805F0B7FC41463846BDE8F0410123042205F092BD1B4805F098FCA86076
:2077400008B3FEF739FD6860C8B10620AE68FFF70DF8C0B208B1307201E00823337286E8DF
:2077600080012946606B05F044FC606B05F024FC85420DD12046BDE8F041FFF741BEA96852
:20778000094805F088FC2946064805F084FCBFE7BDE8F081192000202220002094120020B0
:2077A0001C060020100600200406002008B5054805F04DFC044805F04AFCBDE80840034820
:2077C00005F045BC10060020040600201C06002010B5074A13880344B3F5A06F9FBF0549B6
:2077E00013800C7800199ABF08700120002010BDB827002035200020B0F5A06F9DBF024BA9
:207800001880012000207047B827002005289ABF024B33F810000020704700BF381D0020C0
:207820000C220249024804F00BBF00BF441D0020381D0020044A00231380044A1370044AEF
:207840001370FFF7EDBF00BFB8270020352000203720002010B5064C0C220021204604F099
:20786000C9FF002323814FF6FF73238010BD00BF441D00202DE9FF47154D6C4605F10803A1
:207880000FCB95F807808DE80F0000F0FFFE114805F092FB0646DFF84090DFF840A08EB1C5
:2078A000776857B1B9F800309AF800202C3B38329BB22A4441462046B847304605F0C4FBAC
:2078C0000646ECE7FFF7B6FF04B0BDE8F08700BFC827002068130020B82700203520002031
:2078E000F8B5204B204E1B7906F11805F371337E06F10804FF2B08D194E80F0085E80F0038
:207900002946204600F0A4FB1BE02746AE46174A3B4603CB7345106051601F4602F10802BC
:20792000F6D195E80F0084E80F00104B104C03F11005224618685968083303C2AB421446C9
:20794000F7D100F0A3FE0B4B81221B782833F418F25400236370638006F031F8C0436080BA
:20796000F8BD00BF4C260020C8270020501D0020E02700203520002038B504460B480D46EC
:2079800005F01AFB50B10379A34204D143799D4206D0FF2B04D005F057FBF3E7012038BD00
:2079A0008368002BFAD09847002038BD6C1300200146014805F01DBB6C1300202DE9F0470B
:2079C000414B07461B780E463A2B904609D13F4B1A783F4BD356002B03DBBDE8F047FFF728
:2079E00029BF3C4B3C4C1B6B98473C4A2546914604F1100E234603CB7345106051601C46DE
:207A000002F10802F6D1DFF8E8A0354CBAF800202146303292B2B2F5A06F28BF4FF4A06201
:207A2000AAF8002004F13000303A04F07FFE602323700023637063803A23A371294B1B791C
:207A4000E371238973B9638963B9A38953B9E38943B9238A33B9638A23B9A38A13B9E38A8A
:207A6000002BBAD0204B0FCB85E80F0099F80030FF2B03D1042FB0D1022EAED1134D1749AE
:207A8000194800F0E5FA95F80090404609F12803E218E754567005F098FFBAF80010134B47
:207AA000283943F8090089B2A3F12C0005F016FE2B7828331C440023638005F080FFC04342
:207AC0006080BDE8F08700BF3720002035200020F0270020ECDC2000E0270020501D00202C
:207AE000C82700204C260020D0270020F4270020B82700202DE9F047824689469046184C76
:207B0000602222703A22A271164A9DB21279291D002704F11806204689B2E2716770678076
:207B200005F0DCFD10225146304604F089FD314604F1080000F08CFA0B4B2C351B7828332F
:207B40001E1903F8049086F80180778005F037FFC043064B70801D80BDE8F04700F098BB3E
:207B6000C82700204C26002035200020B827002008B50448FFF71CFFBDE808400248FFF7A9
:207B800017BF00BF28060020340600201FB50C46074B01469B696846984710222146684611
:207BA00004F01CFDB0FA80F0400904B010BD00BFECDC200070B506460A480D4605F0FCF92D
:207BC000044668B11DB9204605F03EFAF8E7A3689E42F8D129462046FFF7D8FF0028F2D0BA
:207BE000204670BDF414002030B505460C460E4B85B05B696846984721462846FFF7DAFFC5
:207C0000694604462846FFF7D5FF11232CB1844205D0013B03D06469F8E7204602E0031B66
:207C20005842584105B030BDECDC20002DE9F843904606460F469946FFF7BCFF414604465E
:207C40003046FFF7B7FF0546B8F1000F0CD058B902464FF0FF3341463046FFF7E7FF054635
:207C600010B90020BDE8F8837CB9164805F0FFF904460028F5D0002343610146124805F0E7
:207C8000B8F9124A1368013313600822B918A660C4F8049004F10C0004F0D2FC39463046AC
:207CA000FFF7A2FF50B1D4F81480394665613046FFF79AFF18B9C4F8148000E06561204655
:207CC000BDE8F88340060020F41400207013002008B5054B002205481A6005F0B8F9BDE812
:207CE0000840034805F065B97013002040060020F4140020F8B50546154805F05DF90446C3
:207D0000144E24B3204605F09FF963680746ABB90F4805F051F928B143699C4202D005F0FB
:207D200093F9F8E721460A4805F050F921460A4805F0B1F93368013B336006E05A1C04D0EF
:207D4000AB428CBF5B1B002363603C46D9E7F8BDF4140020701300204006002070B50C48EE
:207D600005F02AF904460B4D84B1204605F06CF906462146064805F029F92146064805F092
:207D80008AF92B683446013B2B60EDE770BD00BFF41400207013002040060020004870479C
:207DA000601D00202DE9F341154D009104460E4690461F460195034620220321114805F07D
:207DC00008FD01282B4616D12A6804F11001107020462A68023250F8044B884242F8044BEF
:207DE000F9D11868089B86744361099B80F813800777836100E0002002B0BDE8F08100BF60
:207E0000FC1400204827002070B506460C4B0D4C03F1600523602068A8420FD203781BB904
:207E2000236820332360F6E7827C3146D208023004F0D4FB0028F3D1012070BD002070BD39
:207E400048270020FC14002013B5084C802300930194034620220321054805F0BAFC08B914
:207E6000206800E0002002B010BD00BF001500206426002030B548F2FE040C4B0C4A03F19B
:207E80006001136013688B420CD21D783DB1451C02D09D7C854202D15D88A54203D020338D
:207EA0001360EFE70023184630BD00BF642600200015002037B5104D80230093044603465B
:207EC0000195122205210D4805F083FC01282B460ED12A6804F11001107020462A6802322C
:207EE00050F8044B884242F8044BF9D1186800E0002003B030BD00BFF8140020E826002095
:207F0000F7B5214C80230093054603460E4617460194202203211D4805F05BFC012830D1F7
:207F20002A46236805F1100118702368023352F8040B8A4243F8040BF9D12068C77416B92C
:207F40000123037505E0002303753146183004F0D6FF23680E480121997402234370FF2274
:207F60000023027043808380C38003818372C17202736B7B4373EB89C381FFF79BFF2068D6
:207F800000E0002003B0F0BD0015002064260020701D002013B5084C8023009301940346C5
:207FA00012220521054805F014FC08B9206800E0002002B010BD00BFF8140020E826002034
:207FC00038B50546C8B10D48022200244270FF230122C27244808480C4800481847203732B
:207FE0000370EB7B43732B8AC381FFF7D3FF044A106008B105F015FC2C7038BD701D002076
:20800000F814002070B50F4C0F4B2646236003F160052068A8420ED2037843B1037D33B9E5
:208020001830FDF7F5F910B13068FFF7C9FF236820332360EDE700F08BFFBDE870400348B0
:2080400004F06DBF0015002064260020A82700202DE9F84F48F2FE030A8805469A420F468C
:2080600023D00A78FF2A20D01C490024A04689469B461B4A0A6002F1600AD9F8006056455B
:2080800017D233786BB1B37C012B0AD173885B4507D0B11C384605F0DEFB80459CBF3446D5
:2080A00080462036C9F80060E7E70120FFF7E2FE04464CB92C806C80AC80EC802C816C81A5
:2080C000AC81EC81BDE8F88FA31C123453F8042BA34245F8042BF9D1BDE8F88F00150020DF
:2080E0006426002070B5094EB0684508FEF702F80446FDF7FFFF2402B268A4B22044B0FB25
:20810000F2F302FB1300284470BD00BF4C26002073B53D4B1A88B2B95A88A2B99A8892B919
:20812000DA8882B91A8972B95A8962B99A8952B9DA8942B9FD2119805A809A80DA801A81AA
:208140005A819A81DA81314C00F0C4F900F074FE602200212E4804F04DFB0021F82220464C
:2081600004F048FB2B4B20221A702B4B18221A704FF4A06323604EF6602340262671A360BC
:20818000FFF7B0FF4FF47A73236148F2FE03314640F2FF260025E0602575204C2A462380FF
:2081A00065802B46A580E580204601950095FFF7F9FD20461A4905F038FB29460122204679
:2081C000FFF79EFE4FF480732046E38126806580A580E58025816581A581FFF76BFE4FF4A4
:2081E0000073204626806580A580E58025816581A581E381FFF75EFE0A480C2102B0BDE853
:20820000704004F083BE00BF601D00204C260020482700204527002044270020701D002038
:20822000C0270020A827002013B5044601460120FEF7BEFA38B92046054BDB68019302B0F1
:20824000BDE810401847FFF7F5FA002002B010BDDCDC200010B5144600F048FA18B1024B07
:20826000C4611B68836110BD240D0020002108B50846FEF79DFA024618B902210348FDF721
:20828000EFFBBDE80840FFF7D5BA00BF4C06002030B5344B89B01B88002B60D0B3F5A06FFF
:2082A0003CD8314C238B6BB9638B5BB9A38B4BB9E38B3BB9238C2BB9638C1BB9A38C0BB97C
:2082C000E38C5BB3294D6B6B984738B3237EFF2B21D02748FFF7B8FD10B100F04BF83EE023
:2082E0002B6C04A89847E0B92148FFF78DFD90BB1F4805F078FB044618B900F011FE68B18D
:208300002BE005F06EFB40BB2046EB6C9847204605F06BFB02E00020FFF786FFFFF78AFAA5
:208320001DE004AC204605F0DDFA054678B9214602A805F085FA0623019500932A46012377
:2083400002A9204600F0D4F805460028E6D0284600F0EEF8E0E7064CE4E70446E2E709B033
:2083600030BD00BFB8270020C8270020ECDC2000E027002010B5064C238843B1012000F06D
:20838000FBF923881BB1BDE81040FFF781BF10BDB827002038B50446238810463BB140F225
:2083A0003F32934215D000232380032038BDFDF7CDFA214B40211870204804F0A7FD00F0B4
:2083C00049F91F4B5B68984740F23F332380012038BD022902D1FFF7CDFFF5E70BD8012949
:2083E000F2D10028F0D0174B1860052000F0C4F9FFF74EFFE8E787290CD1134B002103F510
:2084000080729D692033A84208BF23F8101C9342F7D1D9E78829D7D1084B984202D104F06F
:2084200087FDD1E7094B9842CED104F081FD0028CAD0FFF7E7FDDBE7852F00200415002056
:20844000ECDC2000CC2C0020DC2C0020A8270020074B1B680BB1283302E0064B1B68183318
:20846000186820B15A68044B1978FDF7F9BA7047D42C0020CC2C0020852F002038B5094C5D
:2084800069B1B2F59A6F0ADC074D22802860074804F04CF9042000F06FF9FFF7F9FE00239A
:2084A000238038BDD82C0020CC2C0020F827002010B5044640B1054B9B6C98472146BDE867
:2084C00010400348FEF72CB810BD00BFECDC20005C06002008B5FEF72BFABDE80840024923
:2084E0000248FDF70FBF00BFB18420005C06002070B504461E469DF81020059B0A48FDF75C
:2085000059FF054670B120462B4604F1100250F8041B904243F8041BF9D1044B6E742846BD
:208520009B6C9847284670BD5C060020ECDC200001460148FEF71AB85C0600200148FDF73A
:208540001DBF00BF5C06002001460148FDF7F2BE5C0600200146014804F030BE5C06002054
:2085600073B5124D0646284605F0BCF8104B20221C7805F10801001B80B2ADF80600BDF834
:208580000600304480B205F0FEF9BDF8062004F1280192B2294405F0F6F910B140BA80B2C8
:2085A00001E04FF6FF7002B070BD00BFC827002035200020F8B5064645781B4FED000835BA
:2085C0000221481CA8422ADA7218547802340C44A5421ADB735C012B1FD002D3632B02D04F
:2085E00006E081B2EDE73046BB6B9847A8B918E003F0C003802B08D0C02B02D0402B0CD17C
:208600000FE00A4B1B7EFF2B0BD0084B0221D21A0420FFF7D3F90220F8BDA1B2D1E700202E
:20862000F8BD0120F8BD00BFECDC2000C827002008B5074AD379012B06D8002211460320F9
:20864000FFF7BCF9002008BD013BD371012008BDC827002008B5FFF7FDF8FFF759FDFFF72B
:2086600087FA00F0E3FB074B4FF480621A800023194605481A182033B3F5807F1182F9D142
:2086800008BD00BFA01E0020DC2C002070B5134E337813B3124D03F127012A88914203DB7B
:2086A000BDE87040FFF7C6B80E490F4C0978283AA17103F128012144D21A04F1280004F0CB
:2086C00035F830784042FFF783F829882046BDE87040283989B205F001B870BD352000207A
:2086E000B827002037200020C82700201F4AF8B5144613881E4F01339BB2B3F5FA4F28BF24
:208700004FF480531A0A42EA032292B20025EE19368A9642164EEED02035B5F5807FF6D1DF
:20872000238000235D017419278A47B92282618250B901461022204604F05CF810E00133FC
:20874000082BEFD10020F8BD0346274600F1100E3A4618685968083303C273451746F7D1EE
:20876000044B35441B7920462B75F8BDA01E0020DC2C00204C26002004282DE9F74F00F0D2
:20878000B1819A499A4C9B4A05280C6014608B4613D1994B1B681B8A002B00F0EA810C3C5D
:2087A0001460964A002313809548964A03601380954B08220C601A7092E114F83C3C3C3C8D
:2087C00003F0F003602B40F0D481204604F08AFF8C4D2B888342C0F0CC81204604F082FF97
:2087E0008A4A283081B2002320462980137004F0A6FF002800F0BD81227A854B04F12809E4
:20880000C9EB0000FF2A1870984600F0B28101230DF107022988204604F06AFF50B19DF8BD
:2088200007303BB9FFF7C6FE012800F0A281022800F09B817748FFF707FB002863D1754811
:20884000FFF7A8FB00285ED1227E734BFF2A34D048F2FE00198B81422FD0198981422CD09E
:2088600071B9598961B9998951B9D98941B91B8A33B9618A684B19B9998A09B9DB8AE3B16B
:20888000218B654B79B9598B69B9998B59B9D98B49B9198C39B9598C29B9998C19B9DB8CEC
:2088A000B3F5807F09D02B88B3F5A06F40F269814FF4A0620021022095E048F2FE032189D0
:2088C000994240F05681218B534B81B9598B71B9998B61B9D98B51B9198C41B9598C31B90A
:2088E000998C21B9DB8CB3F5807F00F04281FF2A00F03F814748FFF787FA0246002840F039
:2089000038810221DAE0454F00233B700DF1070201232988404804F0EBFEBA460646002EA4
