:020000040020DA
:20200000503A00208D22200083D4200081D4200081D4200081D4200081D4200000000000FC
:2020200000000000000000000000000081D4200081D420000000000081D4200073D52000D9
:2020400085D520008BD5200091D5200097D520000000000079D520007FD5200081D420001D
:2020600081D42000000000000000000000000000000000000000000081D420000000000076
:20208000000000000000000081D4200081D4200081D4200081D4200081D4200081D4200082
:2020A00081D4200081D4200081D4200081D4200081D4200081D4200081D4200081D4200078
:2020C00081D4200081D4200081D4200081D4200081D42000000000000000000000000000B7
:2020E000000000000000000000000000000000000000000000000000E5362000F53620005A
:202100000000000000000000000000000000000000000000000000000000000000000000BF
:2021200000000000000000000000000000000000000000000000000000000000000000009F
:2021400000000000000000000000000000000000000000000000000000000000000000007F
:2021600000000000000000000000000000000000000000000000000000000000000000005F
:2021800000000000000000000000000000000000000000000000000000000000000000003F
:2021A00000000000000000000000000000000000000000000000000000000000000000001F
:2021C0000000000000000000000000000000000000000000000000000000000000000000FF
:2021E0000000000000000000000000000000000000000000000000000000000000000000DF
:202200000000000000000000000000000000000000000000000000000000000000000000BE
:2022200000000000000000000000000000000000000000000000000000000000000000009E
:2022400000000000000000000000000000000000000000000000000000000000000000007E
:202260000000000000000000000000000000000081D42000C9352000ED352000E12A20005E
:2022800065382000A926200081D4200008B5094BFF221A600848094A4824E369121A084999
:2022A00098470848084AA369121A0021984703F097FBFEE7B4200D404000002085080020CD
:2022C000E8F42000880800204A32002007B5002000F044FA012000F041FA1249002000F0F5
:2022E00009FB114B0122104604210093032301F013FB04F079F9002004F09AFA01F08AF9A6
:2023000000F012FC00F02EFC0821084801F0BEFA04F080F862B6002003B05DF804EB0BF0ED
:20232000B3B800BFA5652000A08601002A32002073B51A4B1B68022B08DD1949194A1A485D
:2023400005F06CFB19491A4805F068FB6846082101F09CFA174E9DF807309DF80650F46A2D
:2023600043EA05254AF6CD310220A04729460320A0471A210120A047736B082269460B2021
:2023800098470BF0B9F800F0C1F800210A4803F0FFFE04200BF078F802B070BDDC06002036
:2023A000E4EB2000D4EB2000E9EB2000F8EB2000FAF0200070E9200030070020034B00220E
:2023C0001A60012243F8402C704700BF80C00D40054B1A6842F020021A601A6842F0100250
:2023E0001A60FFF7EBBF00BF00C40D40813801289ABF024B18780020704700BF06210020FE
:20240000812837B532D1E721402001F0FFFA01A9402001F00FFB044628B99DF8043003F0E6
:20242000C703022B02D04FF0FF302AE002ADE62305F8030DE72140208DF8043001F0E6FAA4
:202440002946402001F0F6FA9DF80530022203F0380343F0020301A940208DF8053001F0C3
:2024600005FB094B01221A7020460AE00628DAD1054B1B78002BD6D0FE21402001F0C6FA4E
:20248000002003B030BD00BF0621002008B5184B1B784BB3022803D1BDE808400BF02EB8F9
:2024A000032803D1BDE808400BF03DB804280AD10BF024F844F2A4435843000CA0F59250E7
:2024C0000D3800B208BD05280ED10BF02CF843F2D403584342F21073000CA0F5167000B2DE
:2024E0009842A8BF184608BD4FF0FF3008BD00BF06210020044B1868C0F30720030904BFC7
:202500001030C0B2704700BF1C300D4008B5FFF7F1FF014B1B6808BD1C300D40F8B500F08D
:2025200081F80F4B0024D3E900673A46B04238BF7A1C15460443C3E90045DFF828E0DEE949
:202540000001821B61EB070312196B41CEE9002303F01AFC18B1BDE8F84003F099BBF8BD2B
:2025600088080020900800200D4B0E4AE0215A600D4A82F82310002207219A6019600B4973
:202580000B6843F001030B60094B1A60042243F80C2C012243F8082C0F22DA62704700BF4A
:2025A00010E000E047E8010000ED00E008200D400C000340034BD3E90023100A40EA0360B6
:2025C000704700BF88080020034BD3E90023D00B40EA4340704700BF90080020054B18602A
:2025E0001C3B1A6842F001021A601A68D207FCD4704700BF2800034010B5064C236823F092
:2026000001032360FFF78AFF236843F00103236010BD00BF10E000E0014B1868704700BFD1
:20262000E00C0020074B084A196804331B681268120442EA0323054A0B43106843EA00602B
:20264000704700BF40500D4048500D404C500D4010B50446104A1368DB07FCD572B6FFF7A4
:20266000E1FF231A062BD8BFC41D0C4B220E1A60C4F3074243F8042CC4F3072243F8082CD9
:20268000E2B243F80C2C62B6054B4FF400321C60044B1A6110BD00BF50500D404C500D40AE
:2026A000E00C002000E100E008B501F041F8074B00221A60064B4FF40032C3F89021C3F88B
:2026C0009020BDE8084003F087BD00BFE00C002000E100E0064B1B681B075FBF054B1868B6
:2026E00080F00800C0F3C00048BF0020704700BF18C0004018D00040164A2C2303FB002342
:202700004FF6BF7270B5DC680546236C62649BB213F050020DD0104EA369DB0608D456F846
:2027200025301BB12068C0B29847F5E72368F3E770BD13F4D06F0BD04FF440732363FF2372
:202740006360E36AE262E362236B43F00103236370BD00BF18E92000E40C002001282DE939
:20276000F74F064600F2B6802C2545435B4F7C1994F92080B8F1000FC0F2AC8094F9229085
:20278000B9F1000FC0F2A680554801F047F8554A7B591168E5680B4313605168636894F9D0
:2027A00021A00B4353609168A3685FFA89FB0B4393600023C5F8C83F23690AEBC8021A6089
:2027C00094F92330227D00939DF8003058461946019300F039F9019B08221946584600F0BC
:2027E00029F9414A4FEA0939009959F80200012303FA01F1014349F802104FEA083858F852
:20280000020003FA0AF1014348F802105021A963A96B94F9240041F4D061A9630221696385
:202820004FF440712963A16900286962E169A9624FF07001E962154616DB94F92510A2F526
:20284000A64241EAC0041C3A1460040362598B40134363510022C9B2C0B200F0EBF8234AF1
:20286000136843F4004313602C2303FB067393F92640002C1BDB93F927A05FFA84F85FFA95
:202880008AF9012249464046240300F0DDF86259012303FA0AF3134363510822494640466F
:2028A00000F0C8F8114A136843F4804313602C2303FB0676F268136B43F00103136396F849
:2028C00028300122590903F01F0302FA03F3084A42F8213003B0BDE8F08F00BF18E9200080
:2028E000D526200028200D4020940D4030D0004000E100E001289CBF014B43F82010704734
:20290000E40C0020012808D8044B2C2202FB0030C3689A699206FCD41960704718E92000ED
:20292000014B00221A60704700500D40014B08221A60704700500D40024BA0221A6050221C
:202940001A60704700500D40014B024A9A60704700ED00E00020200038B5164D164C2B680E
:20296000012223F040032B602368062123F040032360032000F05EF82B68012223F0800313
:202980002B602368072123F080032360032000F051F80A4A0A4B0B491A600A680A4B1340F3
:2029A000084A002BF9D113685901FCD413685B01FCD538BD20C40D4000C40D400101020048
:2029C00000200D4004200D40000001012DE9F84304464FEA0438DFF83C9008F1804606F5AA
:2029E000592600F0A5FED6F8187458F80930E50023FA05F447EA0400C0B2E4B2A840FFB211
:202A0000AC4003F07FFEC6F81C7448F80940BDE8F88300BF18970D40034A044B1A60044B43
:202A2000803A1A60704700BF80400D40F00C0020EC0C0020034B01EBC0011B6843F82120B1
:202A4000704700BFF00C0020034B01EBC0011B6843F82120704700BFEC0C00200E2870B501
:202A60000BD1154B154E1C6844F002051D60356825F03F0343F001033360114E336823F0B0
:202A8000FF031A43114301430E4A316013681B06FCD50D4B0D4A1B6812680E2803F0FC0315
:202AA00043EA022308BF054A1BB204BF1560024A184608BF146070BD34000144F48608405C
:202AC00008700D4000700D400C700D4010700D40024B1868B0FA80F04009704700B70840F8
:202AE00010B5074B4FF40042064CC3F89021C3F89020206818B103F063FB0023236010BDFC
:202B000000E100E0F40C0020064A136843F002031360536843F002035360936843F0020385
:202B20009360704748200D4007B50C4800F076FEFFF7EAFF0A4B1A6842F002021A6000223A
:202B40000192019A0F2A02DC019A0132F8E71A6822F002021A6003B05DF804FBD12A20004F
:202B600054200D40064A136823F002031360536823F002035360936823F0020393607047FB
:202B800048200D402DE9F0410E464FEAD0084FEA083400F00701012704F180448F4016F0B1
:202BA0000C0304F559246FEA070505D1D4F810342B40C4F810342DE0042B0DD1D4F80434BC
:202BC0002B40C4F80434D4F808342B40C4F80834D4F80C343B430EE0082B0FD1D4F804349C
:202BE0002B40C4F80434D4F808342B40C4F80834D4F80C342B40C4F80C340BE00C2B09D19C
:202C0000D4F804342B40C4F80434D4F808343B43C4F8083416F0030204D0022A02D0012ACB
:202C200003D104224046FFF705FF16F0800605D1D4F810342B40C4F810340AE04EB1D4F888
:202C40001034074A1F43012303FA08F3C4F810741360D4F820341D40C4F82054BDE8F081EB
:202C600000E100E0074B93F90020002A08DB064AED211160E32111601A7862F07F021A7055
:202C8000012070470B210020388808400B4A13689907FCD4094B1B685B065EBF084BED2211
:202CA0001A60084B1B6813B1054BEF221A60064A0120137803F07F03137070474C86084060
:202CC000388808402C8608400B21002010B50A4B04461B6813F03F0302D0FFF7D7FF0123B8
:202CE00004EB840205492C3A0A600BB1FFF7BAFF034B1C7010BD00BF488608403C86084050
:202D00007B08002010B50B4B1B68990603D1FFF7A9FF012300E0002307490A68D207FCD5CE
:202D2000064A1468C4F300140BB1FFF7AFFF204610BD00BF48860840648608404C86084048
:202D4000044B186800F02200A0F1200358425841704700BF4C860840024B186800F040001E
:202D6000704700BF4C86084038B50C46002900F09480172800F29380DFE800F00C191C1EFD
:202D8000253B44565B7074919191797B7D8091828486888C434B186810F0FF007BD0424B40
:202DA0001B6813F0030F0CBF012302236FE03F4B1B786CE03E4B00E03E4B1A68043B1B6879
:202DC00043EA022363E000230B603B4B364A1B6803F001030B601268920644BF43F0020398
:202DE0000B60364B1B78002B52D00B6843F004034DE0334B00201B780860002B48D001232D
:202E00000B6038BD2F4B30491A680023D2B201EBC3000079904203D82B4A52F8333036E029
:202E200001330E2BF3D126E0284B1B685BB2493B2DE0274B1B689B0603D1FFF713FF012232
:202E400000E000222348036859B28031FBD0493B5DB20AB1FFF71AFF256019E01E4B93F943
:202E6000003014E01D4B1B7803F07F030FE00B230DE01A230BE06FF0170308E0072306E01B
:202E8000032304E0202302E00C2300E008232360002038BD0020206038BD022038BD012064
:202EA00038BD00BF2C860840248608407B080020CC850840D4850840008608400A2100207C
:202EC0007A08002040860840A8E92000588608404886084060860840092100200721002095
:202EE00038B505460C46124A13689B07FCD4114B93F90030002B01DBFFF7B4FE0E4BEE22CF
:202F00001A60691EA21C43F8102C2144022000F09BFB013C094924012143022000F0A6FBA3
:202F2000022000F0ADFB022000F0C2FB002038BD4C8608400B2100203888084002C001C002
:202F4000F8B5214B93F90030002B0DDBFFF76AFB0546FFF787FE6FF00904641BFFF762FB2A
:202F6000C442FBD4012600E00026184B1B7823B9174D2B68990604D405E0FFF7C3FE00284B
:202F8000F6D10220F8BD134BE9221F461A6004242B689A0707D4013C14F0FF0403D00620D7
:202FA000FFF71CFBF4E72B689B0703D4EE233B60012403E02C6814F00204FBD10EB1FFF74A
:202FC00065FE2046F8BD00BF0B2100207A0800204C86084038880840214B1870002834D084
:202FE000204A13681B03FCD51F4B1A6842F002021A601A6842F001021A601A681A495007F4
:20300000FBD50A6822F001020A601968164A4907FBD4116841F002011160116841F0010125
:2030200011601A685207FCD5104A136823F004031360D2F8A83123F00403C2F8A8310C4B6A
:203040004FF40052C3F890207047084A136843F004031360064B4FF400521A61704700BF68
:203060000A21002004200D40048808408C86084000E100E00B280DD1082A0DD161B1074B20
:20308000074A083111F8010D43F8040F9342F9D1002070470120704702207047A4850840A9
:2030A000C485084070B52E4D2B6813F0400307D02C4E3368DCB21B0604D52B4BED221A6093
:2030C000002070BD042CF8D9023C8C42F5DCE4B2032C21D001190139032000F0BDFA631E70
:2030E00022491B011943032000F0C0FA032000F0C7FA032000F0DCFA032000F0E5FA002849
:20310000FAD131681A4B493949B219703368194E18063370D1D506E0336803703368437035
:2031200033688370EDE789B2042003F0A5FE3178032001F07F0103F09FFE0F4B1B786BB95A
:203140002B685A060AD5064B1B681B0603D50B4803F036F802E0044BED221A60204670BD0F
:203160004C860840288808403888084002C0010C09210020072100200A2100202005002044
:203180002DE9F0412E4F3D7815F0010555D12D4B01241C605C609C60A3F59323A3F5147347
:2031A000F8221A600922C3F89021152270331A6003F59B230B2203F59E731A60A3F59B23D4
:2031C000214EA3F5A6731C604023336033684FF07F0843F0200333601C4BD5221D60C3F87D
:2031E00048809A631A4B1878FFF770FD33684FF4804223F00C033360164B0220C3F800809F
:20320000154B1A6100F048FA1449022000F024FA032000F041FA1149032000F015FA104BEF
:203220001878FFF7D9FE29460E4802F0B1FF3B78204623433B70BDE8F0810020BDE8F08154
:203240000B210020A8200D4024860840088608407B0800209486084000E100E02888084087
:203260000A2100202005002038B503880446CBB140F24742934203D000230380032038BD5F
:20328000194B18781A4628B11B7873B1174B1B7858060AD5822908D1137843B1134B1A7825
:2032A000520614D440F247432380012038BD03F099FD03F02BFD8021FFF7F4FE0028EDDD3A
:2032C00080B203F007FD0A4BDB689847E6E700221A70084B1D68FFF7D9FCFFF751FFAB063B
:2032E000E0D0FFF7BFFCDDE70A2100200B21002040EA2000488608400B282DE9F84F0E46CE
:2033000010D1082A40F0828000297FD0414B424A4E1E53F8041D934206F8011FF9D1002023
:20332000BDE8F88F0C286ED1042A6FD100296DD03A4B3B481A68DFF8F8C022F007021A606C
:203340000268DFF8F0A042F008020260DAF80040DCF800101A68DFF8E0E022F07002314FEB
:203360001A60DEF800203D68E4B2090244EA056401F47F411204214302F47F020A432A499A
:203380000024D1F800805FFA88F544EA02081A68A94622F0070242F001021A60026842F0DB
:2033A00008020260DAF80000DCF800201D68C0B225F0700545F010051D60DEF800303D68E8
:2033C000120240EA056002F47F421B04024303F47F0313430A6844EA030A5FFA82FBFFF7E7
:2033E00021F9B8EB0A0869EB0B094FEAC93105460E4A00234FEAC83041EA584109F022FB92
:20340000281A30608BE70120BDE8F88F0220BDE8F88F00BFC8850840A88508401088084024
:2034200004880840208808401C8808400048E80118880840148808402488084013B50C46D1
:203440000D2800F2A180DFE800F007464E5259757B8F9F9F9F9F9F95012939D011B9FFF705
:2034600015FC85E08B1E012B00F2908001A90020FFF77AFC022C019B19D1022B78D05A1E28
:2034800053425341434A1370FFF700FC424B434A1968116042221A60D3F8C010404A116081
:2034A0001822C3F8C020E922C3F8142260E0022B5ED13C4BEF221A60384B1A68364B1A608D
:2034C000374B1A68384B1A60324B1B78002B4FD0FFF7C8FB4CE0A1F10B030F2B56D8C8B22A
:2034E000FFF7F4FB44E08CB2E2B2304B02E08CB22F4BE2B2240A1A605C6039E031F00703A0
:2035000044D12C4B11F0010F1A68C1F3800014BF42F0010222F001021A601F4B11F0020F45
:203520001A6814BF42F0200222F020021A60FFF753FD1DE031F0010028D11F4B197026E0DD
:2035400001F118031F2B21D81C490D2351F83300DA00844204DC194B13441A79184B0EE0EB
:2035600013F1FF33F2D203E0CCB2164B49341C6000200CE0084B1A6819B122F00C021A6051
:20358000F6E742F00C02FAE7012000E0022002B010BD00BF0821002024860840FC0C002069
:2035A000F80C002038880840E4860840C8850840D0850840008608407A080020A8E92000DA
:2035C000408608405886084008B5054B1B7813B9044802F0F5FD044B00221A6008BD00BFAC
:2035E0000A2100202005002034880840064B07481A68042A1FBF06490A7842F040020A704A
:2036000000221A6002F0DCBD2C880840200500200B21002010B5094C40220021204609F0FA
:20362000FFFC074B01221A605C60064B4FF480425A604FF400425A6010BD00BF00000020E9
:2036400004F00F4000E100E003289EBF014B0001195070470000002003289EBF024B03EB8E
:2036600000104160704700BF0000002003289EBF024B03EB00108160704700BF00000020B9
:20368000032806D8034901220B6802FA00F018430860704728F00F40032806D803490122FA
:2036A0000B6802FA00F018430860704720F00F40032806D8034901220B6802FA00F01843A0
:2036C0000860704714F00F4003289FBF044B03EB0010806800F0070088BF0020704700BFE6
:2036E00000000020024B4FF0FF321A60704700BF04F50F40014B01221A6070474CF00F408A
:20370000094A1368084913F4801FFAD1074B1A6822F480321A600A68D203FCD41A6842F434
:2037200000321A60704700BF04200D4000200D4010B50A4C23689A070FD009490B68084A4C
:2037400013F0806FFAD113685B01FCD5FEF754FFFFF7D6FF23680023236010BD58200D402E
:2037600004200D4038B5274B1C6814F03F0413D1254D55F8243023B1984768B10134052C85
:20378000F7D1224D2B783BB1FEF746FF0446FEF749FF201A092801D830BF38BD002CFBD083
:2037A0001B4B1C481A6822F400321A600268194912F4801FFAD11A6842F480321A600B6868
:2037C000DB03FCD5FEF72EFF201A092803D8BDE83840FFF795BF63280F4C02D92B78022BDA
:2037E00000D00123236002F0A1FC20B1FFF788FF0023236038BDFEF70FFF0028F6D023685E
:20380000CAE700BF48860840000D00200C21002000200D4004200D4058200D400749002392
:2038200051F82320824207D01AB9044A42F8230070470133052BF3D1704700BF000D002061
:20384000054B00221A60054A136943F004031361034B01221A70704758200D4000ED00E0BF
:203860000C21002010B5074B4FF48032064CC3F89021C3F89020206818B102F0A1FC0023C3
:20388000236010BD00E100E0140D0020134B1B782BB101F5201127310138114B16E0114AA4
:2038A0001278122AF5D1104A12784B2AF1D108448B420ADA03F52012032BD4BF2C322432C5
:2038C0001278013300F8012DF2E77047994204D011F8012900F8012FF8E770472B00280081
:2038E000270028002A00280029002800024A136843F010031360704720000240142358436B
:20390000034B044A0344B3FBF0F3013B13607047FF23F4000C0002402DE9F84306460F4677
:2039200014461D462A4ADFF8B4901368DDF8208043F001031360D9F80030322043F0010317
:20394000C9F80030FEF74AFED9F80030214A23F00103C9F8003030038158012303FA07F998
:2039600021EA09018150210351F802C0AB402CEA030C41F802C0203250F802E049EA0E0E5C
:2039800040F802E0885803438B50304639460022FFF750F8294620460022FFF74BF80E4B2E
:2039A00047EAC6021A6045EAC4025A60394630460B22FFF749F8204629460C22FFF744F857
:2039C000FFF794FF4046BDE8F843FFF797BF00BF38200D4000940D402C410D4044200D40FC
:2039E000024B18600120FEF7F9BD00BF04000240054B1868C0B2C30704D410F0120F08BF65
:203A000000207047002070470400024008B5074B4000186099600720FFF7E2FF044A13682B
:203A2000DB07FCD4BDE80840FFF7E2BF00000240040002400A4B400040F0010010B51860C5
:203A400007200C46FFF7CCFF064A1368DB07FCD4FFF7CEFF10B9044B1B68237010BD00BF32
:203A60000000024004000240080002402DE9F8430F461446002A3CD000293AD0012A04D10B
:203A8000BDE8F8430978FFF7C1BF1B4A430013600B781A4E03203360FFF7A2FF184A13681F
:203AA000DFF85C8013F0010FF9D1FFF7A1FF70B9012504F1FF3914E03C4414F8013C052082
:203AC0003360FFF78DFFD8F80030DB07FBD4BDE8F843FFF78DBFD8F80030DA07FBD4013518
:203AE000EDB2A945E8DD7B5D01203360FFF778FFF1E78020BDE8F883000002400800024057
:203B0000040002402DE9F8430F461446002A3CD000293AD0012A03D1BDE8F843FFF78ABFD8
:203B20001B4A430043F0010313600B20FFF758FF184A1368DFF85C8013F0010FF9D1FFF758
:203B400057FFF0B9144E0125336804F1FF393B70A9450BDD0920FFF743FFD8F80030DA0753
:203B6000FBD433687B550135EDB2F1E70520FFF737FFD8F80030DB07FBD433683C4404F845
:203B8000013CBDE8F843FFF733BF8020BDE8F8830000024004000240080002402DE9F04147
:203BA0001C4640F60103069D90462A680F469A4201DC00260DE08221384609F083FE194841
:203BC00009F00EFB174902463846BDE8F04109F0F9BFA64209DAA11B08EB06002B68124AC7
:203BE00001310AF020FC0644F3E7B442A8BF344640F602022B683846E1189142C4BFC3F530
:203C0000006402342246414609F0DCFF2B681C4440F601039C42CABF4FF0FF332C602B602B
:203C2000BDE8F0814EEC20005EEC20002DE9F0436D4B15461A889B788BB08DF812304FF058
:203C4000FF330F46059305A900230646ADF8102006930793089309938DF80D30ADF80E3044
:203C600009F041FE50B1059B604A412128460AF0DAFB4028044600F3288100E0044605A9FC
:203C8000304609F042FE50B1C4F141012819059B574A0AF0C8FB0444402C00F3168106A951
:203CA000304609F046FE50B1C4F141012819069B504A0AF0B8FB0444402C00F3068106A953
:203CC000304609F05FFF50B1C4F141012819069B494A0AF0A8FB0444402C00F3F68007A940
:203CE000304609F05DFE034658B1079AC4F1410100922819414A0AF096FB0444402C00F380
:203D0000E48007A9304609F062FE034658B1079AC4F1410100922819394A0AF084FB0444BF
:203D2000402C00F3D28007A9304609F06BFE034658B1079AC4F1410100922819314A0AF018
:203D400072FB0444402C00F3C08007A9304609F066FE034658B1079AC4F1410100922819CF
:203D6000294A0AF060FB0444402C00F3AE8007A9304609F05FFE034658B1079AC4F1410140
:203D800000922819214A0AF04EFB0444402C00F39C80B37A03B3C4F1410128191C4A0AF064
:203DA00042FB06F10A0904444FF00008B37AC4F14101984505EB040008DA19F8013F154AA6
:203DC0000AF031FB08F101080444EFE7124A0AF02AFB0444402C78DCF37C5A0600F1BD801D
:203DE000F37CDB0620D5C4E085EC20008AEC200091EC200098EC2000A0EC2000A8EC200012
:203E0000B1EC2000BAEC2000C3EC2000CCEC2000D5EC2000DBEC2000FCEC2000634A0AF001
:203E200002FB0444402C50DC002300930DF10D020DF10E0309A9304609F040FEA0B19DF88E
:203E40000D105B4A5B4B2819002918BF1346BDF80E2000930192C4F14101099B564A0AF022
:203E6000E2FA0444402C30DC002300930DF10D020DF10E0309A9304609F052FEA0B19DF87D
:203E80000D104B4A4B4B2819002918BF1346BDF80E2000930192C4F14101099B474A0AF011
:203EA000C2FA0444402C10DC08A9304609F07EFE034640B1089AC4F1410100922819404ADA
:203EC0000AF0B1FA04443F2C02DDBB2385F83F3022462946384609F075FE3A4A3A493B4896
:203EE00003F09CFD29463A4803F098FD0021384609F004FD1121384609F028FD022204A985
:203F0000384609F02AFD3349384609F0AEFD2146384609F043FE3049384609F04CFD0A21E2
:203F2000384609F0C4FD2D49384609F02DFD402300222A21384609F0DAFD10230022172187
:203F4000384609F008FE0021384609F0EAFC384609F014FD0BB0BDE8F083C4F141012819D3
:203F6000736E1F4A0AF05FFA0444402C7FF738AFABE7C4F1410128191A4A0AF054FA06F126
:203F8000240904444FF0000896F82430C4F14101984505EB0400BFF641AF19F8013F124A69
:203FA0000AF041FA08F101080444EDE7FCEC200088EC2000FDEC2000E0EC2000EFEC200022
:203FC00090ED2000FEEC200002ED2000E9EB200006ED20007C08002024ED200029ED200019
:203FE00031ED200039ED2000DBEC2000F0B50D46064685B000212846144609F07FFC04A9D3
:20400000002341F8043D304609F0E1FC104F0646786809F0E5F8864206D17B680D4A40211C
:2040200020460AF000FA08E0039A331A024400924021094A20460AF0F6F9204609F0D0F852
:2040400021460246284609F0BDFD05B0F0BD00BF780500206FED20008FED200037B50C239F
:20406000154600220C468DE80C0012496A4609F017FC50B1009808F079FE20EAE07040280F
:20408000C8BF40230190C8BF0193019A0A49284608F0ECFE0021204609F030FC01A90122D3
:2040A000204609F05AFC019A2946204609F08AFD03B030BDAFED2000B3ED200008B50A4A2E
:2040C0001378012B03D9BDE8084001F025BB01330649137001F02EFBBDE80840044A102103
:2040E00004480AF0A0B900BF0D210020180D00201CEE20004C0D002070B5174EACB033789B
:204100003BB3164C2146E08A00F020FE054600B34522214601A809F081FD04F1340009F062
:204120005FF804F13401024601A809F04BFD238E0022E16A01A809F0DAFC05F1460101A850
:2041400000F04EFFA5F84400284600F02FFE002333702CB070BD00BF0D210020180D002095
:2041600038B50A4C0A4D23680A4A01330A490B48236003F053FC6A682168094803F04EFC3E
:204180002846BDE8384009F051BA00BFA00D0020E4050020FEEC200002ED2000E9EB2000EE
:2041A0003DEE200070B50C4615461E460021204609F0A4FB064B3146064A28461B680AF05C
:2041C00032F9294602462046BDE8704009F0FABCA00D002015EF20002DE9F041AEB0349D2C
:2041E0001C462B6880460E461746002B44D14FF480730093344A354B01F0A0FB044600284E
:204200005ED13349404601F095FA41F2010521463048013403F002FCAC42F8D12C4C2E480A
:2042200003F0FCFB2146E08A00F090FD0546002846D0264E4522214603A809F0EFFC228E3C
:20424000336821499A4228BF1A4603A809F0BAFC238E3268934204D20122002103A809F0FE
:2042600046FC05F1460103A800F0BAFEA5F84400284600F09BFD23E0DFF85080D8F80020FB
:20428000934206D38221304609F01CFB0F22134913E00D4920221944384608F0E7FD2B68E5
:2042A000D8F800203946D21AA24238BF94B2224634BF4FF0FF331B192B60304609F082FC0A
:2042C0002EB0BDE8F08100BF0E210020A40D0020A80D002065EE2000FCEC20004EEC200061
:2042E000104B70B55B68042098470F4C0F4D23680F4E013323602B683060C01A08F032FDFE
:20430000002802DD2368042B02DC23683A2B08DD00232360336807482B60BDE8704009F0C0
:2043200085B970BD08E920005406002050060020DC0D00202C0600201F4BF7B55B68074690
:2043400004200C46154698471C4E02A94FF0FF3341F8043D3060384609F0D7FA01994B1ED2
:20436000033306D90021204609F0C8FA3368144A06E032290ED1204609F0C0FA3368114ABE
:20438000402128460AF04FF8284608F029FF2946024608E08621204609F094FA0A4808F002
:2043A0001FFF02460849204609F00CFC3C21204609F0CCFA03B0F0BD08E92000DC0D0020E3
:2043C00093EE200096EE2000A9EE2000034A044813680133136009F029B900BFE00D00207F
:2043E0005806002070B50C4615461E460021204609F084FA0A4B20461B6A1968C90909F07F
:20440000A5FA084B3146084A28461B680AF00BF8294602462046BDE8704009F0D3BB00BF3B
:2044200058060020E00D00200BEF200070B584680546ACB194F90830002B11DA236A7BB18A
:204440001A686AB1074A127812B11B6A03B19847236A2846BDE870401A68002309F0F6BB6A
:2044600070BD00BF0E2200202DE9F34706461248884691469A460A9F09F05FFC0546A5B1E7
:204480006C6884B1009753464A4641463046A047044640B1B379012B09D1424631460020E3
:2044A00000F07EFB03E02D68E9E7284600E0204602B0BDE8F08700BFE40D00202DE9F04FA4
:2044C0009F4D8BB002902846039100F02FFF9D4E029B04463070C5F8A030002840F0168115
:2044E000AB79013B032B00F2F5800299288900F02DFC0746002800F0E7804023ADF8163048
:204500006B790694079408941BB92B894522022104E000F05DFD0346452201218A4809F009
:20452000B2F9AA7A1AB18949874809F0D1F907AB009300220DF1160306A9814809F0BEFAD6
:2045400040B1BDF81630402B28BF4023ADF81630079B0893089B002B03DA822333707C4AD9
:20456000B5E0BDF8169007F184080DF1200ACDF800A04B46424674497148FFF775FF002819
:2045800067D10AA941F8040D6D4809F020FA8346704809F0D2FB0446002C4ED0606808F083
:2045A0001FFE8345024607D045DD237AD80642D5099B9B5C2F2B3ED10999606808F03EFEA1
:2045C000002838D1AB795A1E04D1D4F810B0BBF1000F16D101239340990704D5D4F814B00B
:2045E000BBF1000F0DD15A0704D5D4F818B0BBF1000F06D1180717D5D4F81CB0BBF1000F64
:2046000012D04B46CDF800A042464F494C48D847237A5B0640F10A8120464B4A484900F0B9
:20462000BFFA01231C460DE08521474809F04AF90023012406E02468AEE78421424809F066
:2046400041F90123234204D184213F4809F03AF92CE03378002B5AD1AB7D190700F19E8006
:20466000697D089AC91100F0CD80079B364C9A4200F0A58001320699BDF8163040F0C08049
:20468000B4F8A4209A4294BF00220122DFF8B880404609F02CFABDF81620B4F8A430934242
:2046A00004D94046D8F8A81009F08CFA337873BB07F14601244800F093FC80B2A7F8440078
:2046C00028BBC123337022E0A323234A3370234B1A601CE06B6823F07F4323F0FF0313B92B
:2046E000C323337006E06B79032B03D12989029800F072F9288900F0A7FB38B1C46B076CF0
:2047000000F03EFB14B10E493846A047002733780C4C33B9002F00F08B80384600F046FB00
:2047200086E0C22B384602D100F02AFB80E000F027FB2378C32B13D100232370032114E013
:20474000980E002016220020E80D0020A30E00204EEC2000940E002039EF2000C806002003
:20476000BF2B84BFA0232370022132782B89324809F089F8314B1C68204608F031FD21464E
:2047800002462D4809F01EFA03992B4800F028FC039982B2029800F0A5FF49E0284B93F902
:2047A0000620002AFFF65CAF9B7D1A073FF558AF244BA1221A70244A204B1A6076E7B4F81D
:2047C000A4108A4204D38223A3710F221F492BE0BDF816308A1A9A4294BF00220122069973
:2047E000204609F084F90799B4F8A430BDF816205B1AD4F8A8009A4228BF1A46014413E08E
:20480000012243E7002A3FF453AF0D4C013218BF01224023204609F06AF9B4F8A420D4F805
:20482000A8103F2A88BF402220463DE7012300E730780BB0BDE8F08F980E0020C8060020DE
:20484000E80D00201622002049EF20004EEC200010B50446416001460B4809F08BFA94F9E4
:204860000830002B0EDA206A60B1036A53B1026842B1064B0461C360BDE81040002308305B
:2048800009F0E4B910BD00BF940E00202D44200008B50B4B1A788AB901220A481A7009F0C3
:2048A00049FA094809F046FA08490948FFF7D0FF00F012FFBDE8084000F082BB08BD00BF25
:2048C0000E220020E40D0020940E002059EF2000A4060020014809F030BA00BF940E0020D6
:2048E00010B504460146044809F096FA2146BDE81040024809F02BBA7C060020440F0020F4
:2049000070B50646094809F018FA044600255CB1314604F1180009F06EF918B12046FFF745
:20492000DFFF01352468F2E7284670BD440F00202DE9F041074611488846164609F0FDF9EA
:2049400004460025B4B1394604F1180009F053F970B194F82C30B3420AD13246414604F1E5
:204960002D0008F051FA18B92046FFF7B9FF01352468E7E72846BDE8F08100BF440F00209C
:204980002DE9F04107461348884609F0D6F904460025DCB11FB9261D464508D110E03946A8
:2049A00004F1180009F027F90028F4D10CE0304608F016FC41460246304608F025FA18B94B
:2049C0002046FFF78DFF01352468E2E72846BDE8F08100BF440F0020F8B506460B480F460D
:2049E00009F0ABF90446002574B1314604F1180009F001F930B1E38EBB4203D12046FFF790
:204A00006FFF01352468EFE72846F8BD440F00202DE9F04F0C46E1B0054688B1406808F09E
:204A2000DFFB06461322696805A808F055FC122E0DDC64B105ABC6F113022146981904E09E
:204A4000002900F0A780132205A808F045FC00242346452201210AA88DF8274008F013FF3D
:204A600023460122214635A808F00DFF05A935A808F0B8FF05A808F0B3FB81461DB12B7A9B
:204A8000C3F3001300E001234448984609F055F9044604AB4FF0140A0393002C7AD0271DF2
:204AA000384608F09DFB814508D071DA4346002B6ED004EB09031B792F2B69D14A463946DB
:204AC00005A808F0BBFB002862D100F081FA04F1180100F03BF90746002859D0A26B92FB4B
:204AE000FAF30AFB13230BB98DF82D30BB88039AE386BB8807F1840BADF83030002313603A
:204B00000AA9009240235A4635A8FFF7ADFC60B945B1039B5A4600930AA9402335A82E6967
:204B2000B04702E080238DF82E309DF92E30002B09DBA16B0AA84B1CA36308F0B8FFA36B2B
:204B400023F07F43A36394F82C2004F12D010AA808F0BEFE039B1A6882B1013218BF012299
:204B6000002140230AA808F0C2FFBDF8CC2034993F2A88BF40220AA809F024F807F14601C0
:204B80000AA800F02DFAA7F84400384600F00EF9246882E761B0BDE8F08F00BF440F002098
:204BA0002DE9F84F8B791646012B5AD192F90630002B56DBCB7C5B0653D5D1F8A0A0BAF140
:204BC000000F43D04F6E002F37D1D1F860B091F80A80CD6D01F10B0950465946FFF7D0FE9A
:204BE000214809F005F9044690B3132DA8BF13252A4659460430254408F038F9514604F188
:204C000018002F7108F0E7FF4246494684F82C8004F12D0008F02AF921461448E78609F059
:204C2000A9F8A16B30464B1CA36308F040FFA36B23F07F43A363BDE8F88F012F11D18A7A82
:204C40005046BDE8F84F0B31FFF772BEBDE8F88FA323B3713046BDE8F84F1022044908F081
:204C6000B1BFBDE8F88F00BF7C060020440F00206AEF2000014801F0A3BA00BF8806002047
:204C800070B5038806462BB15D2B0AD000230380032070BD8021194808F0F9FF5D233380BF
:204CA00003E0882903D0822901D0012070BD00F0C5FD18B1124801F083FAEFE700F0A4FD19
:204CC00004460D4654EA0503F4D0C9014FF47A720023E00141EA546107F0B4FE00234FF441
:204CE000F0528B4208BF824204D350EA010302D1012000E010460146CDE700BF4C0F0020A6
:204D00008806002070B5FDF755FC0B4E0B493268821A0ED04FF47A73A2FB0323D40944EABC
:204D20004364DD09D1E90023A4185D41C1E900453060D1E9000170BD480F0020B8090020F0
:204D40000021014801F024BA8806002070B5064609480D4609F04CF8044658B1002386809E
:204D600080F824302946263008F035FF2146034809F000F8204670BD980600205C0F0020F7
:204D800010B5044660B1083000F030FD2146054808F0DDFF2146BDE81040034809F03CB882
:204DA00010BD00BF5C0F0020980600202DE9F04190F846500446C5F301152630A5BB94F85F
:204DC0002430042B22D8B4F8442004F1460100F089FC94F8243073B91A4B2461E36008F064
:204DE00077F940F2DD53B0FBF3F202FB130000F6B830206202E0236A5B002362226A04F111
:204E000008000023BDE8F04108F020BFE66B276CFFF776FD2046FFF7B3FF86B1294638463B
:204E20003346BDE8F0411847B4F8442004F1460100F058FC2046BDE8F041FFF7A1BFBDE8FD
:204E4000F08100BF33D6200010B50446044808F074FF20B18388A34201D00068F9E710BD8C
:204E60005C0F00202DE9F84F0A9F8B4691461E46FFF730FD002480462546B8F1000F79D01C
:204E80004DB13B689D4205D3B4423EBF2C2309F80430013401353B689D4205D3B4423EBF8B
:204EA0003C2309F8043001343A686B1C934205D3B4423EBF2F2309F804300134D8F80400D0
:204EC00008F08EF902353B6805EB000A9A4510D9D8F804205B1B711C002BACBFD318131C10
:204EE000091B09EB0400344A09F09DFA0444A64240D93B689A4505D3B4423EBF3E2309F890
:204F000004300134D8F80C300AF101053BB31B782BB33B689D4205D3B4423EBF3B2309F810
:204F200004300134D8F80C0008F05AF90AF1020A3B680AEB00059D4211D9CAEB030AD8F8E2
:204F40000C30711CBAF1000FA8BF5344091B09EB0400194A09F067FA0444A6420BD3B442F3
:204F600003D93A682B1B934205D8404608F05CFB804682E74CB149462246584608F022FE0D
:204F80002821584608F0BAFC09E045B18221584608F098FC0F220949584608F013FEB8F1FD
:204FA000000F04D14FF0FF333B60BDE8F88F3B681E443E60BDE8F88F8CED20004EEC200013
:204FC00008B508F085F8014B188008BD0C1A0020024B1888013080B2188070470C1A0020CB
:204FE000F7B5044601232160037100230B700F46016800790A7842EA80120A7020686279B0
:205000000178120102F030020A430270A27A206802F00F0102780A4302702268A1795170DD
:2050200022892168120A8A7022682189D170A279002A00F07381224652F80A5B0435A17A1D
:205040008B4205D212F8011F013305F8011BF6E70121204608F0F7FA60B194F86A302A4640
:205060000093002104F16B03012008F0BFFB0126054400E006460321204608F0E4FA48B151
:20508000236C2A4600933146636C032008F0AEFB032605440421204608F0D5FA58B194F81B
:2050A00024302A460093314604F12503042008F09DFB042605440521204608F0C4FA38B1B3
:2050C0002A4631460023052008F05FFB052605440621204608F0B7FA38B12A463146636E04
:2050E000062008F052FB062605440721204608F0AAFA40B12A463146B4F85030072008F083
:2051000044FB072605440821204608F09CFA58B12F230193A36C2A4600933146E36C0820CE
:2051200008F074FB082605440B21204608F08BFA58B12F230193E36D2A4600933146236E38
:205140000B2008F063FB0B2605440C21204608F07AFA38B12A463146A38B0C2008F015FB23
:205160000C2605440E21204608F06DFA38B12A463146236A0E2008F008FB0E2605440F218D
:20518000204608F060FA68B126230193D4F894302A4600933146D4F898300F2008F036FB6B
:2051A0000F2605441121204608F04DFA40B12A463146B4F86830112008F0E7FA11260544F4
:2051C0001421204608F03FFA58B126230193636D2A4600933146A36D142008F017FB14264B
:2051E00005441721204608F02EFAE8B1636F94F878201B010AB143F00803B4F87A100020AE
:205200000909421C490892B201D01046F9E7002A18BF024602F00F02134331462A461720C2
:2052200008F0B3FA172605441B21204608F00BFAF0B1D4F8803094F884201B010AB143F04D
:205240000803B4F8861000200909421C490892B201D01046F9E7002A18BF024602F00F0289
:20526000134331462A461B2008F08FFA1B2605441C21204608F0E7F940B12A463146D4F88C
:205280008C301C2008F081FA1C2605442321204608F0D9F948B1236B2A4600933146636BD5
:2052A000232008F0A3FA232605442721204608F0CAF948B1A36B2A4600933146E36B272005
:2052C00008F094FA272605443C21204608F0BBF938B12A46D4F8903031463C2008F055FA44
:2052E00005442368EB1A3E2B11DCB4F8A43013B1FF2305F8013B2846B4F8A420D4F8A8107E
:2053000007F02AFEB4F8A400ED1B284407E0054A054B0025256028461A6000E0042003B0DB
:20532000F0BD00BF94EF2000C80600202DE9F74F0F46044600219246AC2207F071FE2760C1
:2053400097F800804FEA981884F804803B78B8F1010FC3F3011363713A7802F00F02A27282
:205360007B78A371B978FB7843EA0123238101D0A04A02E0082A03D99F4AA04B1A6034E17F
:205380003E1D314604F10B0007F070FD0822002104F1130007F044FEA37A00251E4407EBB5
:2053A0000A094FF0100B4E4580F01D81317801F0F003F02B14D10136F71BC7EB0A0A1FFA2A
:2053C0008AFABAF1400F8ABF4023A4F8A4A0A4F8A430B4F8A4300020C4F8A860F05405E1C5
:2053E0004FEA111EBEF10D0F01F00F0105D196F801E0B01C0EF10D0E0CE0BEF10E0F01BFD6
:20540000B07896F801E000F20D1000EB0E2E14BF701CF01C0D2903D110F8011B0D3108E000
:205420000E2906D14378017803F20D1303EB012102304618B145C0F0D88075443C2D00F263
:20544000D48004EBD50305F0070208FA02FEDA7C0E2D4EEA0202DA7464D027D8062D00F0C0
:20546000A18017D8032D78D00CD8012D40F0B3800A46082928BF0822014684F86A2004F15B
:205480006B0062E0042D51D0052D40F0A48084F89C8088E7082D71D062D30B2D65D00C2D2F
:2054A00040F0998008F0DDF8A0837CE71B2D7DD025D8112D44D00BD80F2D40F08C802623C8
:2054C000009302460B4604F1980004F194015DE0142D5ED0172D7ED108F0C3F8C0F3C00321
:2054E00000F0070284F878300BFA02F3A4F87A3020F00F0393400009E367606753E7232DB6
:2055000026D006D81C2D66D108F0ABF8C4F88C0049E7272D1CD03C2D5DD108F0A2F8C4F8FF
:20552000900040E708F09DF820623CE70A46082928BF0822014684F8242004F1250004E0EB
:2055400008F08FF8A4F868002DE707F08FFC2AE72B4A2A4BA5201A6048E06064216422E77E
:2055600008F07FF8A4F850001DE72F23009302460B4604F1600004F15C0107E02F230093DB
:2055800002460B4604F14C0004F1480108F074F809E72623009302460B4604F1580004F1E8
:2055A0005401F3E708F05DF86066FCE608F059F8C0F3C00300F0070284F884300BFA02F3E5
:2055C000A4F8863020F00F0393400009C4F88830C4F88000E7E6EB077FF5E5AE094A074B60
:2055E00082201A6002E0002000E0802003B0BDE8F08F00BFC3EF2000DAEF2000C8060020CE
:20560000FFEF200026F02000F8B50288054632B1B2F5DA7F11D0002303800320F8BD11462B
:20562000104603F0A5F9174B186043F2163303824FF4DA732B800120F8BD134B1B788B42D7
:20564000F6D1124B1B789B07F2D5114A114C164604F11007234603CBBB42106051601C4653
:2056600002F10802F6D10C4B09481A780B4BD35A33820023B3740A4B1A880A4B1968FEF7E8
:205680001DFFD5E7600F0020493200208C2F00200E1A0020942A002086230020B42A002040
:2056A0007C2A0020942F002008B548F2FE0302889A4206D0044B5B6A9847003018BF0120F2
:2056C00008BD012008BD00BF6CEA2000014B1868704700BF942F00200021014800F058BD56
:2056E000CC06002073B50E461446054610B94FF0FF340CE0FFF7D8FF0028F8D02B8A0548B1
:20570000009322462B463146006808F084FF204602B070BD600F0020034BA3221A70034A05
:20572000034B1A60704700BF1622002077F02000C80600202DE9F0430446ADB000890D4692
:20574000FFF782FB254E0746002842D06279BAB9D4F8A080B8F1000F12D02389022101A890
:2057600008F091F8FFF7B2FF8146FFF7AFFF014601A8FFF735FC494682B24046FFF7B2FF8F
:2057800007F12601284608F026FA6379003318BF01232B75FFF71CFCE882A27A04F10B0125
:2057A00005F1190007F062FBA37A2B76D4F880306B62B4F886302B85636FEB62B4F87A30F8
:2057C0001BB1402B28BF402300E040232B86C22300E0A02333702DB0BDE8F08316220020DC
:2057E000014B5B68184700BF28EA200010B50446FFF7F6FFC4E904012146BDE810400148F9
:2058000008F0A5BA640F002010B50B4808F095FA044658B1FFF7E4FFD4E90423994208BF4D
:20582000904206D2101A63EB010110BD4EF6602000E00020002110BD640F0020F8B5FFF78F
:20584000CFFF064614480F4608F077FA044608B90020F8BDD0E904239F4208BF9642F7D30A
:2058600001460D4808F073FA63680BB1204698470A4B9B689847084808F05FFA0028E7D0A4
:20588000D0E90445FFF7ACFFA94208BFA0422CBF01200020F8BD00BF640F002028EA20006C
:2058A00010B5074B1A7852B9012206481A7008F041FA054B1B6813B1BDE81040184710BD4E
:2058C00017220020640F002028EA2000F7B5184B04461B780BB9FFF7E3FF164808F02DFAA5
:2058E00021460546134808F032FA124808F025FA002150B1D4E90467D0E904239F4208BF34
:20590000964203D301460068F3E71CB12246094808F04CFA074808F010FA854206D0064B4D
:205920009B68019303B0BDE8F040184703B0F0BD17220020640F002028EA20002DE9F34121
:205940000E461F4602A9002341F8043D0446904608F02CF9054608B1019921B91C4B802288
:205960001A701C4A09E0D4F88800089B42199A4208D9174B8D221A70174A184B4FF0FF3072
:205980001A6022E0B8F1000F08D03FB12A46404407F06CFAD4F888301D443D60A37D1B07F6
:2059A00001D4002011E0B4F8863094F88420D4F88010304608F0CFF894F88430002BF0D0B3
:2059C0005F21304607F07EFF012002B0BDE8F0811622002084F020008EF02000C8060020FC
:2059E00038B5644C07F07CFDFCF7BEFD08F06CF900F042FB0021604800F0CAFB00F032FAC8
:205A0000FCF78EFF08F042F900F0FAFBFCF75EFC00F04CFF01F07AFA00F0D8F92368022B88
:205A200007DD564A5649574801F0F8FF564801F0F5FF2368022B09DD5149504A514801F0DD
:205A4000EDFF524B5248196801F0E8FF2368022B09DD4B49494A4B4801F0E0FF4D4B4E4874
:205A6000196801F0DBFF2368022B09DD4449434A444801F0D3FF494B4948196801F0CEFF6F
:205A80002368022B09DD3E493C4A3E4801F0C6FF4AF6CD31434801F0C1FF2368022B08DD08
:205AA0003749364A374801F0B9FF1A213E4801F0B5FF2368022B09DD3149304A314801F05C
:205AC000ADFF3A4B3A48198801F0A8FF2368022B07DD2A4A2A492B4801F0A0FF354801F0E6
:205AE0009DFF2368022B02DD334800F091F82368022B02DD314801F091FF08222E493048D5
:205B000007F0B4F900212F4800F042FB4FF0FF3002F03EFD23680546022B07DD174A1849D8
:205B2000184801F07BFF284801F078FF2368022B05DD0DB1A81C00E0284600F059F823688C
:205B4000022B02DD1D4801F069FFFCF7F1FBFEF79FFE1E4808F089F8FCF7E8FE00F0A4FAC4
:205B60000446FCF7E9FE14F0FF0FF7D107F0C2FCF4E700BFDC060020E00600209DF0200023
:205B8000E4EB2000E9EB2000A2F020006CEA2000D9F020005CEA2000E8F0200040EA200069
:205BA000F3F02000FEF0200018F12000221A002038F1200045F120002A320020FCEC20002C
:205BC000842A0020C40700205AF12000BCEA200010B50446FCF7F8FC94E80C001344C01A2C
:205BE000024B98428CBF0020012010BDFEFFFF7F00B58BB002462821684604F0D7FE694603
:205C0000024801F00BFF0BB05DF804FB8CED200038B5054608B1002409E00948BDE838402B
:205C200001F0FCBEE30702D4064801F0F7FE295D0548013401F0F2FE082CF3D138BD00BF30
:205C400097F12000A6F12000A8F1200010B50E4C236813B90D4A136010BDFCF7ABFC2168FC
:205C600091E80C001A44131A8A6842B192E812002144091A8B4228BF0B469268F5E71844E4
:205C8000024B186010BD00BF680F00206C0F0020014800F095BA00BFE00600202DE9F843E3
:205CA0000388054633B1592B0BD0002303800320BDE8F883234A136059232B800120BDE815
:205CC000F883872924D08229F6D11E4F4FF00008B9463C680026002CEED0204607F0FDFF73
:205CE00098B122468821E06800F02AFA58B9E060A3680EB1B36001E0C9F80030C4F80880AA
:205D0000FFF7A4FFE5E7FFF7C3FF2646A468E2E70C4900200B681BB90028CDD00B60CBE787
:205D2000DC68A24202D19B680120F4E700B10B6099680029C0D0C86882420ABF89680B4694
:205D40009960F5E7680F002010B50446FFF7A0FFE3680B4A4BB113683BB1A34203D1094A24
:205D60001268DA6007E09B68F6E7064B1B68E36013681460A360BDE81040FFF767BF00BFCF
:205D8000680F0020740F0020024B1868003018BF01207047680F002010B50B4A04461368A7
:205DA000834206D18368136008E09A68944203D01346002BF9D103E0A2689A60FFF746FFE6
:205DC0000023A360E36010BD680F0020034A9179D379034A03EB0123138070472A3200202E
:205DE000221A0020F8B50388064615462BB14A2B15D0002303800320F8BD174807F09DFFC2
:205E000004462CB1A168201D07F041FF2468F8E7124B01221A704A2333800120F8BD8829C2
:205E2000FBD10D4807F089FF0446002CF3D0231D9D420ED12146084807F089FF084B626937
:205E40001F681A60A2691D460AB1E06990472F60E1E72468E9E700BF700F0020182200208D
:205E6000740F002010B5064B002406481C7007F061FF2146BDE81040034800F089B900BF7C
:205E800018220020700F0020F006002070B50446E3610B4B049D1B786561A26143B1094DA3
:205EA000094B2E68201D2B6007F0F1FE2E6000E0A1602146BDE87040044807F05BBF00BF03
:205EC00018220020740F0020F0060020700F002013B5034C24680094FFF7D8FF02B010BD8D
:205EE000740F002070B5094B05461B783BB1084C084B26680430236007F0D2FE2660294614
:205F0000BDE87040044807F035BF00BF18220020740F0020F0060020700F002010B5084B6C
:205F200004461B781BB10430FFF736FF01E0C36003612146BDE81040024807F008BF00BFCE
:205F400018220020700F002010B50A4B04461B7823B1BDE81040043007F0ABBE064807F0AF
:205F6000ECFE18B1A04203D00068FAE7012010BD002010BD18220020700F002038B58368C4
:205F800004460D469BB10A4804600220A07304F10C0098470238012801D9832D05D1214623
:205FA0002046BDE8384000F005B80123A37338BD740F00202DE9F8431C4A04461568894692
:205FC0002B4690461A4E3768A34204D00BB11B68FAE7BDE8F88334B3A37BABB10023A373E0
:205FE00045B1A54204D022468721284607F066FE2D68F5E7A3683BB14C4505D034602A4645
:20600000832104F10C009847D8F800309C4203D12268064B05E0134623B11A689442FAD13A
:2060200022681A603760BDE8F88300BF780F0020740F0020002370B51D46094A01261370F4
:20604000084A146854B1E37B33B1A673E573002282212046FFF792FF2468F3E770BD00BFB6
:206060001B220020780F0020024B1878421C1A70704700BF1C220020064B8A221A70064AAC
:2060800000231370054A1370054A1360054A1360704700BF1C220020192200201A22002079
:2060A000780F0020740F00202DE9F0411A4D2B780BB1FFF7BFFF194C22783AB3184E0C2156
:2060C0003378184F5943781817F8018001334768806803F01F03013A3370227068B9124B24
:2060E0001E689EB12B780BB1FFF7A4FF30463A46414607F0E3FD3668F3E7B8F1810F04BF0B
:20610000012383733A46414607F0D8FD2B7820781844BDE8F08100BF1B2200201A2200206D
:20612000192200207C0F0020780F0020024A034B10781B78184470471A2200201B22002031
:20614000F0B50B4E3378202B0FD00A4C0C252478094F1C4404F01F046C4301333D19A86039
:2061600039556A6033700020F0BD0120F0BD00BF1A220020192200207C0F002038B5034C2C
:20618000256807F09BFD256038BD00BF740F002030B40A4C0A4625682B4683420CD00BB122
:2061A0001B68FAE740B101210560817320608381812130BCFFF7E2BF30BC7047780F00201C
:2061C00038B1837B013B012B9FBF024A0123C373137070471B22002010B5084C206858B12B
:2061E00000232360816843689847236823B1BDE810401868FCF72CBA10BD00BFFC10002021
:2062000082B0074B02AA42F8043DCD21934202D203F8011BFAE70348002102B0FFF7B8BFB9
:206220004A3200200007002038B5FCF785FB0D4C0D4B22780C4DCD2A06D09C4207D20134DE
:20624000F7E7AC4203D201342378CD2BF9D0FCF773FBAC423DBF0448001B80B24FF6FF7074
:2062600038BD00BF4A320020503A002070B5038805462BB1902B0BD000230380032070BDC1
:206280004FF4A061134807F002FD90232B8003E0104807F00EFD08B9012070BDFFF7C4FF06
:2062A0000D4C0E4B06461C1BA4B2A0420DD90C4B1B68002B09DD0B4A0B490C4801F0AEFB09
:2062C000224631460A4801F0A9FB024807F0E8FCDBE700BF001100204A320020503A0020DB
:2062E000DC0600203AF2200040F22000E9EB200044F2200010B5044690F84C30084A01331B
:2063000080F84C30802103462030FFF7E1FD054B2246BDE8104019780020FFF711BF00BF98
:20632000F56220004532002070B503880446BBB1CB2B03D000230380032070BD822911D19D
:2063400007F035F9BFF35F8F104B00221E681A60BFF35F8F07F02FF90D4D55F8040F18B9B1
:20636000CB232380012070BD90F8453026FA03F3DB07F2D5FFF7E8FD0028EED02B68054ADF
:2063800002211846FFF7A4FDE7E700BF1C1100200C050020B1632000034A13681843106013
:2063A0000248FFF70DBF00BF1C1100201007002070B50446FFF7C8FD20B304F12006304600
:2063C000FFF7C2FD0546204607F09FFC01280CD1C5B1002523460C4A84F84C507E21304638
:2063E000FFF776FD2246094B06E058B955B93046FFF794FD2246064B2846BDE87040197869
:20640000FFF79EBE70BD00BFF56220004632002044320020F8B5FFF727FE304B304D187051
:20642000FFF722FE2F4B304C1870FFF71DFE2F4B2F4F18700023AB602E4B01266B60216815
:20644000002943D091F84530886C2B4AD90809030A44116803F0070306FA03F321EA0303E1
:2064600013602368254A93F84530D90809030A44116803F0070306FA03F321EA0303136084
:20648000236840F08C0193F84500FCF77BFB23681B4A93F84530D90809030A44116803F0E4
:2064A000070306FA03F30B431360236893F84530DB0806FA03F33B6054F8043B93F8453091
:2064C00006FA03F2AB681343AB60B8E70D48FFF75FFEBDE8F840024800F00EB94632002096
:2064E0001011002044320020100500204532002000E100E09963200020940D4000940D403A
:2065000010940D401007002070B5058804466C2D09D07E2D30D0002D34D1FFF7A5FD1C4B09
:2065200018701C4B1D601B4D2E461B4807F0C0FC431C01D16C231DE00A28164A07D02B6844
:206540007E2BF2DC5A1C3260144AD054EDE713680025591C1160114A2846D5540C4B197806
:20656000FFF7EEFD0E4B2A4685211868FFF7E8FD20B97E23238009E0852907D1054B002272
:206580001A60D0E700230380032070BD012070BD4732002020110020241100201D220020E8
:2065A000740F00200D2810B5014615D00B4C23782BB90B4807F069FC48B9012306E00A2850
:2065C00005D1074807F061FC08B1002323700548FFF7F6FD012010BD002010BD1D23002062
:2065E000241100202007002008B505490548802207F044FCBDE8084000210348FFF7C8BDFA
:206600009D22002024110020200700200022F0B51746154C0125FF2640FA02F3DB071ED52B
:2066200004EB4203597814F8123061B1D908090301F1804103F0070301F5592105FA03F3F3
:2066400041F823700BE0D908090301F1804103F0070301F5592105FA03F341F82360013292
:20666000042AD9D1F0BD00BF08EC2000F0B5104C00210125FF2640FA01F3DB0714D504EB6D
:2066800041035F7814F81130DA08120302F1804203F0070302F5592205FA03F317B142F880
:2066A000236001E042F8237001310429E3D1F0BD08EC200070B40E4E0022012516F81230BD
:2066C0000C49D80800030C5803F0070305FA03F324EA03040C502039014408680132034334
:2066E000042A0B60EAD170BC0F20FFF7BFBF00BF08EC200020940D400146014807F03ABB27
:206700002C11002038B50546064807F016FB04463CB1A068284002D0636803B1984724682B
:20672000F6E738BD2C110020014807F003BB00BF2C1100202DE9F04106880546772E31D04A
:206740007E2E40D0002E4ED12B4CFFF78DFC266026462A4B2A4FDFF8B0801870236857F8F1
:2067600023204AB1002108F80310936880209847336801333360F1E7224A1370772320E06A
:20678000214AD256002A12DB1B4A136801331360194B1C4A1B6812789A42F1DC1B4B1B685F
:2067A000002BEBD0194A00231360134AEFE7144A002052F82320114B1978FFF7C1FC30B933
:2067C0007E232B8014E00D4B1B788B4210D10A4B0D491A688B5C03F07F038B540B4A1368A8
:2067E00001331360D0E7002303800320BDE8F0810120BDE8F08100BF30110020483200206B
:20680000180500201E2300204232002034110020054A136843F004031360044B1B6890699F
:2068200043EA002080B2704700700D4014700D4010B5184A136823F00C031360164B0122D9
:206840001A601A68012AFCD1144B08221A60E322C3F8142203F505731946114A1368DB07C4
:20686000FCD5104C102000232268013802F0010243EA02034FEA43039BB2F5D1002BF1D030
:20688000094A180A03F0FE0310601360EF230B6010BD00BF00700D40A8200D4024860840DF
:2068A000648608409C86084014700D4008B5044807F08EFABDE80840024807F089BA00BFB3
:2068C0004C07002040070020014807F0C9BA00BF4007002038B50E4807F08AFA0446A8B194
:2068E0000C4807F085FA0546206028B92146084807F092FA284638BD00F010FA05F19C01F8
:20690000A5F8800005F1820000F092FA204638BD400700204C07002010B50146044607488C
:2069200007F090FA48B12168054807F075FA2146BDE81040014807F06FBA10BD40070020A8
:206940004C07002010B501460446094807F07AFA68B12468B4F88010204600F053FA04F139
:206960009C0104F18200BDE8104000F073BA10BD4007002030B1054B9B68C01A044B8010D0
:20698000584370474FF0FF30704700BF58070020ABAAAAAA38B50D4D002818BF05460C48B4
:2069A00007F0CBF9044668B1211D284607F0DDFA20B12046BDE83840FFF7DCBF204607F0FD
:2069C00004FAEFE74FF0FF3038BD00BFCCEB20005811002008B5024607F08AFA4AB1431C87
:2069E00009D0064B1B5C106843FA00F000F0010008BD104608BD002008BD00BF4F2300204A
:206A000050B10368072B06D8044A52F823301B1A5842584170470020704700BF1C1200200C
:206A200010B50446FFF7ECFF08B1A1600AE0064A1368072B07D8581C1060044A2360A16030
:206A400042F82340012010BD3C1200201C120020F8B505460C460F4E0C272146284607F049
:206A600047FA431C16BFB368002007FB003007F0ACF9FFF77FFF0146284607F02FFA044605
:206A800028B101462846FFF7A5FF0028E5D02046F8BD00BF5807002038B505460B4807F016
:206AA0004CF9FFF767FF0146284607F017FA044601462846FFF78EFF28B921462846BDE89B
:206AC0003840FFF7C5BF204638BD00BF581100202DE9F84F0D46904699460646002800F058
:206AE0009E80504B002908BF1D462846FFF752FF421C07464AD14C4F384607F079F9044643
:206B0000002837D14946404604F004F8002800F08680FFF73FFF431C4AD0BB680C2202FB27
:206B20000032424B195C002A42D0002975D01C5473E0002C57D0BB4255DB104607F045F9A9
:206B40000246002A3FD1002C69D0DFF8ECB000275BF82780B8F1000F49D10137082FF7D1B1
:206B60002046FFF707FF324B00221A542146314807F0EDF821462F4807F0FCF82046FFF7C5
:206B8000F9FE29460746201D07F0ECF93946304607F0A4F904467268002106F041FA012306
:206BA00022463146224807F0AEF92046BDE8F88F204807F0C2F8002402462746DFF86C9097
:206BC000DFF86C80BDE71046FFF7D4FE19F80030002BB2D118F800100029AAD0C80748BFA8
:206BE00001334910F8E7C3B114461F46A5E7D8F80890B9F1000FB0D02046FFF7BBFE01466D
:206C0000404607F06BF9014682464046FFF7E2FE0128A2D15046C8479FE7144695E700206B
:206C2000BDE8F88FCCEB2000580700203F2300204F230020581100201C12002070B50A4672
:206C400004460D4600230146054807F05CF9064600232A462146034807F055F9304670BD1B
:206C60004F2300203F2300200A4601230146014807F049B93F2300200A460023014601487E
:206C800007F041B93F23002008B507F031F9431C07D0054B0C229B6802FB003010B10430CA
:206CA00008BD002008BD00BF5807002010B507490B88834208DB064C80B222880244181AF6
:206CC00008802280012010BD002010BD841F0020861F0020014B1880704700BF841F00200A
:206CE0000048704740120020014B1888704700BF841F0020034A044B10781B781844C0B279
:206D0000704700BF5F230020861F002008B5FFF7F1FF014B184408BD4012002070B50D4D95
:206D20000D4C2A78238806461344802B0FDC0B4906F09CF82B781E44FFF7E8FF22880146C3
:206D4000304606F093F828782388184470BD002070BD00BF5F230020841F00204012002085
:206D600008B5FFF7C7FF024B1B88184480B208BD841F002010B50146FFF7F2FF4318802B9B
:206D800010DC0138084B00B2002805DB1C5C1A180138545400B2F7E7044B01201A7811444F
:206DA000197010BD002010BD401200205F23002038B5094D094C1A220021094806F030F917
:206DC0002946204607F0CEF8294604F10800BDE8384007F0C7B800BFCCEB2000003200203A
:206DE00010320020044A00231380044A1380044A1370FFF7DDBF00BF861F0020841F0020A2
:206E00005F23002038B50C460546FFF7EBFF802C28BF802422462946034806F027F8034BAA
:206E200020461C8038BD00BF40120020841F002010B50C461A22054906F018F82046BDE8B5
:206E400010401022024906F011B800BF103200200032002010B50C461A220146044806F057
:206E600005F82146BDE810401022024805F0FEBF1032002000320020024B23F8101001202E
:206E8000704700BF10320020014B33F8100070471032002008B5044B0D3803EBC00007F084
:206EA00061F8012008BD00BF00320020024B0D3803EBC000704700BF0032002001490248E6
:206EC00007F053B8CCEB20000832002070B505460D480E4606F031FF044698B1012D08D1A6
:206EE000A3681BB9204606F070FFF5E73046984705E0002DF6D16368002BF3D0984700281E
:206F0000F0D070BD70BD00BFC0120020054B10B51B689847044B5B689847BDE81040034BFB
:206F20005B68184770E9200040EA20005CEA2000084808B5FEF7D6FF0748FFF7ADFD38B157
:206F4000037A01465B0803720348FFF781FDF6E708BD00BFE828002064070020014601482A
:206F600006F0EDBF64070020F8B531F0020307460E4615462FD10146174806F0E0FF044650
:206F800050B90346092239461348FFF7A1FD044608B307F004F8A080FBF70CFB237A2060D8
:206FA0002B44102BA8BF10232372022E204608BF0C3506F0E2FFED01002814BF0A22192233
:206FC000ADB25543A388C2F1640101FB03556423B5FBF3F5A580F8BD6407002038B5054667
:206FE0000420FFF751FF294604B20E4806F0A7FF034658B9092229460A48FFF769FD024626
:2070000078B1C48006F0CBFF908038BD0A226243B0F906105A2000FB0122642192FBF1F221
:20702000DA8038BD6407002010B50748FFF734FD044640B121460448FFF700FE21460248A8
:20704000FFF706FDF4E710BD6407002010B500210548FFF7E5FCBDE810400023034A4FF452
:20706000E1310348FEF734BF64070020316F2000E8280020F8B5FBF79DFA04460F4F00254D
:207080000D2007EB0516FFF711FF314606F06DFF78B10720FFF7F8FE337B834201D0002037
:2070A000F8BDB068201AB0F5206F8CBF00200120F8BD0135102DE3D1F1E700BF84130020DF
:2070C00070B5164E00240D20FFF7F0FE06EB041106F04BFF114D611C10B910290C46F2D1BA
:2070E0004C1E05EB0111A1F110063CB120391022304605F0BBFE013C3146F4E70720FFF734
:20710000C3FE2873FBF756FAA8600D20FFF7CEFEBDE870400146014806F024BF8413002065
:2071200030B591B0054600F063F84FF6FF73984202D14FF0FF3052E040220021684605F069
:207140006FFF284B1A782AB901221A70FFF760FB254B18707DB10720FFF796FE58B9224C85
:2071600023780BB90123237021780720FFF784FE237801332370FFF7A1FE6A46C1B21B4844
:2071800006F083FFFFF79AFE28B1FF238DF800308DF8013006E00E20FFF788FE01466846FE
:2071A00006F0E0FE0D20FFF781FE014602A806F0D9FEFFF7ABFD0E90FFF796FD0F90684689
:2071C00007F04FF804464DB1FFF7D4FD0028B0D0FFF786FD0146684607F08CF8204611B0AA
:2071E00030BD00BF6123002060230020896E2000014B1888704700BF780800202DE9F0413C
:20720000012986B006460F46144640F3838003A907F0BAF80A2203A904F1100005F026FE92
:207220009DF811300BB1B51C02E0B378F51CA37602AA01A903A806F070FF9DF81380B8F17D
:20724000000F23D0029B23B16A7815F8023B03EB0223B8F1020FA38309D13049204606F0ED
:2072600081FE6B78237015F8023B637014E0B8F1030F11D105F108021346611E13F8010D7A
:20728000AB4201F8010FF9D1154605E02349204606F068FEA4F81C809DF81580B8F1000FA6
:2072A0002BD0019B53B16A7815F8023B03EB0223029A9BB2E3831AB9A38301E0A38BE38337
:2072C000B8F1020F0AD1154904F1080006F04AFE6B78237215F8023B637215E0B8F1030F39
:2072E00012D105F108021346E11D13F8010D9D4201F8010FF9D1154606E0084904F10800FA
:2073000006F030FEA4F81E80A81B3B1A8742E363A56300DA002006B0BDE8F081CCEB200043
:2073200070B505460C46102C07D92B68102208496868984750B9103CF5E734B12B68224699
:2073400068680349BDE870401847204670BD00BF92F220002DE9F04F064615468FB0069195
:207360004FF0000B069B1B78CBB1069C274617F8013B1BB1252B14D03C46F7E7069BA342D3
:207380000DD0069B0699C3EB04084246336870689847002840F01F832378C34423B9584626
:2073A00034E3069BA342ECD16378002BF7D039460024084610F8013B0A462B2B11D006D80C
:2073C000202B11D0232B12D144F0080416E02D2B04D0302B0BD144F010040FE044F0010447
:2073E0000CE044F0060409E044F0020406E0A3F13107082F11D84FF0000801E00146D8E740
:207400000A4611F8013BA3F13000092813D80A2202FB0838A8F13008F2E72A2B09D12B6822
:207420000246002B05F10405B8BF44F00104984601E04FF0000813782E2B1AD15178531C1D
:20744000A1F1300009280ED8194600270A780B46A2F13000092801F101010DD80A2303FB02
:207460000727303FF2E72A2904D12F68931C043502E013464FF0FF371A786C2A09D15A786B
:207480006C2A02D144F080040AE0013344F060040BE0682A09D15A78682A03D144F020042E
:2074A000023302E0013344F040041A78642A3CD01FD8462A48D00DD8252A5AD003D8002AFB
:2074C0003FF46DAF57E0412A4AD0452A53D144F4424450E0582A31D004D8472A4BD144F4FC
:2074E000A13448E0612A38D0632A44D144F4A06441E06E2A3AD007D8662A22D027D3672A6F
:2075000028D0692A11D036E0732A2CD006D86F2A11D0702A2FD144F440742CE0752A07D0F0
:20752000782A28D144F4C85425E044F4245422E044F410641FE044F488541CE044F4B244BC
:2075400019E044F4007416E044F4844413E044F4024410E044F481340DE044F4C1340AE03E
:2075600044F4E13407E044F4806404E044F4E06401E044F4C0640133069304F4E063B3F56E
:20758000806F00F08F8113D8B3F5807F27D0B3F5407F7FF4E7AEAE4B14F4804FAD4A18BF66
:2075A0001A460DF133032868002104351F46B5E1B3F5C06F08D0B3F5E06F00F02282B3F570
:2075C000A06F7FF4CFAEF2E133680122A24970689847002840F0FF810BF1010BC2E6002FC2
:2075E000ACBF24F01004012714F40053079304F0E0032ED0402B12D005D8ABB1202B21D143
:2076000095F900200DE0602B0ED0802B1AD1073525F0070303F10805D3E9002307E0B5F900
:207620000020D317043502E02A680435D317002A73F1000108DA524263EB4303CDE90023FE
:20764000012304E000220023CDE900230023059329E0402B13D004D8BBB1202B1DD12A78CF
:207660000EE0602B11D0802B17D1073525F0070303F10805D3E90023CDE900230BE02A886C
:207680000023CDE90023043505E02B6800221946CDE900120435079BD9E70023059300227C
:2076A0000023CDE9002304F4C053B3F5805F0CD0B3F5C05F33D0B3F5006F4FD1DDE9002376
:2076C0000DF13609CDE9022304E0DDE900230DF1360915E0DDE9022313433AD0DDE902017F
:2076E0000A22002305F0AEF9DDE90201303209F8012D00230A2205F0A5F9CDE90201E9E7DA
:2077000052EA030125D002F00701303109F8011DD10841EA4371D8080A460346F0E74C4B1B
:2077200014F4804F0DF136094A4918BF1946DDE9002352EA03000CD002F00F00085C4FEACA
:20774000131E09F8010D100940EA037002467346EFE70DF13603C9EB030302E00DF136094C
:2077600000230293029B41F60802BB4238BFFF1A41F2080302EA040228BF00279A4202D179
:20778000002F08BF012741F60801029B8A4203EB07000DD1DDE90023134309D02F4A304945
:2077A00014F4804F4FF0020A0CBF0B46134602E04FF0000A5346079A9AB1059A52B904F0E4
:2077C0000602022A0AD0062A264A04BF4FF0010A134606E04FF0010A234B02E0234B4FF068
:2077E000010A0AEB000290458CBFC2EB08084FF0000814F0010200920DD1E10602D54744A3
:20780000904608E0414630460593FFF789FD059B002840F0E080BAF1000F07D0346852467C
:2078200019467068A047002840F0D580029B03EB0B04BB46BBF1100F33681BD910220C4901
:2078400070689847002840F0C680ABF1100BF1E7A2F22000B3F22000D0F22000C4F2200013
:207860003CED200088EC2000C7F220007CF12000D2F22000BBF1000F06D05A46654970682A
:207880009847002840F0A7803368029A4946706854449847002840F09E80009B3C44002BB9
:2078A00039D032E0D5F800900435B9F1000F0AD0CA469AF800300AF101020BB19246F8E741
:2078C000C9EB0A0A03E0DFF850914FF0060A002F02DBBA4528BFBA46D0458CBFCAEB0808DF
:2078E0004FF0000814F0010705D141463046FFF717FD00286FD13368524649467068984777
:20790000002868D10AEB0B042FB141463046FFF707FD00285FD108EB040B23E550EA010E80
:207920000ED000F00F0E12F80EE04FEA111C03F801ED4FEA101E4EEA017E70466146EDE7C6
:20794000FF1A02BF3022012703F8012C07F1030708BF03F1FF337822B84503F8012C4FF0BE
:20796000300203F8022C88BFC7EB08084FF0230298BF4FF0000814F00104A3F1030903F8FD
:20798000032C04D141463046FFF7CAFC18BB33683A46494670689847E8B95F4424B1414656
:2079A0003046FFF7BDFCB0B908EB070BDAE4B8F1010F2B688CBF08F1FF384FF0000814F064
:2079C000010405F104058DF8203008D141463046FFF7A6FC10B14FF0FF3017E0C344336898
:2079E000012208A9706898470028F4D108F101072CB141463046FFF793FC0028EBD1BB44CC
:207A0000B0E42B680435C3F800B0ABE40FB0BDE8F08F00BFD2F22000C9F220000FB407B52C
:207A200004AA52F8041B04480192FFF793FC03B05DF804EB04B07047740700201FB51446A0
:207A4000074A8DE80300029221461A4602A8CDF80CD0FFF77FFC009B00221A7004B010BD7E
:207A6000FFE3200010B501210C20FFF705FABDE81040014B5B68184734EA2000014B9B680C
:207A8000184700BF34EA2000014B1B6A184700BF70E92000014B5B6A184700BF70E920007A
:207AA00008B5054B1B68984730EA200028BF1520C0F17D0008BD00BF34EA200007B5FFF75F
:207AC00013F9032823D0FFF7D9FF00281FDB0E20FFF7ECF90F4906F048FA38B10D20FFF7E7
:207AE000E5F90C4906F041FA88B904E0FFF7E6F90028F3D10BE0FFF7BDFA40B9FFF7E0FADB
:207B0000054B9B68019303B05DF804EB184703B05DF804FB2A3200205CEA200070B590F892
:207B20002D400122012CD4BF03340524054602FA04F4FEF76DFE013CB0FBF4F12B4601FBBC
:207B40001401034A05F10C00BDE87040FEF7C0B9D97B20002DE9F0470D4614468B688046D7
:207B600093E8C000506B92F82C9006F0F0F86868FEF7D2FEA968144806F04EF929461348E2
:207B800006F04AF9606B06F0D8F840B1002384F82C3084F82D302046FFF7C0FF0BE004F15B
:207BA0000C00FEF7BBF92146094806F0D0F82146084806F031F94B46424639463046BDE810
:207BC000F04706F00CBA00BF7C07002088070020E4140020940700202DE9FF470446002800
:207BE00000F0CC80406B06F0A8F80546002800F0C5804068FEF7A6FE62490D20FFF74AF90E
:207C000001210820FFF738F9FFF72CFF0028C0F2B380FFF765F85C4E90F802907768FFF7D9
:207C20005FF88046FFF79CF801464046B847FFF745F9D6F818A00746D047002853D15FB157
:207C4000B3680193FFF78CF8019B984748B102280CBF0120042047E0F3699847002842D1B0
:207C6000EEE70FB100203FE0FAF7DCFC6FF00C08F769C0EB0808B84710B1D04750B907E012
:207C8000FAF7D0FC18EB000FF7D5FAF755FEF2E7B84730B1FAF7C6FC6FF01408C0EB080863
:207CA0000BE0736998470028F4D00BE0FAF7BAFC18EB000F04D5FAF73FFEB8470028F5D09B
:207CC000B84708B902200FE03369032103A89847032808D19DF80E00B0EB090018BF012046
:207CE0000028BFD000E00120AA68002A46D003283DD8DFE800F0021B0B4394F82C30002010
:207D0000013384F82D0084F82C3030E0002384F82D3094F82C300133DBB284F82C30127A95
:207D20009A421DD822462946022022E094F82D300133DBB2052B83BF002384F82D3094F8D3
:207D40002C3084F82D3084BF013384F82C3094F82C10137A994203D322462946012008E0B9
:207D60002046FFF7DBFE686806F0B2F806E022462946FFF7EFFE01E00520B5E704B0BDE8C3
:207D8000F08700BF2A32002070E920002DE9F04107460E208846FFF789F8454B05461A7844
:207DA000444C22B901221A70FEF732FD2070237813B9404B01221A70217807204B1C23709E
:207DC000FFF75AF801210C20FFF756F83A4805F0B4FF044640B12946201D06F0C6F8D8B973
:207DE000204605F0F2FFF4E7344806F001F8044640B32946201D06F0B5F8002304F130001D
:207E0000606384F82C3084F82D30236305F092FF2146294805F0AEFF606B05F0C0FF0728BA
:207E200010DC274805F0E4FF054698B9606B05F0B6FF38B92146204805F089FF21461F48F3
:207E400005F0EAFF41463846BDE8F0410123042206F0C5B81B4805F0CBFFA86008B3FEF7D2
:207E600039FD6860C8B10620AE68FFF70DF8C0B208B1307201E00823337286E88001294678
:207E8000606B05F077FF606B05F057FF85420DD12046BDE8F041FFF741BEA968094805F069
:207EA000BBFF2946064805F0B7FFBFE7BDE8F0817323002062230020E414002094070020B6
:207EC000880700207C07002008B5054805F080FF044805F07DFFBDE80840034805F078BFB1
:207EE000880700207C0700209407002010B5074A13880344B3F5A06F9FBF054913800C7803
:207F000000199ABF08700120002010BD7C2A002086230020B0F5A06F9DBF024B18800120C4
:207F2000002070477C2A002005289ABF024B33F810000020704700BF881F00200C220249C0
:207F4000024804F093BF00BF941F0020881F0020044A00231380044A1370044A1370FFF79C
:207F6000EDBF00BF7C2A0020862300208823002010B5064C0C220021204605F051F800230F
:207F800023814FF6FF73238010BD00BF941F00202DE9FF47154D6C4605F108030FCB95F8AC
:207FA00007808DE80F0000F0FFFE114805F0C5FE0646DFF84090DFF840A08EB1776857B1E8
:207FC000B9F800309AF800202C3B38329BB22A4441462046B847304605F0F7FE0646ECE717
:207FE000FFF7B6FF04B0BDE8F08700BF8C2A0020B81500207C2A002086230020F8B5204BDD
:20800000204E1B7906F11805F371337E06F10804FF2B08D194E80F0085E80F002946204653
:2080200000F0A4FB1BE02746AE46174A3B4603CB7345106051601F4602F10802F6D195E826
:208040000F0084E80F00104B104C03F11005224618685968083303C2AB421446F7D100F02E
:20806000A3FE0B4B81221B782833F418F25400236370638006F064FBC0436080F8BD00BFA1
:20808000102900208C2A0020A01F0020A42A00208623002038B504460B480D4605F04DFEFE
:2080A00050B10379A34204D143799D4206D0FF2B04D005F08AFEF3E7012038BD8368002B97
:2080C000FAD09847002038BDBC1500200146014805F050BEBC1500202DE9F047414B074647
:2080E0001B780E463A2B904609D13F4B1A783F4BD356002B03DBBDE8F047FFF729BF3C4B6B
:208100003C4C1B6B98473C4A2546914604F1100E234603CB7345106051601C4602F1080228
:20812000F6D1DFF8E8A0354CBAF800202146303292B2B2F5A06F28BF4FF4A062AAF8002015
:2081400004F13000303A04F007FF602323700023637063803A23A371294B1B79E37123892E
:2081600073B9638963B9A38953B9E38943B9238A33B9638A23B9A38A13B9E38A002BBAD0AE
:20818000204B0FCB85E80F0099F80030FF2B03D1042FB0D1022EAED1134D1749194800F0EB
:2081A000E5FA95F80090404609F12803E218E754567006F0CBFABAF80010134B283943F8A6
:2081C000090089B2A3F12C0006F049F92B7828331C440023638006F0B3FAC0436080BDE8D4
:2081E000F08700BF8823002086230020B42A00206CEA2000A42A0020A01F00208C2A00209E
:2082000010290020942A0020B82A00207C2A00202DE9F047824689469046184C602222702D
:208220003A22A271164A9DB21279291D002704F11806204689B2E2716770678006F00FF965
:2082400010225146304604F011FE314604F1080000F08CFA0B4B2C351B7828331E1903F81B
:20826000049086F80180778006F06AFAC043064B70801D80BDE8F04700F098BB8C2A002044
:2082800010290020862300207C2A002008B50448FFF71CFFBDE808400248FFF717BF00BF1A
:2082A000A0070020AC0700201FB50C46074B01469B696846984710222146684604F0A4FDF8
:2082C000B0FA80F0400904B010BD00BF6CEA200070B506460A480D4605F02FFD044668B1EB
:2082E0001DB9204605F071FDF8E7A3689E42F8D129462046FFF7D8FF0028F2D0204670BD2D
:208300004417002030B505460C460E4B85B05B696846984721462846FFF7DAFF69460446E4
:208320002846FFF7D5FF11232CB1844205D0013B03D06469F8E7204602E0031B5842584105
:2083400005B030BD6CEA20002DE9F843904606460F469946FFF7BCFF414604463046FFF770
:20836000B7FF0546B8F1000F0CD058B902464FF0FF3341463046FFF7E7FF054610B9002091
:20838000BDE8F8837CB9164805F032FD04460028F5D0002343610146124805F0EBFC124A2F
:2083A0001368013313600822B918A660C4F8049004F10C0004F05AFD39463046FFF7A2FF72
:2083C00050B1D4F81480394665613046FFF79AFF18B9C4F8148000E065612046BDE8F883A5
:2083E000B807002044170020C015002008B5054B002205481A6005F0EBFCBDE80840034824
:2084000005F098BCC0150020B807002044170020F8B50546154805F090FC0446144E24B36B
:20842000204605F0D2FC63680746ABB90F4805F084FC28B143699C4202D005F0C6FCF8E700
:2084400021460A4805F083FC21460A4805F0E4FC3368013B336006E05A1C04D0AB428CBF8F
:208460005B1B002363603C46D9E7F8BD44170020C0150020B807002070B50C4805F05DFC93
:2084800004460B4D84B1204605F09FFC06462146064805F05CFC2146064805F0BDFC2B68CB
:2084A0003446013B2B60EDE770BD00BF44170020C0150020B807002000487047B01F00207E
:2084C0002DE9F341154D009104460E4690461F460195034620220321114806F03BF8012896
:2084E0002B4616D12A6804F11001107020462A68023250F8044B884242F8044BF9D11868AC
:20850000089B86744361099B80F813800777836100E0002002B0BDE8F08100BF4C170020FF
:208520000C2A002070B506460C4B0D4C03F1600523602068A8420FD203781BB92368203368
:208540002360F6E7827C3146D208023004F05CFC0028F3D1012070BD002070BD0C2A002011
:208560004C17002013B5084C802300930194034620220321054805F0EDFF08B9206800E08B
:20858000002002B010BD00BF501700202829002030B548F2FE040C4B0C4A03F160011360EF
:2085A00013688B420CD21D783DB1451C02D09D7C854202D15D88A54203D020331360EFE7F1
:2085C0000023184630BD00BF282900205017002037B5104D8023009304460346019512229A
:2085E00005210D4805F0B6FF01282B460ED12A6804F11001107020462A68023250F8044B02
:20860000884242F8044BF9D1186800E0002003B030BD00BF48170020AC290020F7B5214CD1
:2086200080230093054603460E4617460194202203211D4805F08EFF012830D12A462368B8
:2086400005F1100118702368023352F8040B8A4243F8040BF9D12068C77416B90123037564
:2086600005E0002303753146183005F008FB23680E480121997402234370FF220023027025
:2086800043808380C38003818372C17202736B7B4373EB89C381FFF79BFF206800E0002044
:2086A00003B0F0BD5017002028290020C01F002013B5084C802300930194034612220521D9
:2086C000054805F047FF08B9206800E0002002B010BD00BF48170020AC29002038B50546DF
:2086E000C8B10D48022200244270FF230122C27244808480C4800481847203730370EB7B63
:2087000043732B8AC381FFF7D3FF044A106008B105F048FF2C7038BDC01F00204817002020
:2087200070B50F4C0F4B2646236003F160052068A8420ED2037843B1037D33B91830FDF7AE
:2087400047FA10B13068FFF7C9FF236820332360EDE700F08BFFBDE87040034805F0A0BA23
:2087600050170020282900206C2A00202DE9F84F48F2FE030A8805469A420F4623D00A7830
:20878000FF2A20D01C490024A04689469B461B4A0A6002F1600AD9F80060564517D2337815
:2087A0006BB1B37C012B0AD173885B4507D0B11C384605F011FF80459CBF344680462036EF
:2087C000C9F80060E7E70120FFF7E2FE04464CB92C806C80AC80EC802C816C81AC81EC8100
:2087E000BDE8F88FA31C123453F8042BA34245F8042BF9D1BDE8F88F50170020282900208F
:2088000070B5094EB0684508FEF702F80446FDF7FFFF2402B268A4B22044B0FBF2F302FBC5
:208820001300284470BD00BF1029002073B53D4B1A88B2B95A88A2B99A8892B9DA8882B970
:208840001A8972B95A8962B99A8952B9DA8942B9FD2119805A809A80DA801A815A819A812A
:20886000DA81314C00F0C4F900F074FE602200212E4804F0D5FB0021F822204604F0D0FBD4
:208880002B4B20221A702B4B18221A704FF4A06323604EF6602340262671A360FFF7B0FF27
:2088A0004FF47A73236148F2FE03314640F2FF260025E0602575204C2A46238065802B4627
:2088C000A580E580204601950095FFF7F9FD20461A4905F06BFE294601222046FFF79EFEE0
:2088E0004FF480732046E38126806580A580E58025816581A581FFF76BFE4FF40073204636
:2089000026806580A580E58025816581A581E381FFF75EFE0A480C2102B0BDE8704005F05F
